:10259B000A0A002A2A2A2A2A2A2A2A2A2A2A2A2AFA
:1025AB002A2A2A2A2A2A2A2A2A2A2A2A2A2A2A2A80
:1025BB002A2A2A2A2A2A0A002A202020436F6C6CF6
:1025CB006175646F207363686564612043505520A7
:1025DB00524556494E44202020202A0A002A20200A
:1025EB00207377207665722E20746573747265770D
:1025FB0020312E3020202020202020202020202A97
:10260B000A00092031202D20746573742052414D2E
:10261B000A00092032202D20746573742041444335
:10262B000A00092033202D207465737420492F4F25
:10263B002050726F67720A00092034202D207465B8
:10264B00737420554152545F553237202D20524917
:10265B0043455A494F4E450A00092035202D207419
:10266B0065737420554152545F553237202D2054D9
:10267B005241534D495353494F4E450A0009203699
:10268B00202D207465737420554152545F5533309F
:10269B002044473633302D323928707265736361AD
:1026AB006C657220783136290A00092037202D20DD
:1026BB007465737420554152545F55333020444731
:1026CB003633302D3132287072657363616C6572ED
:1026DB0020783634290A0A000A0A202020202053A9
:1026EB0063656C746120746573743A20000A20452D
:1026FB0043484F20737520553237206174746976C7
:04270B006F200A0031
:0432BC00027000009C
:03000B0002338A33
:10338A00C0E0C0D075D000C000C28CC2AFA2B5B335
:10339A0092B5787106E618700106758C4B758AFF2E
:0B33AA00D28CD2AFD000D0D0D0E032E7
:0834D6007870E6FE08E6FF2213
:1033B500759852758921758DFD858D8B758C4B752D
:1033C5008AFF75B802D288D28A75A887D2A9D28C0D
:0733D500D28ED299C2B4228E
:102E4F007BFF7A25799B12104C7BFF7A25799E1296
:102E5F00104C7BFF7A2579C312104C7BFF7A2579B2
:102E6F00E812104C7BFF7A25799E12104C7BFF7A6B
:102E7F0025799B12104C7BFF7A26790D12104C7B13
:102E8F00FF7A26791D12104C7BFF7A26792D1210AE
:102E9F004C7BFF7A26794312104C7BFF7A2679649C
:102EAF0012104C7BFF7A26798812104C7BFF7A2602
:102EBF0079B512104C7BFF7A2679E312104C12343D
:102ECF00CCEF24D0F51DD364809480400DE51D64B4
:102EDF008094875005756B018003E4F56BE56B708B
:052EEF0003022E4F223A
:103329001233B5C2B5E4F51F051FE51FB4C8F9E4AA
:10333900F51F051FE51FB4C8F9E4F51F051FE51FB3
:10334900B4C8F97BFF7A2679F812104C1214598007
:01335900FB78
:102866000A546573742052414D2045535445524EC7
:10287600412028307830303030202E2E20307831EC
:10288600464646290A0A00577269746520706174C3
:102896007465726E2030784141353520200A00403B
:1028A60025303458200D000A566572696679206114
:1028B60074200A0025303458200D00746573742086
:1028C60052414D204B4F2025303458204020726510
:1028D600616420253034780A000A577269746520CD
:1028E6007061747465726E203078353541412061AF
:1028F60074200A00746573742052414D204B4F209A
:10290600256C582040207265616420253034780A91
:10291600000A5465737420312D7368696674696E94
:1029260067206F6E2041302E2E413132200A00255D
:102936003034582028307830303030292000202E8E
:102946002E6F6B0A002E2E4B4F20256C780A002521
:10295600303458202028412562642920002E2E4B31
:102966004F2025750A00546573742052414D204F3F
:102976004B0A00546573742052414D204B4F20651D
:1029860072726F7220202562640A005072656D654E
:10299600726520756E20746173746F207065722085
:0E29A60070726F736567756972652E0D0A0099
:0932C000011600011700011500C0
:101D5E007BFF7A28796612104C7BFF7A28798D12D8
:101D6E00104CE4F515F513F514AE13AF14C3EF9440
:101D7E00FFEE941F502D8E0E8F0F7BFF7A2879A5C4
:101D8E00850E4C850F4D12104C851482851383746D
:101D9E00AAF0A37455F074022514F514E43513F566
:101DAE001380C67BFF7A2879AD12104CE4F513F53B
:101DBE0014AE13AF14C3EF94FFEE941F504F8E0E5C
:101DCE008F0F7BFF7A2879BA850E4C850F4D121036
:101DDE004C851482851383E0FEA3E0FF64557003E7
:101DEE00EE64AA601B754C0185134D85144E8E4F03
:101DFE008F507BFF7A2879C112104C751501800D1A
:101E0E0074022514F514E43513F51380A47BFF7AC0
:101E1E002879DF12104CE4F513F514AE13AF14C38A
:101E2E00EF94FFEE941F502D8E0E8F0F7BFF7A28AE
:101E3E0079BA850E4C850F4D12104C851482851380
:101E4E00837455F0A374AAF074022514F514E435C6
:101E5E0013F51380C67BFF7A2879AD12104CE4F58A
:101E6E0013F514AE13AF14C3EF94FFEE941F504F3F
:101E7E008E0E8F0F7BFF7A2879BA850E4C850F4D0B
:101E8E0012104C851482851383E0FEA3E0FF64AA32
:101E9E007003EE6455601B754C0185134D85144E11
:101EAE008E4F8F507BFF7A2879FA12104C751502DF
:101EBE00800D74022514F514E43513F51380A47BFC
:101ECE00FF7A29791712104CE4F513F51485148254
:101EDE0085138374AAF0A37455F07BFF7A297935A4
:101EEE0085134C85144D12104C851482851383E096
:101EFE00FEA3E0FFBEAA0EBF550B7BFF7A297944E5
:101F0E0012104C80197BFF7A29794B851482851328
:101F1E0083E0F54CA3E0F54D12104C751503E4F576
:101F2E00160516E516B4FFF9E4F517F51375140149
:101F3E00F510751101C3E51094205079AE13AF144E
:101F4E008E0E8F0F7BFF7A2979558E4C8F4DAF17E2
:101F5E0005178F4E12104C85148285138374AAF0C8
:101F6E00A37455F0E4F5160516E516B4FFF98514BD
:101F7E0082851383E0FEA3E0FFBEAA0EBF550B7B46
:101F8E00FF7A29794412104C80197BFF7A297963E4
:101F9E00851482851383E0F54CA3E0F54D12104CA9
:101FAE00751503E51125E0F511E51033F510F51360
:101FBE008511148080E5157BFF70067A29796C8077
:101FCE00077A29797985154C12104C7BFF7A29797D
:0D1FDE009112104C12349E8F12BF0AF8228F
:10179C0063683A202562642020200073616D706CB0
:1017AC0065206EB020256264202020006C65747466
:1017BC007572613A203078256258202825312E32F6
:1017CC006620566F6C7429200A0063683A202562E3
:1017DC006420206C657474757261203078255820F3
:1017EC0020202825312E326620566F6C74290A0071
:1017FC004F4B004B4F00457369746F2074657374C5
:10180C0020636820494E256264203D2030782530C5
:10181C0032582020206C6574747572613A20253121
:10182C002E326656202056616C2061747465736F7D
:10183C003A2025312E32665620202020006573690F
:10184C00746F3A2025730A000A0A2A2A2A2A2A20A7
:10185C0020546573742041444320202A2A2A2A2AC2
:10186C002020200A0A0053656C657A696F6E6172DC
:10187C006520696C207469706F20646920736368DB
:10188C00656461203A0A0020202031202D20444735
:10189C003633302D31320A0020202032202D2044C6
:1018AC00473633302D32390A0A00202020202053AD
:1018BC0063656C74613A20000A000A506F73697A90
:1018CC00696F6E617265206C6F20737769746368E1
:1018DC0020616C2063656E74726F20652076657272
:1018EC0069666963617265206368652069206C654F
:1018FC00642053312065205332207369616E6F2050
:10190C007370656E74690A005072656D657265203E
:10191C00494E56494F207065722070726F7365671F
:10192C0075697265200A000A546573742063616ED0
:10193C00616C6520494E300A000A5465737420634B
:10194C00616E616C6520494E310A000A54657374EE
:10195C002063616E616C6520494E320A000A546541
:10196C00737420494E2562640A00506F73697A695A
:10197C006F6E617265206C6F207377697463682079
:10198C007375204E4F495345312065207665726939
:10199C0066696361726520636B6520696C206C6598
:1019AC0064205331207369612061636365736F2018
:1019BC00287465737420494E256264290A00506F9F
:1019CC0073697A696F6E617265206C6F20737769C9
:1019DC00746368207375204E4F4953453120287429
:1019EC0065737420494E256264290A00506F73692F
:1019FC007A696F6E617265206C6F2073776974639E
:101A0C0068207375204E4F4953453220652076650A
:101A1C00726966696361726520636B6520696C200D
:101A2C006C65642053322073696120616363657354
:101A3C006F20287465737420494E256264290A004E
:101A4C0052696570696C6F676F207465737420419F
:101A5C0044430A005465737420494E256264203D4A
:101A6C00203078253032582020206C6574747572C3
:101A7C00613A2025312E326656202056616C206149
:101A8C00747465736F3A2025312E326656202020EF
:051A9C0020000A0A0011
:1032C900082DB05B598E84B5000001460001470006
:102416008F658D66EF25E02436F8E4F608F6F56755
:10242600752801E42565FFE434A0F5298F2A8F82FB
:10243600F583747FF03092FD852A82852983E0F545
:10244600487BFF7A17799C85654C12104C7BFF7A86
:102456001779A785284C12104C852A82852983E096
:10246600FCF54CE4120A587B2E7A9079A0783C123F
:1024760009488F508E4F8D4E8C4D7BFF7A1779B859
:1024860012104C852A82852983E0FFE56525E02424
:1024960036F808EF26F618E436F60528E528D3942C
:1024A6000A4080E56525E02436F8C000E6FE08E629
:1024B600FF7C007D0A120E68D000A60608A60785D6
:1024C600654CE56525E02436F8E6FC08E6FD8C4D0E
:1024D600F54EE4120A537B2E7A9079A0783C1209C5
:1024E600488F528E518D508C4F7BFF7A1779D612BA
:1024F600104CE56525E02436F8E6FC08E6C395664B
:10250600FFEC9400FE1234C0D3EF940DEE64809479
:102516008078257C007D007BFF500C7A1779FC12B1
:102526000FCDE4F567800A7A1779FF120FCD75672C
:102536000185654CE56525E02436F8E6FC08E6FDF0
:102546008C4DF54EE4120A537B2E7A9079A0783C96
:102556001209488F528E518D508C4FE566FD7C00D6
:10256600E4120A537B2E7A9079A0783C1209488FA0
:10257600568E558D548C537BFF7A18790212104C67
:10258600754C00754D00754E257BFF7A18794912FA
:05259600104CAF6722AC
:101AA100E4F546E54625E02416F582E43402F583A3
:101AB100E4F0A3F00546E546B408E87BFF7A18791F
:101AC1005412104C7BFF7A18797212104C7BFF7AFA
:101AD10018799312104C7BFF7A1879A412104C7B61
:101AE100FF7A1879B612104C1234CC8F227BFF7A10
:101AF1001879C412104CE4F523E52224D0F524D33F
:101B010094004016E52494035010E524B40105E443
:101B1100F53280037532B5752301E52360A67BFF9D
:101B21007A1879C612104C7BFF7A19791412104C6D
:101B310012349E8F35BF0AF87BFF7A197933121060
:101B41004CE4FDFF1224167E00900216EEF0A3EF86
:101B5100F0600AE025E0F0900216E033F07BFF7AB6
:101B610019791412104C12349E8F35BF0AF87BFF7D
:101B71007A19794512104CE4FD7F011224167E007A
:101B8100900218EEF0A3EFF0600AE025E0F0900279
:101B910018E033F07BFF7A19791412104C12349E3D
:101BA1008F35BF0AF87BFF7A19795712104CE4FD83
:101BB1007F021224167E0090021AEEF0A3EFF0606D
:101BC1000AE025E0F090021AE033F07BFF7A197900
:101BD1001412104C12349E8F35BF0AF8E4F5467B7F
:101BE100FF7A19796985464C12104CE546700B7BDA
:101BF100FF7A19797685464C801CE546B4010A7B4B
:101C0100FF7A1979CAF54C800DE546B4020B7BFFCA
:101C11007A1979F8F54C12104C7BFF7A1979141264
:101C2100104C12349E8F35BF0AF8E54625E0241684
:101C3100F582E43402F583C083C082E0FEA3E0FFB5
:101C4100C007C006742D2546F8E6FDAF46122416DE
:101C5100EFFDD0E0FFD0E04DD082D083CFF0A3EFF5
:101C6100F07BFF7A19791412104C12349E8F35BF14
:101C71000AF80546E546C394085003021BE07BFFC2
:101C81007A1A794C12104CE4F546742D2546F8E683
:101C9100FFE54625E02436F8E6FC08E6C39FFFECA5
:101CA1009400FE1234C0D3EF940DEE648094805002
:101CB10020E54625E02416F582E43402F583A3E00D
:101CC10020E10E78257C007D007BFF7A1779FC806E
:101CD1000C78257C007D007BFF7A1779FF120FCDF0
:101CE10085464CE54625E02436F8E6FC08E6FD8C01
:101CF1004DF54EE4120A537B2E7A9079A0783C126E
:101D010009488F528E518D508C4F742D2546F8E61F
:101D1100FD7C00E4120A537B2E7A9079A0783C1264
:101D210009488F568E558D548C537BFF7A1A7960F2
:101D310012104C754C00754D00754E257BFF7A18BD
:101D4100794912104C0546E546C394085003021C1C
:0D1D51008B12349E7BFF7A1A799E02104C93
:1000160052657365742050494F0A00434F4E46207F
:1000260050494F205532362000434F4E4620504906
:100036004F2055323920000A0A002A2A2A2A2A2A5B
:100046002A2A2A2A2A2A2A2A2A2A2A2A2A2A2A2A0A
:100056002A2A2A2A2A2A2A2A2A2A2A2A2A0A002A44
:100066002020207363656C7461207465737420505E
:10007600494F202020202020202020202020202022
:10008600202A0A000A00092031202D20636F6D61A5
:100096006E646F2072657365740A00092032202D24
:1000A60020636F6E6669677572617A696F6E652027
:1000B60072656769737472690A00092033202D20FE
:1000C6007465737420492F4F20636F6D706C65746F
:1000D6006F0A00092034202D2074657374206C6526
:1000E600747475726120535731200A000920352037
:1000F6002D20746573742070696C6F74616767690D
:100106006F2072656CE820553135200A00092036CB
:10011600202D2074657374206F7574707574205566
:100126003236205042200A00092037202D207465DF
:100136007374206F75747075742055323620504371
:10014600200A00092038202D2074657374206F75ED
:100156007470757420553239205041200A000920E8
:1001660039202D2074657374206F75747075742032
:10017600553338200A00092030202D206D656E7514
:10018600207072696E636970616C650A000A2020CE
:100196002020205363656C746120746573743A2063
:1001A600000A0A544553542055323620706F727433
:1001B60061204220636F6E2072696C65747475727B
:1001C600612073752055323920706F727461204337
:1001D6000A000A5665726966696361726520616321
:1001E60063656E73696F6E6520646569206C65640E
:1001F600205531332028553236205042203D2030BC
:10020600304829200A0072696C6574747572612021
:100216007375205532392E5043204F4B20283078A5
:100226002530326278290A00212121204552524187
:1002360054412072696C65747475726120737520FF
:100246005532392E504320202830782530326278B6
:1002560020696E76656365206469203078304629AA
:100266000A007072656D69203C494E56494F3E0A38
:10027600000A566572696669636172652073706506
:10028600676E696D656E746F20646569206C656460
:10029600205531332028553236205042203D204605
:1002A6004648290A00212121204552524154412025
:1002B60072696C6574747572612073752055323974
:1002C6002E504320202830782530326278290A00C3
:1002D6000A54657374205532362E504225626420C6
:1002E600283078253032627829202D2056657269AB
:1002F60066696361726520616363656E73696F6EBB
:100306006520553133206C6564202562640A00211E
:100316002121204552524154412072696C65747402
:10032600757261207375205532392E50432028305E
:10033600782530326278290A000A5465737420558C
:1003460032362E50423620283078253032627829CF
:100356002D20566572696669636172652061636303
:10036600656E73696F6E6520553133206C65642048
:100376002562640A000A54657374205532362E507D
:100386004237202830782530326278292D2056656C
:10039600726966696361726520616363656E73691C
:1003A6006F6E6520553133206C6564202562640AC2
:1003B600000A0A544553542055323620706F727421
:1003C6006120430A000A566572696669636172654F
:1003D60020616363656E73696F6E652055313220E7
:1003E6006C656420256264000A54455354205532D6
:1003F6003920706F727461204120636F6E207269BC
:100406006C65747475726120737520553236207070
:100416006F72746120410A000A56657269666963E3
:1004260061726520616363656E73696F6E652064D2
:100436006569206C65642055313420285532392091
:100446005041203D2030314829200A0072696C65F0
:100456007474757261207375205532362E504120A2
:100466004F4B202830782530326278290A00212126
:1004760021204552524154412072696C657474754D
:100486007261207375205532362E504120283078FF
:100496002530326278290A000A56657269666963F0
:1004A60061726520737065676E696D656E746F2025
:1004B600646569206C6564205531342028553239CD
:1004C600205041203D20464548290A000A546573BC
:1004D60074205532392E5041256264202830782503
:1004E6003032627829202D2056657269666963610B
:1004F600726520616363656E73696F6E6520553141
:1005060034206C6564202562640A000A546573749D
:10051600205532392E504125626420283078253006
:1005260032627829202D2056657269666963617288
:100536006520737065676E696D656E746F205531E1
:1005460034206C6564202562640A006C65747475D9
:1005560072612070696E205532362E504136204F1A
:100566004B202830782530326278290A0021212153
:1005760020455252415441206C6574747572612055
:100586007375205532362E50413620283078253066
:10059600326278290A000A0A5445535420205357D8
:1005A600310A000A506F73697A696F6E617265204D
:1005B600535731207375204F4E2065200072696CA9
:1005C600657474757261207375205532362E5041EC
:1005D60037204F4B202830782530326278290A00A0
:1005E600212121204552524154412072696C657483
:1005F60074757261207375205532362E504137203E
:100606002830782530326278290A000A506F7369DB
:100616007A696F6E61726520535731207375204F6A
:100626004646206520000A0A54455354205533385F
:100636000A00566572696669636172652061636363
:10064600656E73696F6E6520646569206C656420EC
:100656005531352028553338203D20307830302923
:10066600200A0072696C6574747572612073752056
:100676005532392E5042204F4B20283078253032C3
:100686006278290A002121212045525241544120F5
:1006960072696C6574747572612073752055323990
:1006A6002E5042202830782530326278290A0056AA
:1006B60065726966696361726520737065676E69E4
:1006C6006D656E746F20646569206C6564205531B4
:1006D600352028553338203D203078666629200A93
:1006E6000054657374205533382E502562642028D3
:1006F6003078253032627829202D20566572696659
:10070600696361726520616363656E73696F6E65A7
:10071600207375205531352064656C204C45442086
:100726002562640A000A0A5445535420553135207F
:10073600706F727461205031200A000A5665726922
:100746006669636120616363656E73696F6E6520B8
:10075600553131206C65642032000A56657269662F
:1007660069636120616363656E73696F6E652055A9
:100776003131206C65642033000A566572696669FA
:10078600636120616363656E73696F6E65205531C1
:1007960031206C65642034000A56657269666963A7
:1007A6006120616363656E73696F6E6520553131D3
:1007B600206C65642035000A566572696669636156
:1007C60020616363656E73696F6E652055313120F4
:1007D6006C65642036000A56657269666963612035
:1007E600616363656E73696F6E6520553131206C88
:1007F60065642037005665726966696361726520B3
:100806006368652074757474692069206C6564205A
:100816007369616E6F207370656E7469207472619E
:100826006E6E65206C656420372064692055313111
:100836000A00566572696669636172652063686558
:100846002074757474692069206C6564207369610D
:100856006E6F206163636573690A000A28313D3053
:100866004B20303D4B4F20293A000A0A2A2A2A2AD1
:100876002A20205465737420492F4F2020202A2ACD
:100886002A2A2A2020200A0A000A5465737420495D
:100896002F4F204F4B0A000A5465737420492F4F7F
:1008A600204B4F202121200A0054657374206C656B
:1008B60064204F4E20204B4F0A0054657374206C01
:1008C6006564204F4646204B4F0A005465737420DA
:1008D60055323620504220204B4F0A00546573741F
:1008E6002055323620504320204B4F0A0054657362
:1008F600742055323920504120204B4F0A00546550
:1009060073742055333820202020204B4F0A005482
:100916006573742055313520202020204B4F0A0066
:100926005072656D65726520756E20746173746FA3
:10093600207065722070726F736567756972652EB7
:020946000A00A5
:0C32D90041020B00420205000001090048
:10342700D297E4F51F051FE51FB4C8F9E4F51F059A
:103437001FE51FB4C8F9C2977BFF7A0079160210FF
:013447004C38
:103468007BFF7A00792112104C9040037490F07B16
:0F347800FF7A00792F12104C902003748BF022F2
:102C0B007BFF7A00793D12104C7BFF7A00794012E2
:102C1B00104C7BFF7A00796512104C7BFF7A0079A0
:102C2B004012104C7BFF7A00798A12104C7BFF7A92
:102C3B0000798C12104C7BFF7A0079A112104C7B1F
:102C4B00FF7A0079C012104C7BFF7A0079D91210F1
:102C5B004C7BFF7A0079F212104C7BFF7A017913CF
:102C6B0012104C7BFF7A01792E12104C7BFF7A01EC
:102C7B00794912104C7BFF7A01796412104C7BFF5F
:102C8B007A01797C12104C7BFF7A01799312104CEC
:102C9B001234CCEF24D0F50DE4F56CC3E50D648054
:102CAB009480407AE50D6480948A5072E50D120E83
:102CBB00DB2CDB012CE0022CE5032CEA042CF505C4
:102CCB002CFA062D05072D10082D1B0900002D26AB
:102CDB00123427804912346880441229B4803F1281
:102CEB003427123468122F978034122EF4802F124F
:102CFB003427123468121FEB8024123427123468E5
:102D0B001231988019123427123468122227800E40
:102D1B00123427123468122AE48003756C01E56CB7
:062D2B007003022C0B22D4
:101FEB00E4F5087BFF7A0179A712104C7BFF7A018D
:101FFB0079D812104CE4904001F0F51F051FE51F36
:10200B00B4C8F9902002E0543FFF7BFFBF0F0C7A5E
:10201B0002790CE0F54C12104C800F7A02792E905D
:10202B002002E0F54C12104C05087BFF7A02796810
:10203B0012104C12349E900213EFF0BF0AF57BFF87
:10204B007A02797712104C90400174FFF0E4F51F7F
:10205B00051FE51FB4C8F9902002E0543FFF7BFF3A
:10206B00BF300C7A02790CE0F54C12104C800F7AD1
:10207B000279AB902002E0F54C12104C05087BFF67
:10208B007A02796812104C12349E900213EFF0BF53
:10209B000AF590020A7401F0E4900214F0904001EA
:1020AB0074FFF0E0FF90020AE0F4FEEF5E90400157
:1020BB00F07BFF7A0279D6900214E0FFF54C90404A
:1020CB0001E0F54DEF2402F54E12104C902002E08A
:1020DB00543FFF90020AE044307BFFB5070F7A02B2
:1020EB00790C902002E0F54C12104C800F7A03799A
:1020FB0015902002E0F54C12104C050890020AE0F6
:10210B00FF25E0F07BFF7A02796812104C12349EA7
:10211B00900213EFF0BF0AF5900214E004F0E0C355
:10212B00940450030220A89002147404F090400110
:10213B0074FFF0E0FF90020AE0F4FEEF5E904001C6
:10214B00F07BFF7A0279D6900214E0FFF54C9040B9
:10215B0001E0F54DEF2402F54E12104C90020AE00F
:10216B00F45430FF902002E0543F7BFFB5070C7A0C
:10217B0002790CE0F54C12104C800F7A0379159014
:10218B002002E0F54C12104C050890020AE0FF25E6
:10219B00E0F07BFF7A02796812104C12349E9002A9
:1021AB0013EFF0BF0AF5900214E004F0E0C39406BD
:1021BB00500302213890400174FFF0E0FF90020AB7
:1021CB00E0F4FEEF5E904001F07BFF7A03793FE095
:1021DB00F54C754D0812104C123448EF600205088F
:1021EB0090020AE025E0F090400174FFF0E0FF90D0
:1021FB00020AE0F4FEEF5E904001F07BFF7A037978
:10220B007BE0F54C754D0912104C123448EF60020F
:0C221B000508E50860037F01227F002217
:10319800E4F56D7BFF7A0379B712104CE490400296
:1031A800F090020A04F0E4900214F0900214E0FF98
:1031B800C39408502E90020AE0904002F07BFF7AF8
:1031C8000379CBEF2402F54C12104C90020AE0FF71
:1031D80025E0F0123448EF256DF56D900214E004F7
:0631E800F080C8AF6D226B
:102227007BFF7A0379EE12104CE4900207F09002DC
:102237000A04F090C0007480F09020007401F07BD5
:10224700FF7A04791E12104C904000E0543FFF7B48
:10225700FFBF3F0C7A047952E0F54C12104C800F07
:102267007A047974904000E0F54C12104C05097B14
:10227700FF7A02796812104C12349E900213EFF025
:10228700BF0AF590C0007480F090200074FEF07BC8
:10229700FF7A04799E12104C904000E0543F7BFF78
:1022A700700C7A047952E0F54C12104C800F7A04C6
:1022B7007974904000E0F54C12104C05097BFF7AC9
:1022C70002796812104C12349E900213EFF0BF0A85
:1022D700F590C0007480F090200074FFF0E4900245
:1022E70014F07BFF7A0479D2F54C902000E0F54D8D
:1022F700E42402F54E12104C123448EF600205092F
:1023070090C0007480F090200074FEF0E4900214F6
:10231700F07BFF7A057911F54C902000E0F54DE44C
:102327002402F54E12104C123448EF600205099052
:10233700020A7402F090021214F0900214F0902036
:102347000074FEF0E0FF90020AE0F4FEEF5E9020DA
:1023570000F07BFF7A0479D2900214E0FFF54C90ED
:102367002000E0F54DEF2402F54E12104C900214B8
:10237700E0C394075029900212E0FF904000E07BF1
:10238700FFB5070C7A047952E0F54C12104C800F18
:102397007A047974904000E0F54C12104C050990CE
:1023A700020AE025E0F0900212E0FF25E0F07BFF53
:1023B7007A02796812104C12349E900213EFF0BF24
:1023C7000AF5900214E004F0E0C3940850030223D6
:1023D70045904000E07BFF20E60C7A057951E0F557
:1023E7004C12104C800F7A057973904000E0F54C41
:1023F70012104C0509E4900210F0122F979002106A
:0F240700EFF0E5097003E060037F01227F002200
:102F9700E4F50A900210F07BFF7A05799C12104C39
:102FA7007BFF7A0579A912104C7BFF7A02796812A8
:102FB700104C12349E900213EFF0BF0AF5904000B8
:102FC700E07BFF30E70C7A0579C3E0F54C12104C33
:102FD70080107A0579E6904000E0F54C12104C75A8
:102FE7000A017BFF7A06791112104C7BFF7A02796E
:102FF7006812104C12349E900213EFF0BF0AF5903E
:103007004000E07BFF20E70C7A0579C3E0F54C121E
:10301700104C80107A0579E6904000E0F54C1210CC
:073027004C750A02AF0A22FA
:102AE4007BFF7A06792C12104CE4F50B90C000F0B1
:102AF4007BFF7A06793812104C902001E07BFFB4FA
:102B0400FF0C7A067969E0F54C12104C800F7A06B6
:102B1400798B902001E0F54C12104C050B7BFF7A69
:102B240002796812104C12349E900213EFF0BF0A1F
:102B3400F590C00074FFF0FB7A0679B512104C9042
:102B44002001E07BFF700C7A067969E0F54C1210E5
:102B54004C800F7A06798B902001E0F54C12104CD2
:102B6400050B7BFF7A02796812104C12349E900296
:102B740013EFF0BF0AF590020A7401F0E490021416
:102B8400F090C00074FFF090020AE0F4FF90C000DF
:102B9400F07BFF7A0679E7900214E0FEC374139E7B
:102BA400F54C8F4DEE2402F54E12104C90020AE0C3
:102BB400FF902001E07BFFB5070C7A067969E0F508
:102BC4004C12104C800F7A06798B902001E0F54C62
:102BD40012104C050B90020AE0FF25E0F07BFF7A0F
:102BE40002796812104C12349E900213EFF0BF0A5F
:102BF400F5900214E004F0E0C394084084E50B600F
:072C0400037F01227F002283
:102EF400E4F50C7BFF7A07792B12104CD293C29421
:102F0400C295C296D2977BFF7A07794112104C1270
:102F14003448EF6002050CC293D2947BFF7A0779A0
:102F24006012104C123448EF6002050CC294D29522
:102F34007BFF7A07797F12104C123448EF60020548
:102F44000CC295D2967BFF7A07799E12104C1234EC
:102F540048EF6002050CC29690E0007401F07BFF1C
:102F64007A0779BD12104C123448EF6002050CE464
:102F740090E000F0D2977BFF7A0779DC12104CC204
:102F840097123448EF6002050CE50C60037F0122C0
:032F94007F002299
:1031EE00E4900202F090C00074FFF0E4F51F051F9A
:1031FE00E51FB4C8F9E490E000F0C293C294C29502
:10320E00C296C29790400174FFF0E4A3F0902000A4
:10321E0074FEF07BFF7A00798A12104C7BFF7A07DE
:09322E0079FB12104C1234482205
:10328000E4900208F090C000F090E00004F0D293C7
:10329000D294D295D296C297E4904001F0A374FFE5
:1032A000F0E4902000F07BFF7A00798A12104C7BCA
:0C32B000FF7A08793812104C12344822C2
:103448007BFF7A08796112104C12349E1234AFEF68
:1034580064316003BF30E9BF30037F01227F00225F
:1029B4007BFF7A08797012104CE4900209F07BFFD7
:1029C4007A00798A12104C123427123468E4900287
:1029D40008F0900202F090020EF090020DF09002C6
:1029E4000FF0900204F0900203F01232809002087B
:1029F400EFF01231EE900202EFF012319890020ED5
:102A0400EFF0121FEB90020DEFF012222790020F4D
:102A1400EFF0122AE4900204EFF0122EF490020375
:102A2400EFF07BFF7A00798A12104C900208E07074
:102A340028900202E0702290020DE0701CA3E07066
:102A440018A3E07014900204E0700E900203E0708A
:102A5400087BFF7A08798F806F7BFF7A08799D1253
:102A6400104C900208E060097BFF7A0879AF1210DD
:102A74004C900202E060097BFF7A0879C012104C86
:102A840090020DE060097BFF7A0879D112104C9016
:102A9400020EE060097BFF7A0879E212104C900282
:102AA4000FE060097BFF7A0879F312104C9002045E
:102AB400E060097BFF7A09790412104C900203E06C
:102AC40060097BFF7A09791512104C7BFF7A09792A
:102AD4002612104C12349E900213EFF0BF0AF52216
:102D31000A0A526573657420756172740A00636FC3
:102D41006E6620756172742055323720402530340B
:102D5100580A0031202D2075617274205532372DAB
:102D61003E2530326258480A0032202D20756172AA
:102D710074205532372D3E2530326258480A0033CF
:102D8100202D2075617274205532372D3E25303249
:102D910062580A00636F6E66207561727420553344
:102DA10030200A000A5269636576757469202562CC
:102DB100642062797465203A2000253032625848D7
:102DC10020000A000A54583A2030782530326278BF
:102DD1004820000A5072656D65726520756E207419
:102DE1006173746F206520766572696669636172CB
:102DF100652063686520636F72726973706F6E64BA
:102E0100612061207175656C6C6F207269636576F4
:102E110075746F20287120706572207573636972F3
:102E210065290A000A54583A256328253032627808
:102E3100482920200A000A5258202825626420626D
:0E2E4100797465293A0025203032627820002D
:0E32E500011800011900011B0042000000004A
:030003000232F4D2
:1032F400C0E0C083C082C0D075D000C006C007C281
:10330400AF908000E0FFAE19051974022EF582E437
:103314003400F583EFF0D2AFD007D006D0D0D082FE
:05332400D083D0E0326F
:0300130002335A5B
:10335A00C0E0C083C082C0D075D000C007C2AF90A1
:10336A006000E0FF7402251BF582E43401F583EF67
:10337A00F0051BD2AFD007D0D0D082D083D0E032B4
:10348700D297E4F51F051FE51FB464F9C2977BFFC8
:073497007A2D793102104C7F
:103237001234877E607F00754C60754D007BFF7A86
:103247002D793F12104C906001744EF07BFF7A2D60
:103257007954E0F54C12104C9060017437F07BFF05
:103267007A2D796AE0F54C12104C7BFF7A2D798024
:09327700906000E0F54C02104CDF
:103403008F6E1234877BFF7A2D799512104CE56EFF
:10341300B402047F0180027F00EF444E908001F0EC
:043423007435F022EA
:10145900123237E4F51B9060017437F0E4F51F058B
:101469001FE51FB4C8F9E4F51F051FE51FB4C8F946
:10147900E4F51F051FE51FB4C8F9E4F51F051FE5CD
:101489001FB4C8F9E4F51F051FE51FB4C8F9E4F551
:101499001F051FE51FB4C8F9E4F51F051FE51FB4B3
:1014A900C8F9E4F51F051FE51FB4C8F9E4F51F05E0
:1014B9001FE51FB4C8F9E4F51F051FE51FB4C8F9F6
:1014C900E4F51F051FE51FB4C8F9E4F51F051FE57D
:1014D9001FB4C8F9E4F51F051FE51FB4C8F9E4F501
:1014E9001F051FE51FB4C8F9E4F51F051FE51FB463
:1014F900C8F9E4F51F051FE51FB4C8F9E4F51F0590
:101509001FE51FB4C8F9E4F51F051FE51FB4C8F9A5
:10151900E4F51F051FE51FB4C8F9E4F51F051FE52C
:101529001FB4C8F9E4F51F051FE51FB4C8F9E4F5B0
:101539001F051FE51FB4C8F9E4F51F051FE51FB412
:10154900C8F9E4F51F051FE51FB4C8F9E4F51F053F
:101559001FE51FB4C8F9E4F51F051FE51FB4C8F955
:10156900E4F51F051FE51FB4C8F9E4F51F051FE5DC
:101579001FB4C8F9E4F51F051FE51FB4C8F9E4F560
:101589001F051FE51FB4C8F9E4F51F051FE51FB4C2
:10159900C8F9E4F51F051FE51FB4C8F9E4F51F05EF
:1015A9001FE51FB4C8F9E4F51F051FE51FB4C8F905
:1015B900E4F51F051FE51FB4C8F9E4F51F051FE58C
:1015C9001FB4C8F9E4F51F051FE51FB4C8F9E4F510
:1015D9001F051FE51FB4C8F9E4F51F051FE51FB472
:1015E900C8F9E4F51F051FE51FB4C8F9E4F51F059F
:1015F9001FE51FB4C8F99060007455F0E4F51F05A4
:101609001FE51FB4C8F9E4F51F051FE51FB4C8F9A4
:10161900E4F51F051FE51FB4C8F9E4F51F051FE52B
:101629001FB4C8F9E4F51F051FE51FB4C8F9E4F5AF
:101639001F051FE51FB4C8F9E4F51F051FE51FB411
:10164900C8F9E4F51F051FE51FB4C8F9E4F51F053E
:101659001FE51FB4C8F9E4F51F051FE51FB4C8F954
:10166900E4F51F051FE51FB4C8F9E4F51F051FE5DB
:101679001FB4C8F9E4F51F051FE51FB4C8F9E4F55F
:101689001F051FE51FB4C8F9E4F51F051FE51FB4C1
:10169900C8F9E4F51F051FE51FB4C8F9E4F51F05EE
:1016A9001FE51FB4C8F9E4F51F051FE51FB4C8F904
:1016B900E4F51F051FE51FB4C8F9E4F51F051FE58B
:1016C9001FB4C8F9E4F51F051FE51FB4C8F9E4F50F
:1016D9001F051FE51FB4C8F9E4F51F051FE51FB471
:1016E900C8F9E4F51F051FE51FB4C8F9E4F51F059E
:1016F9001FE51FB4C8F9E4F51F051FE51FB4C8F9B4
:10170900E4F51F051FE51FB4C8F9E4F51F051FE53A
:101719001FB4C8F9E4F51F051FE51FB4C8F9E4F5BE
:101729001F051FE51FB4C8F9E4F51F051FE51FB420
:10173900C8F9E4F51F051FE51FB4C8F9E4F51F054D
:101749001FE51FB4C8F9E4F51F051FE51FB4C8F963
:10175900E4F51F051FE51FB4C8F9E4F51F051FE5EA
:101769001FB4C8F9E4F51F051FE51FB4C8F9E4F56E
:101779001F051FE51FB4C8F9E4F51F051FE51FB4D0
:10178900C8F9E4F51FE51FC394C8400302146505B1
:031799001F80F2BC
:10313600123237E4F51F051FE51FB4C8F9E4F51B85
:103146009060017435F0E4F51F051FE51FB4C8F95A
:10315600E51B60FC7BFF7A2D79A5F54C12104CE43B
:10316600F51CE51CC3951B501B7BFF7A2D79BB74A0
:1031760002251CF582E43401F583E0F54C12104C6F
:10318600051C80DE7BFF7A2D79C312104CE4F51BFB
:0231960080BEF9
:10270F00123237E4F51F051FE51FB4C8F9906001B9
:10271F007437F0E4F51F051FE51FB4C8F9E4F51F82
:10272F00051FE51FB4C8F9E4F51F051FE51FB4C861
:10273F00F9E4F51F051FE51FB4C8F9E4F51F051FE0
:10274F00E51FB4C8F9E4F51F051FE51FB4C8F9E488
:10275F00F51F051FE51FB4C8F9E4F51F051FE51F99
:10276F00B4C8F9E4F51F051FE51FB4C8F9E4F51F58
:10277F00051FE51FB4C8F9E4F51F051FE51FB4C811
:10278F00F9E4F51F051FE51FB4C8F9E4F51F051F90
:10279F00E51FB4C8F9E4F51F051FE51FB4C8F9908C
:1027AF0060007455F07BFF7A2D79C5F54C12104CF3
:1027BF00E4F51F051FE51FB4C8F9E4F51F051FE574
:1027CF001FB4C8F9E4F51F051FE51FB4C8F9E4F5F8
:1027DF001F051FE51FB4C8F9E4F51F051FE51FB45A
:1027EF00C8F9E4F51F051FE51FB4C8F9E4F51F0587
:1027FF001FE51FB4C8F9E4F51F051FE51FB4C8F99D
:10280F00E4F51F051FE51FB4C8F9E4F51F051FE523
:10281F001FB4C8F9E4F51F051FE51FB4C8F9E4F5A7
:10282F001F051FE51FB4C8F9E4F51F051FE51FB409
:10283F00C8F9E4F51F051FE51FB4C8F9E4F51F0536
:10284F001FE51FB4C8F9E4F51FE51FC394C8400383
:07285F000227AE051F80F205
:1030BA008F68E4F5697BFF7A2D79D412104CAF68DA
:1030CA00123403805912349E8F1A1234AF8F6AEF6A
:1030DA006451604F309013908000E51AF07BFF7ABC
:1030EA002E7925F54CF54D12104CE51960D77BFF6A
:1030FA007A2E7937F54C12104CE4F569E569C395D7
:10310A0019501B7BFF7A2E794774022569F582E4F0
:10311A003400F583E0F54C12104C056980DEE4F5C5
:0C312A001980A27BFF7A2D79C302104CA3
:10094800EC4D6011E8497017ED33EC3304600DE4A9
:10095800FCFFFEFD22E933E8330470F8020AC112F5
:100968000A8C58046009E4CC2481500628500902F6
:100978000ACB284003020AC8C0E0EB4A7044B98099
:1009880006D0E0FB020AB7EF4E701CBD8008EBFFF3
:10099800EAFEE9FD80EBE98DF0A4FEE5F0020A31FC
:1009A800E9CDF9EAFEEBFFEF89F0A4FCE5F0CE898A
:1009B800F0A42EFFE435F0CD89F0A42DFEE435F047
:1009C8008067EF4E7005BD80D780C3EF8BF0A4AC75
:1009D800F0EE8BF0A42CFCE435F0F8EF8AF0A42CB0
:1009E800E5F038FCE433CB8DF0A42CFCE5F03BF8C3
:1009F800EE8AF0A42CFCE5F038F8E433CF89F0A4B3
:100A08002CFCE5F038CF3400CE89F0A42FFFE5F0B8
:100A18003EFEE433C98DF0A42EFEE5F039CD8AF010
:100A2800A42FFFE5F03EFEE43DFD33D0E0FB500788
:100A38000BBB000F020ACBEC2CFCEF33FFEE33FEAE
:060A4800ED33FD020AA3DC
:100A4E0075F020800E75F010800575F0087D007E23
:100A5E00007F003392D530D503120EBDEC3340101B
:100A6E00EF33FFEE33FEED33FDEC33FCD5F0ED222C
:0E0A7E00E5F0247EA2D513CC92E7CDCEFF2268
:100FEA00E560244CF8E60560227849300702784C1F
:100FFA00E475F001120ECB020E102000EB7F2ED208
:10100A00008018EF540F2490D43440D4FF30040BDE
:10101A00EF24BFB41A0050032461FFE56160021592
:10102A00610564E5647002056330070D7849E4756B
:10103A00F001120ECBEF020E560233DC7403D20714
:10104A008003E4C207F5608B498A4A894BE4F5615B
:10105A00F563F564E56160077F2012102580F57558
:10106A0062FFC201C200C202C203C205C206C208AE
:10107A00120FF3FF700D3007057F00121036AF64B0
:10108A00AE6322B4255FC2D5C204120FF3FF24D087
:10109A00B40A00501A75F00A786130D50508B6FF0F
:1010AA000106C6A426F620D5047002D20380D924EC
:1010BA00CFB41A00EF5004C2E5D204021323D201BE
:1010CA0080C6D20080C0D20280BCD2D580BAD205F6
:1010DA0080B47F201210252002077401B5610040F8
:1010EA00F1120FEAFF12102502105ED208D2068012
:1010FA0095120FEAFB120FEAFA120FEAF94A4B703D
:10110A0006791A7A147BFF20022EE561602A7E0096
:10111A008E82758300120E2960060EEE656270F0EB
:10112A00C2D5EBC0E0EAC0E0E9C0E0EE121383D01A
:10113A00E0F9D0E0FAD0E0FB120E10FF60AAEBC093
:10114A00E0EAC0E0E9C0E0121025D0E02401F9D0BD
:10115A00E03400FAD0E0FBE5620460DCD562D980B5
:10116A0087D20280A212136660F7E5627001041248
:10117A000AD6A962600DE562600914F56212140DBF
:10118A00EF60F3EA30E702F404C3995077EAF425F2
:10119A00620430E701E404F562800D12136660C14F
:1011AA00EA05622562120AD6EA785FF630E701E4B8
:1011BA00256204D5620420050114121383E4C0E0F9
:1011CA0012140D785FE6601320E70714F612100D6B
:1011DA00802204F6D0E014C0E07F0012100DE56210
:1011EA0060071210041562800B300503121004D038
:1011FA00E002105ED0E00480C512136660A0E562CA
:10120A0004120AD6785FEAF6E56220050260010454
:05121A002404121383FF
:10121F0074FF04C0E012140D12100DE562200502D8
:10122F006003121004D0E0B562E87F451210177802
:10123F005FE67F2B30E7047F2DF404C0E01210250A
:10124F00D0E075F00A84C0F012100ED0E012100E2C
:10125F0002105E791080027908C206C2088008D297
:10126F00D5790A8004790AC2D5E562047002F56265
:10127F00E4FAFDFEFF120FEAFC7B08200113120FA8
:10128F00EAFD7B1030000A120FEAFE120FEAFF7B15
:10129F0020EC3382D592D55013C3E43000069FFF64
:1012AF00E49EFEE42001039DFDE49CFCE4CBF8C228
:1012BF0001EC700CCFCECDCCE824F8F870F380178A
:1012CF00C3EF33FFEE33FEED33FDEC33FCEB33FBBB
:1012DF00994002FB0FD8E9EB300105F8D0E0C44884
:1012EF00B201C0E00AEC4D4E4F78207B0070C2EA8D
:1012FF00B5620040BCC0E0121385D0F0D0E02001F1
:10130F0004C4C0E0C4B201C0F012100ED0F0D5F08A
:10131F00EB02105E120EDB10FB5312625810CC4C16
:10132F0010C84212664F126E44126E4910E14312FA
:10133F00745511A546120345116F47143A5010D03A
:10134F002D10D42E10F72B10D82310F52014232A8C
:10135F00109048000010EFE562B4FF0375620612AB
:10136F000FEAFC120FEAFD120FEAFE120FEAFF78E6
:10137F0058020B05790AA2D5200314300509B910BC
:10138F00020404B9080104A2D5200602500104206A
:10139F0002689202B561005034C0E07F203003191B
:1013AF007F30A20272067205500F1213DCC202C206
:1013BF0006C205C2087F30800F300503E9C0E01276
:1013CF001025300503D0E0F9D0E0B561CC3005171A
:1013DF007F30B9100C1210257F583004077F7880AA
:1013EF0003B908031210253002057F2D0210257F47
:1013FF00202008F87F2B2006F322920280CF7F0057
:10140F00B4070050052458F8E6FF22286E756C6C5F
:10141F002900D201120FEA3001F8C201786130D5EC
:10142F000108F60210902D50434958120FEA240379
:10143F00B405004001E490143593121016743A125B
:0A144F001016D20375610402126248
:100A8C00E9D2E7C933E833F892D5EDD2E7CD33ECB0
:070A9C0033FC5002B2D52229
:100AA300EC30E7100FBF000C0EBE00080DBD0004B4
:100AB3000BEB6014A2D5EB13FCED92E7FD2274FF60
:100AC300FCFDFEFF22E480F8A2D574FF13FC7D80B9
:030AD300E480EFCD
:100AD600F920E72824F950037907E4F42402FB18E7
:100AE600DBFDE624FB5014E9600DE4F618E604F697
:0F0AF600B40A08E4F6D9F57401F60A22C2D52233
:100B0500ED33EC3392D5FA602AB4FF33EDC2E77BBF
:100B1500FF60067A0B792AE4227A0B793320D50413
:100B25007A0B792E224E614E002B494E46002D49F7
:100B35004E4600E47A08F608DAFC7B00740722E8E2
:100B4500C0E0ECC0E0EDC0E0EEC0E0EFC0E0EA756B
:100B5500F010A4CAABF075F04DA42BFBE435F0FC06
:100B6500EA2410FAEB34C5FBEC34D9FCEDC2E7FFFF
:100B750075F056A4F42411C5F0F434C58FF0A42AF9
:100B8500E5F03BE43CF620E714120DD0D0E0FFD0B1
:100B9500E0FED0E0FDD0E0FC120D038014F4041259
:100BA5000DD0D0E0FFD0E0FED0E0FDD0E0FC120992
:100BB50048D0E0F8E6FAEDD2E7CD33EC332482FBFA
:100BC500E4C3CF33CFCE33CECD33CD33DBF37B0789
:100BD50075F00A846004F6081B0AE5F0F6088FF044
:100BE500740AA4FFACF08EF0740AA42CFEACF0508D
:100BF500010C8DF0740AA42CFDE435F0F608DBDE5B
:030C05007407224F
:100C0800020AC1E86480F8E933E83360110460F04F
:100C1800ED33EC337009E8FCE9FDEAFEEBFF220452
:100C280060DED3EB9FEA9EE99DE8C2E78CF0C2F74D
:100C380095F0400CE8CCF8E9CDF9EACEFAEBCFFB19
:100C4800120A8C85D0F05804700320D5B3E80470DC
:100C5800075002B2D5020ACB92D5EC0460F7E4CC77
:100C6800C0E0C398F8603B94186008400DD0E0FBE2
:100C7800020AA3E4FBFAC9FC8028E830E406E4C9C8
:100C8800FBE4CAFCE830E305E4C9CACBFCE8540736
:100C98006010F8C3E913F9EA13FAEB13FBEC13FC41
:100CA800D8F130F52FC3E49CFCEF9BFFEE9AFEEDE4
:100CB80099FDD0E0FBEF4E4D4C701222DB03020A87
:100CC800C8EC2CFCEF33FFEE33FEED33FDED30E7DF
:100CD800EB020AA3EF2BFFEE3AFEED39FDD0E0FB65
:100CE80050130BBB0003020ACBED13FDEE13FEEF0E
:080CF80013FFEC13FC020AA338
:100D0000020ACBEC5D046005E859047003020AC1D5
:100D1000120A8C580460F6EC4860F2EC7004FDFE98
:100D2000FF22C860DB2481C85009C39860025006C6
:100D3000020AC89850CAF582E9294B4A7005AB826D
:100D4000020AB775F0007C1A7880C3EF9BEE9AED2B
:100D500099400DC3EF9BFFEE9AFEED99FDE842F03E
:100D6000DC23ACF0D0E0FFD0E0FED0E0FDAB822091
:100D7000E7101BEB60BAEC2CFCEF33FFEE33FEED1B
:100D800033FD020AA3E803F830E705C0F075F00070
:100D9000EF2FFFEE33FEED33FD40B830E7C280AAFF
:100DA0003F8000004120000042C80000447A00005B
:100DB000461C400047C35000497424004B189680DD
:100DC0004CBEBC205A0E1BCA6753C21C749DC5AED4
:100DD000FB60065407601C2323120DFEEB543860A1
:100DE00009120DEA120DF9120948ECF8EDF9EEFAC4
:100DF000EFCB22EB120DF980F1543803241C900D37
:100E0000A0FE93FC0EEE93FD0EEE930ECE93FF220A
:0300000002302E9D
:0C302E00787FE4F6D8FD758171023075E2
:100E1000BB010689828A83E0225002E722BBFE02E0
:090E2000E32289828A83E4932213
:100E2900BB010CE58229F582E5833AF583E022507E
:100E390006E92582F8E622BBFE06E92582F8E222C8
:0D0E4900E58229F582E5833AF583E49322E2
:100E5600BB010689828A83F0225002F722BBFE017B
:020E6600F32275
:100E6800BC000BBE0029EF8DF084FFADF022E4CC6E
:100E7800F875F008EF2FFFEE33FEEC33FCEE9DEC37
:100E8800984005FCEE9DFE0FD5F0E9E4CEFD22ED7D
:100E9800F8F5F0EE8420D21CFEADF075F008EF2FC7
:100EA800FFED33FD4007985006D5F0F222C398FDB8
:050EB8000FD5F0EA2255
:0E0EBD00C3E49FFFE49EFEE49DFDE49CFC2246
:100ECB00FAE6FB0808E6F925F0F618E6CA3AF62228
:100EDB00D083D082F8E4937012740193700DA3A3A6
:100EEB0093F8740193F5828883E4737402936860BA
:060EFB00EFA3A3A380DFBA
:1033DC00EFB40A07740D1233E7740A309811A899E8
:1033EC00B8130CC2983098FDA899C298B811F63051
:0733FC0099FDC299F5992229
:0A34CC003098FDAF99C2987E0022EF
:10349E0010090B1234CCBF0D027F0A0233DCAF6F62
:0134AE0022FB
:1034AF00EFC39461400AEF947B5005EF24E0FF22B5
:0134BF0022EA
:0C34C000EE30E707C3E49FFFE49EFE220D
:100F0100E709F60870FA8046E709F20870FA803EB0
:100F110088828C83E709F0A370FA807EE309F608E2
:100F210070FA8076E309F20870FA806E88828C8309
:100F3100E309F0A370FA806289828A83E0A3F6084C
:100F410070FA805689828A83E0A3F20870FA804A97
:100F510080D280FA80C680D4806580F28031801092
:100F610080A680EA809A80A880DA80E280CA8031F7
:100F710089828A83ECFAE493A3C8C582C8CCC5836D
:100F8100CCF0A3C8C582C8CCC583CC70E9800D89DB
:100F9100828A83E493A3F60870F9ECFAA9F0EDFBD9
:100FA1002289828A83ECFAE0A3C8C582C8CCC583B2
:100FB100CCF0A3C8C582C8CCC583CC70EA80DD89DA
:100FC100828A83E493A3F20870F980CE88F0ED243D
:100FD10002B4040050C4F582EB2402B4040050BAF8
:090FE1002323458223900F517374
:10303A00023329E493A3F8E493A34003F68001F250
:10304A0008DFF48029E493A3F85407240CC8C33397
:10305A00C4540F4420C8834004F456800146F6DF66
:10306A00E4800B01020408102040809032BCE47E08
:10307A00019360BCA3FF543F30E509541FFEE4935B
:10308A00A360010ECF54C025E060A840B8E493A322
:10309A00FAE493A3F8E493A3C8C582C8CAC583CA4D
:1030AA00F0A3C8C582C8CAC583CADFE9DEE780BE05
:0132F30000DA
:00000001FF
