:102563000A0A002A2A2A2A2A2A2A2A2A2A2A2A2A32
:102573002A2A2A2A2A2A2A2A2A2A2A2A2A2A2A2AB8
:102583002A2A2A2A2A2A0A002A202020436F6C6C2E
:102593006175646F207363686564612043505520DF
:1025A300524556494E44202020202A0A002A202042
:1025B300207377207665722E207465737472657745
:1025C30020312E3020202020202020202020202ACF
:1025D3000A00092031202D20746573742052414D67
:1025E3000A00092032202D2074657374204144436E
:1025F3000A00092033202D207465737420492F4F5E
:102603002050726F67720A00092034202D207465F0
:10261300737420554152545F5532370A00092035EF
:10262300202D207465737420554152545F55333007
:102633002044473633302D32392870726573636115
:102643006C657220783136290A00092036202D2046
:102653007465737420554152545F55333020444799
:102663003633302D3132287072657363616C657255
:1026730020783634290A0A000A0A20202020205311
:1026830063656C746120746573743A20000A204595
:1026930043484F207375205532372061747469762F
:0426A3006F200A009A
:043054000270000006
:03000B000230F2CE
:1030F200C0E0C0D075D000C000C28CC2AFA2B5B3D0
:1031020092B5787106E618700106758C4B758AFFC8
:0B311200D28CD2AFD000D0D0D0E03281
:08323E007870E6FE08E6FF22AD
:10311D00759852758921758DFD858D8B758C4B75C7
:10312D008AFF75B802D288D28A75A887D2A9D28CA7
:07313D00D28ED299C2B42228
:102CF5007BFF7A25796312104C7BFF7A2579661262
:102D0500104C7BFF7A25798B12104C7BFF7A257945
:102D1500B012104C7BFF7A25796612104C7BFF7A36
:102D250025796312104C7BFF7A2579D512104C7BDF
:102D3500FF7A2579E512104C7BFF7A2579F512107B
:102D45004C7BFF7A26790B12104C7BFF7A26792073
:102D550012104C7BFF7A26794D12104C7BFF7A2698
:102D6500797B12104C123234EF24D0F51DD36480D8
:102D75009480400DE51D648094875005756B018036
:0B2D850003E4F56BE56B7003022CF516
:012D90002220
:1030C10012311DC2B5E4F51F051FE51FB4C8F9E4AF
:1030D100F51F051FE51FB4C8F9E4F51F051FE51F1E
:1030E100B4C8F97BFF7A26799012104C1228FE8021
:0130F100FBE3
:102415000A546573742052414D2045535445524E1C
:10242500412028307830303030202E2E2030783141
:10243500464646290A0A0057726974652070617418
:102445007465726E2030784141353520200A004090
:1024550025303458200D000A566572696679206169
:1024650074200A0025303458200D007465737420DB
:1024750052414D204B4F2025303458204020726565
:10248500616420253034780A000A57726974652022
:102495007061747465726E20307835354141206104
:1024A50074200A00746573742052414D204B4F20EF
:1024B500256C582040207265616420253034780AE7
:1024C500000A5465737420312D7368696674696EEA
:1024D50067206F6E2041302E2E413132200A0025B3
:1024E5003034582028307830303030292000202EE4
:1024F5002E6F6B0A002E2E4B4F20256C780A002577
:10250500303458202028412562642920002E2E4B86
:102515004F2025750A00546573742052414D204F94
:102525004B0A00546573742052414D204B4F206572
:1025350072726F7220202562640A005072656D65A3
:10254500726520756E20746173746F2070657220DA
:0E25550070726F736567756972652E0D0A00EE
:093058000116000117000115002A
:101A1B007BFF7A24791512104C7BFF7A24793C12C8
:101A2B00104CE4F515F513F514AE13AF14C3EF9486
:101A3B00FFEE941F502D8E0E8F0F7BFF7A2479545F
:101A4B00850E4C850F4D12104C85148285138374B3
:101A5B00AAF0A37455F074022514F514E43513F5AC
:101A6B001380C67BFF7A24795C12104CE4F513F5D6
:101A7B0014AE13AF14C3EF94FFEE941F504F8E0EA2
:101A8B008F0F7BFF7A247969850E4C850F4D1210D1
:101A9B004C851482851383E0FEA3E0FF645570032D
:101AAB00EE64AA601B754C0185134D85144E8E4F49
:101ABB008F507BFF7A24797012104C751501800DB5
:101ACB0074022514F514E43513F51380A47BFF7A07
:101ADB0024798E12104CE4F513F514AE13AF14C326
:101AEB00EF94FFEE941F502D8E0E8F0F7BFF7A24F9
:101AFB007969850E4C850F4D12104C851482851318
:101B0B00837455F0A374AAF074022514F514E4350C
:101B1B0013F51380C67BFF7A24795C12104CE4F525
:101B2B0013F514AE13AF14C3EF94FFEE941F504F85
:101B3B008E0E8F0F7BFF7A247969850E4C850F4DA6
:101B4B0012104C851482851383E0FEA3E0FF64AA78
:101B5B007003EE6455601B754C0185134D85144E57
:101B6B008E4F8F507BFF7A2479A912104C7515027A
:101B7B00800D74022514F514E43513F51380A47B42
:101B8B00FF7A2479C612104CE4F513F514851482F0
:101B9B0085138374AAF0A37455F07BFF7A2479E440
:101BAB0085134C85144D12104C851482851383E0DC
:101BBB00FEA3E0FFBEAA0EBF550B7BFF7A2479F381
:101BCB0012104C80197BFF7A2479FA8514828513C5
:101BDB0083E0F54CA3E0F54D12104C751503E4F5BD
:101BEB00160516E516B4FFF9E4F517F51375140190
:101BFB00F510751101C3E51094205079AE13AF1495
:101C0B008E0E8F0F7BFF7A2579048E4C8F4DAF177D
:101C1B0005178F4E12104C85148285138374AAF00E
:101C2B00A37455F0E4F5160516E516B4FFF9851403
:101C3B0082851383E0FEA3E0FFBEAA0EBF550B7B8C
:101C4B00FF7A2479F312104C80197BFF7A257912D5
:101C5B00851482851383E0F54CA3E0F54D12104CEF
:101C6B00751503E51125E0F511E51033F510F513A6
:101C7B008511148080E5157BFF70067A25791B8012
:101C8B00077A25792885154C12104C7BFF7A25791C
:0C1C9B004012104C1232068F12BF0AF8E3
:011CA700221A
:1014590063683A202562642020200073616D706CF6
:1014690065206EB020256264202020006C657474AC
:101479007572613A203078256258202825312E323C
:101489006620566F6C7429200A0063683A20256229
:101499006420206C65747475726120307825582039
:1014A90020202825312E326620566F6C74290A00B7
:1014B9004F4B004B4F00457369746F20746573740B
:1014C90020636820494E256264203D20307825300C
:1014D90032582020206C6574747572613A20253168
:1014E9002E326656202056616C2061747465736FC4
:1014F9003A2025312E326656202020200065736956
:10150900746F3A2025730A000A0A2A2A2A2A2A20ED
:1015190020546573742041444320202A2A2A2A2A08
:101529002020200A0A0053656C657A696F6E617222
:101539006520696C207469706F2064692073636821
:10154900656461203A0A0020202031202D2044477B
:101559003633302D31320A0020202032202D20440C
:10156900473633302D32390A0A00202020202053F3
:1015790063656C74613A20000A000A506F73697AD6
:10158900696F6E617265206C6F2073776974636827
:1015990020616C2063656E74726F206520766572B8
:1015A90069666963617265206368652069206C6595
:1015B900642053312065205332207369616E6F2096
:1015C9007370656E74690A005072656D6572652085
:1015D900494E56494F207065722070726F73656766
:1015E90075697265200A000A546573742063616E17
:1015F900616C6520494E300A000A54657374206392
:10160900616E616C6520494E310A000A5465737434
:101619002063616E616C6520494E320A000A546587
:10162900737420494E2562640A00506F73697A69A0
:101639006F6E617265206C6F2073776974636820BF
:101649007375204E4F49534531206520766572697F
:1016590066696361726520636B6520696C206C65DE
:1016690064205331207369612061636365736F205E
:10167900287465737420494E256264290A00506FE5
:1016890073697A696F6E617265206C6F207377690F
:10169900746368207375204E4F495345312028746F
:1016A90065737420494E256264290A00506F736975
:1016B9007A696F6E617265206C6F207377697463E4
:1016C90068207375204E4F49534532206520766551
:1016D900726966696361726520636B6520696C2054
:1016E9006C6564205332207369612061636365739B
:1016F9006F20287465737420494E256264290A0095
:1017090052696570696C6F676F20746573742041E5
:1017190044430A005465737420494E256264203D90
:10172900203078253032582020206C657474757209
:10173900613A2025312E326656202056616C20618F
:10174900747465736F3A2025312E32665620202035
:0517590020000A0A0057
:10306100082DB05B598E84B5000001460001470070
:042290008F658D6663
:10229400EF25E02436F8E4F608F6F567752801E43E
:1022A4002565FFE434A0F5298F2A8F82F583747F96
:1022B400F03092FD852A82852983E0F5487BFF7AF8
:1022C40014795985654C12104C7BFF7A1479648516
:1022D400284C12104C852A82852983E0FCF54CE4B5
:1022E400120A587B2E7A9079A0783C1209488F50B4
:1022F4008E4F8D4E8C4D7BFF7A14797512104C8560
:102304002A82852983E0FFE56525E02436F808EF75
:1023140026F618E436F60528E528D3940A4080E525
:102324006525E02436F8C000E6FE08E6FF7C007D63
:102334000A120E68D000A60608A60785654CE56556
:1023440025E02436F8E6FC08E6FD8C4DF54EE41253
:102354000A537B2E7A9079A0783C1209488F528ECA
:10236400518D508C4F7BFF7A14799312104CE56594
:1023740025E02436F8E6FC08E6C39566FFEC9400F5
:10238400FE123228D3EF940DEE6480948078257C7D
:10239400007D007BFF500C7A1479B9120FCDE4F55F
:1023A40067800A7A1479BC120FCD75670185654C74
:1023B400E56525E02436F8E6FC08E6FD8C4DF54E8F
:1023C400E4120A537B2E7A9079A0783C1209488F44
:1023D400528E518D508C4FE566FD7C00E4120A53F9
:1023E4007B2E7A9079A0783C1209488F568E558DB1
:1023F400548C537BFF7A1479BF12104C754C0075C2
:102404004D00754E257BFF7A15790612104CAF6787
:0124140022A5
:10175E00E4F546E54625E02416F582E43402F583E9
:10176E00E4F0A3F00546E546B408E87BFF7A157968
:10177E001112104C7BFF7A15792F12104C7BFF7AC9
:10178E0015795012104C7BFF7A15796112104C7B33
:10179E00FF7A15797312104C1232348F227BFF7A36
:1017AE0015798112104CE4F523E52224D0F524D3CB
:1017BE0094004016E52494035010E524B40105E48A
:1017CE00F53280037532B5752301E52360A67BFFE4
:1017DE007A15798312104C7BFF7A1579D112104C41
:1017EE001232068F35BF0AF87BFF7A1579F0121088
:1017FE004CE4FDFF1222907E00900216EEF0A3EF55
:10180E00F0600AE025E0F0900216E033F07BFF7AFC
:10181E001579D112104C1232068F35BF0AF87BFFA4
:10182E007A16790212104CE4FD7F011222907E008E
:10183E00900218EEF0A3EFF0600AE025E0F09002BF
:10184E0018E033F07BFF7A1579D112104C12320664
:10185E008F35BF0AF87BFF7A16791412104CE4FD0F
:10186E007F021222907E0090021AEEF0A3EFF0603B
:10187E000AE025E0F090021AE033F07BFF7A15794A
:10188E00D112104C1232068F35BF0AF8E4F5467BA2
:10189E00FF7A16792685464C12104CE546700B7B66
:1018AE00FF7A16793385464C801CE546B4010A7BD7
:1018BE00FF7A167987F54C800DE546B4020B7BFF57
:1018CE007A1679B5F54C12104C7BFF7A1579D11238
:1018DE00104C1232068F35BF0AF8E54625E0241665
:1018EE00F582E43402F583C083C082E0FEA3E0FFFC
:1018FE00C007C006742D2546F8E6FDAF46122290AD
:10190E00EFFDD0E0FFD0E04DD082D083CFF0A3EF3B
:10191E00F07BFF7A1579D112104C1232068F35BF3B
:10192E000AF80546E546C39408500302189D7BFF4E
:10193E007A17790912104CE4F546742D2546F8E60F
:10194E00FFE54625E02436F8E6FC08E6C39FFFECEB
:10195E009400FE123228D3EF940DEE6480948050E2
:10196E0020E54625E02416F582E43402F583A3E053
:10197E0020E10E78257C007D007BFF7A1479B980FA
:10198E000C78257C007D007BFF7A1479BC120FCD7C
:10199E0085464CE54625E02436F8E6FC08E6FD8C47
:1019AE004DF54EE4120A537B2E7A9079A0783C12B4
:1019BE0009488F528E518D508C4F742D2546F8E666
:1019CE00FD7C00E4120A537B2E7A9079A0783C12AB
:1019DE0009488F568E558D548C537BFF7A17791D7F
:1019EE0012104C754C00754D00754E257BFF7A1507
:1019FE00790612104C0546E546C3940850030219A9
:0D1A0E00481232067BFF7A17795B02104CFC
:1000160052657365742050494F0A00434F4E46207F
:1000260050494F205532362000434F4E4620504906
:100036004F2055323920000A0A002A2A2A2A2A2A5B
:100046002A2A2A2A2A2A2A2A2A2A2A2A2A2A2A2A0A
:100056002A2A2A2A2A2A2A2A2A2A2A2A2A0A002A44
:100066002020207363656C7461207465737420505E
:10007600494F202020202020202020202020202022
:10008600202A0A000A00092031202D20636F6D61A5
:100096006E646F2072657365740A00092032202D24
:1000A60020636F6E6669677572617A696F6E652027
:1000B60072656769737472690A00092033202D20FE
:1000C6007465737420492F4F20636F6D706C65746F
:1000D6006F0A00092034202D2074657374206C6526
:1000E600747475726120535731200A000920352037
:1000F6002D20746573742070696C6F74616767690D
:100106006F2072656CE820553135200A00092036CB
:10011600202D2074657374206F7574707574205566
:100126003236205042200A00092037202D207465DF
:100136007374206F75747075742055323620504371
:10014600200A00092038202D2074657374206F75ED
:100156007470757420553239205041200A000920E8
:1001660039202D2074657374206F75747075742032
:10017600553338200A00092030202D206D656E7514
:10018600207072696E636970616C650A000A2020CE
:100196002020205363656C746120746573743A2063
:1001A600000A0A544553542055323620706F727433
:1001B60061204220636F6E2072696C65747475727B
:1001C600612073752055323920706F727461204337
:1001D6000A000A5665726966696361726520616321
:1001E60063656E73696F6E6520646569206C65640E
:1001F600205531332028553236205042203D2030BC
:10020600304829200A0072696C6574747572612021
:100216007375205532392E5043204F4B20283078A5
:100226002530326278290A00212121204552524187
:1002360054412072696C65747475726120737520FF
:100246005532392E504320202830782530326278B6
:1002560020696E76656365206469203078304629AA
:100266000A007072656D69203C494E56494F3E0A38
:10027600000A566572696669636172652073706506
:10028600676E696D656E746F20646569206C656460
:10029600205531332028553236205042203D204605
:1002A6004648290A00212121204552524154412025
:1002B60072696C6574747572612073752055323974
:1002C6002E504320202830782530326278290A00C3
:1002D6000A54657374205532362E504225626420C6
:1002E600283078253032627829202D2056657269AB
:1002F60066696361726520616363656E73696F6EBB
:100306006520553133206C6564202562640A00211E
:100316002121204552524154412072696C65747402
:10032600757261207375205532392E50432028305E
:10033600782530326278290A000A5465737420558C
:1003460032362E50423620283078253032627829CF
:100356002D20566572696669636172652061636303
:10036600656E73696F6E6520553133206C65642048
:100376002562640A000A54657374205532362E507D
:100386004237202830782530326278292D2056656C
:10039600726966696361726520616363656E73691C
:1003A6006F6E6520553133206C6564202562640AC2
:1003B600000A0A544553542055323620706F727421
:1003C6006120430A000A566572696669636172654F
:1003D60020616363656E73696F6E652055313220E7
:1003E6006C656420256264000A54455354205532D6
:1003F6003920706F727461204120636F6E207269BC
:100406006C65747475726120737520553236207070
:100416006F72746120410A000A56657269666963E3
:1004260061726520616363656E73696F6E652064D2
:100436006569206C65642055313420285532392091
:100446005041203D2030314829200A0072696C65F0
:100456007474757261207375205532362E504120A2
:100466004F4B202830782530326278290A00212126
:1004760021204552524154412072696C657474754D
:100486007261207375205532362E504120283078FF
:100496002530326278290A000A56657269666963F0
:1004A60061726520737065676E696D656E746F2025
:1004B600646569206C6564205531342028553239CD
:1004C600205041203D20464548290A000A546573BC
:1004D60074205532392E5041256264202830782503
:1004E6003032627829202D2056657269666963610B
:1004F600726520616363656E73696F6E6520553141
:1005060034206C6564202562640A000A546573749D
:10051600205532392E504125626420283078253006
:1005260032627829202D2056657269666963617288
:100536006520737065676E696D656E746F205531E1
:1005460034206C6564202562640A006C65747475D9
:1005560072612070696E205532362E504136204F1A
:100566004B202830782530326278290A0021212153
:1005760020455252415441206C6574747572612055
:100586007375205532362E50413620283078253066
:10059600326278290A000A0A5445535420205357D8
:1005A600310A000A506F73697A696F6E617265204D
:1005B600535731207375204F4E2065200072696CA9
:1005C600657474757261207375205532362E5041EC
:1005D60037204F4B202830782530326278290A00A0
:1005E600212121204552524154412072696C657483
:1005F60074757261207375205532362E504137203E
:100606002830782530326278290A000A506F7369DB
:100616007A696F6E61726520535731207375204F6A
:100626004646206520000A0A54455354205533385F
:100636000A00566572696669636172652061636363
:10064600656E73696F6E6520646569206C656420EC
:100656005531352028553338203D20307830302923
:10066600200A0072696C6574747572612073752056
:100676005532392E5042204F4B20283078253032C3
:100686006278290A002121212045525241544120F5
:1006960072696C6574747572612073752055323990
:1006A6002E5042202830782530326278290A0056AA
:1006B60065726966696361726520737065676E69E4
:1006C6006D656E746F20646569206C6564205531B4
:1006D600352028553338203D203078666629200A93
:1006E6000054657374205533382E502562642028D3
:1006F6003078253032627829202D20566572696659
:10070600696361726520616363656E73696F6E65A7
:10071600207375205531352064656C204C45442086
:100726002562640A000A0A5445535420553135207F
:10073600706F727461205031200A000A5665726922
:100746006669636120616363656E73696F6E6520B8
:10075600553131206C65642032000A56657269662F
:1007660069636120616363656E73696F6E652055A9
:100776003131206C65642033000A566572696669FA
:10078600636120616363656E73696F6E65205531C1
:1007960031206C65642034000A56657269666963A7
:1007A6006120616363656E73696F6E6520553131D3
:1007B600206C65642035000A566572696669636156
:1007C60020616363656E73696F6E652055313120F4
:1007D6006C65642036000A56657269666963612035
:1007E600616363656E73696F6E6520553131206C88
:1007F60065642037005665726966696361726520B3
:100806006368652074757474692069206C6564205A
:100816007369616E6F207370656E7469207472619E
:100826006E6E65206C656420372064692055313111
:100836000A00566572696669636172652063686558
:100846002074757474692069206C6564207369610D
:100856006E6F206163636573690A000A28313D3053
:100866004B20303D4B4F20293A000A0A2A2A2A2AD1
:100876002A20205465737420492F4F2020202A2ACD
:100886002A2A2A2020200A0A000A5465737420495D
:100896002F4F204F4B0A000A5465737420492F4F7F
:1008A600204B4F202121200A0054657374206C656B
:1008B60064204F4E20204B4F0A0054657374206C01
:1008C6006564204F4646204B4F0A005465737420DA
:1008D60055323620504220204B4F0A00546573741F
:1008E6002055323620504320204B4F0A0054657362
:1008F600742055323920504120204B4F0A00546550
:1009060073742055333820202020204B4F0A005482
:100916006573742055313520202020204B4F0A0066
:100926005072656D65726520756E20746173746FA3
:10093600207065722070726F736567756972652EB7
:020946000A00A5
:0C30710041020B004202050000010900B2
:10318F00D297E4F51F051FE51FB4C8F9E4F51F0535
:10319F001FE51FB4C8F9C2977BFF7A00791602109A
:0131AF004CD3
:1031D0007BFF7A00792112104C9040037490F07BB1
:0F31E000FF7A00792F12104C902003748BF0228D
:102A25007BFF7A00793D12104C7BFF7A00794012CA
:102A3500104C7BFF7A00796512104C7BFF7A007988
:102A45004012104C7BFF7A00798A12104C7BFF7A7A
:102A550000798C12104C7BFF7A0079A112104C7B07
:102A6500FF7A0079C012104C7BFF7A0079D91210D9
:102A75004C7BFF7A0079F212104C7BFF7A017913B7
:102A850012104C7BFF7A01792E12104C7BFF7A01D4
:102A9500794912104C7BFF7A01796412104C7BFF47
:102AA5007A01797C12104C7BFF7A01799312104CD4
:102AB500123234EF24D0F50DE4F56CC3E50D6480D6
:102AC5009480407AE50D6480948A5072E50D120E6B
:102AD500DB2AF5012AFA022AFF032B04042B0F0532
:102AE5002B14062B1F072B2A082B350900002B401A
:102AF50012318F80491231D080441226A7803F12AF
:102B0500318F1231D0122D918034122C52802F1218
:102B1500318F1231D0121CA8802412318F1231D07E
:102B2500122F30801912318F1231D0121EE4800E0F
:102B350012318F1231D01227D78003756C01E56CE5
:052B45007003022A25C7
:012B4A002268
:101CA800E4F5087BFF7A0179A712104C7BFF7A01D3
:101CB80079D812104CE4904001F0F51F051FE51F7C
:101CC800B4C8F9902002E0543FFF7BFFBF0F0C7AA5
:101CD80002790CE0F54C12104C800F7A02792E90A4
:101CE8002002E0F54C12104C05087BFF7A02796857
:101CF80012104C123206900213EFF0BF0AF57BFF68
:101D08007A02797712104C90400174FFF0E4F51FC5
:101D1800051FE51FB4C8F9902002E0543FFF7BFF80
:101D2800BF300C7A02790CE0F54C12104C800F7A17
:101D38000279AB902002E0F54C12104C05087BFFAD
:101D48007A02796812104C123206900213EFF0BF33
:101D58000AF590020A7401F0E4900214F090400130
:101D680074FFF0E0FF90020AE0F4FEEF5E9040019D
:101D7800F07BFF7A0279D6900214E0FFF54C904090
:101D880001E0F54DEF2402F54E12104C902002E0D0
:101D9800543FFF90020AE044307BFFB5070F7A02F8
:101DA800790C902002E0F54C12104C800F7A0379E0
:101DB80015902002E0F54C12104C050890020AE03C
:101DC800FF25E0F07BFF7A02796812104C12320688
:101DD800900213EFF0BF0AF5900214E004F0E0C39C
:101DE80094045003021D659002147404F09040019D
:101DF80074FFF0E0FF90020AE0F4FEEF5E9040010D
:101E0800F07BFF7A0279D6900214E0FFF54C9040FF
:101E180001E0F54DEF2402F54E12104C90020AE055
:101E2800F45430FF902002E0543F7BFFB5070C7A52
:101E380002790CE0F54C12104C800F7A037915905A
:101E48002002E0F54C12104C050890020AE0FF252C
:101E5800E0F07BFF7A02796812104C123206900289
:101E680013EFF0BF0AF5900214E004F0E0C3940603
:101E78005003021DF590400174FFF0E0FF90020A44
:101E8800E0F4FEEF5E904001F07BFF7A03793FE0DB
:101E9800F54C754D0812104C1231B0EF6002050870
:101EA80090020AE025E0F090400174FFF0E0FF9016
:101EB800020AE0F4FEEF5E904001F07BFF7A0379BE
:101EC8007BE0F54C754D0912104C1231B0EF6002F1
:0B1ED8000508E50860037F01227F0081
:011EE30022DC
:102F3000E4F56D7BFF7A0379B712104CE490400200
:102F4000F090020A04F0E4900214F0900214E0FF02
:102F5000C39408502E90020AE0904002F07BFF7A62
:102F60000379CBEF2402F54C12104C90020AE0FFDB
:102F700025E0F01231B0EF256DF56D900214E004FC
:052F8000F080C8AF6DF8
:012F85002229
:101EE4007BFF7A0379EE12104CE4900207F0900223
:101EF4000A04F090C0007480F09020007401F07B1C
:101F0400FF7A04791E12104C904000E0543FFF7B8E
:101F1400FFBF3F0C7A047952E0F54C12104C800F4D
:101F24007A047974904000E0F54C12104C05097B5A
:101F3400FF7A02796812104C123206900213EFF005
:101F4400BF0AF590C0007480F090200074FEF07B0E
:101F5400FF7A04799E12104C904000E0543F7BFFBE
:101F6400700C7A047952E0F54C12104C800F7A040C
:101F74007974904000E0F54C12104C05097BFF7A0F
:101F840002796812104C123206900213EFF0BF0A65
:101F9400F590C0007480F090200074FFF0E490028B
:101FA40014F07BFF7A0479D2F54C902000E0F54DD3
:101FB400E42402F54E12104C1231B0EF6002050910
:101FC40090C0007480F090200074FEF0E49002143D
:101FD400F07BFF7A057911F54C902000E0F54DE493
:101FE4002402F54E12104C1231B0EF600205099034
:101FF400020A7402F090021214F0900214F090207D
:102004000074FEF0E0FF90020AE0F4FEEF5E902020
:1020140000F07BFF7A0479D2900214E0FFF54C9033
:102024002000E0F54DEF2402F54E12104C900214FE
:10203400E0C394075029900212E0FF904000E07B37
:10204400FFB5070C7A047952E0F54C12104C800F5E
:102054007A047974904000E0F54C12104C05099014
:10206400020AE025E0F0900212E0FF25E0F07BFF99
:102074007A02796812104C123206900213EFF0BF04
:102084000AF5900214E004F0E0C39408500302201F
:1020940002904000E07BFF20E60C7A057951E0F5E0
:1020A4004C12104C800F7A057973904000E0F54C87
:1020B40012104C0509E4900210F0122D91900210B8
:0E20C400EFF0E5097003E060037F01227F006A
:0120D20022EB
:102D9100E4F50A900210F07BFF7A05799C12104C41
:102DA1007BFF7A0579A912104C7BFF7A02796812B0
:102DB100104C123206900213EFF0BF0AF59040005A
:102DC100E07BFF30E70C7A0579C3E0F54C12104C3B
:102DD10080107A0579E6904000E0F54C12104C75B0
:102DE1000A017BFF7A06791112104C7BFF7A027976
:102DF1006812104C123206900213EFF0BF0AF590E0
:102E01004000E07BFF20E70C7A0579C3E0F54C1226
:102E1100104C80107A0579E6904000E0F54C1210D4
:062E21004C750A02AF0A25
:012E27002288
:1027D7007BFF7A06792C12104CE4F50B90C000F0C1
:1027E7007BFF7A06793812104C902001E07BFFB40A
:1027F700FF0C7A067969E0F54C12104C800F7A06C7
:10280700798B902001E0F54C12104C050B7BFF7A79
:1028170002796812104C123206900213EFF0BF0AC9
:10282700F590C00074FFF0FB7A0679B512104C9052
:102837002001E07BFF700C7A067969E0F54C1210F5
:102847004C800F7A06798B902001E0F54C12104CE2
:10285700050B7BFF7A02796812104C123206900240
:1028670013EFF0BF0AF590020A7401F0E490021426
:10287700F090C00074FFF090020AE0F4FF90C000EF
:10288700F07BFF7A0679E7900214E0FEC374139E8B
:10289700F54C8F4DEE2402F54E12104C90020AE0D3
:1028A700FF902001E07BFFB5070C7A067969E0F518
:1028B7004C12104C800F7A06798B902001E0F54C72
:1028C70012104C050B90020AE0FF25E0F07BFF7A1F
:1028D70002796812104C123206900213EFF0BF0A09
:1028E700F5900214E004F0E0C394084084E50B601F
:0628F700037F01227F00B7
:0128FD0022B8
:102C5200E4F50C7BFF7A07792B12104CD293C294C5
:102C6200C295C296D2977BFF7A07794112104C1215
:102C720031B0EF6002050CC293D2947BFF7A0779E0
:102C82006012104C1231B0EF6002050CC294D29562
:102C92007BFF7A07797F12104C1231B0EF60020588
:102CA2000CC295D2967BFF7A07799E12104C123194
:102CB200B0EF6002050CC29690E0007401F07BFF59
:102CC2007A0779BD12104C1231B0EF6002050CE4A4
:102CD20090E000F0D2977BFF7A0779DC12104CC2A9
:102CE200971231B0EF6002050CE50C60037F012200
:022CF2007F0061
:012CF40022BD
:102F8600E4900202F090C00074FFF0E4F51F051F04
:102F9600E51FB4C8F9E490E000F0C293C294C2956C
:102FA600C296C29790400174FFF0E4A3F09020000F
:102FB60074FEF07BFF7A00798A12104C7BFF7A0749
:092FC60079FB12104C1231B0220B
:10301800E4900208F090C000F090E00004F0D29331
:10302800D294D295D296C297E4904001F0A374FF4F
:10303800F0E4902000F07BFF7A00798A12104C7B34
:0C304800FF7A08793812104C1231B022C7
:1031B0007BFF7A08796112104C123206123217EF37
:0F31C00064316003BF30E9BF30037F01227F001D
:0131CF0022DD
:1026A7007BFF7A08797012104CE4900209F07BFFE7
:1026B7007A00798A12104C12318F1231D0E49002CD
:1026C70008F0900202F090020EF090020DF09002D6
:1026D7000FF0900204F0900203F0123018900208F5
:1026E700EFF0122F86900202EFF0122F3090020EB9
:1026F700EFF0121CA890020DEFF0121EE490020FEB
:10270700EFF01227D7900204EFF0122C5290020339
:10271700EFF07BFF7A00798A12104C900208E07084
:1027270028900202E0702290020DE0701CA3E07076
:1027370018A3E07014900204E0700E900203E0709A
:10274700087BFF7A08798F806F7BFF7A08799D1263
:10275700104C900208E060097BFF7A0879AF1210ED
:102767004C900202E060097BFF7A0879C012104C96
:1027770090020DE060097BFF7A0879D112104C9026
:10278700020EE060097BFF7A0879E212104C900292
:102797000FE060097BFF7A0879F312104C9002046E
:1027A700E060097BFF7A09790412104C900203E07C
:1027B70060097BFF7A09791512104C7BFF7A09793A
:1027C7002612104C123206900213EFF0BF0AF522C0
:102B4B000A0A526573657420756172740A00636FAB
:102B5B006E662075617274205532372040253034F3
:102B6B00580A0031202D2075617274205532372D93
:102B7B003E2530326258480A0032202D2075617292
:102B8B0074205532372D3E2530326258480A0033B7
:102B9B00202D2075617274205532372D3E25303231
:102BAB0062580A00636F6E6620756172742055332C
:102BBB0030200A000A54583A2825303262784829C6
:102BCB000A000A525820282562642062797465290C
:102BDB003A0025303262584809000A000A507265E3
:102BEB006D65726520756E20746173746F2065203E
:102BFB0076657269666963617265206368652063D7
:102C0B006F72726973706F6E64612061207175658C
:102C1B006C6C6F20726963657675746F20287120F8
:102C2B0070657220757363697265290A000A5458BE
:102C3B003A2563282530326278482920200A00255E
:072C4B002030326278200006
:0E307D00011800011900011B004200000000B4
:0300030002308C3C
:10308C00C0E0C083C082C0D075D000C006C007C2EB
:10309C00AF908000E0FFAE19051974022EF582E4A2
:1030AC003400F583EFF0D2AFD007D006D0D0D08269
:0530BC00D083D0E032DA
:03001300020006E2
:05000600C2AFD2AF32D1
:1031EF00D297E4F51F051FE51FB464F9C2977BFF63
:0731FF007A2B794B02104C02
:102FCF001231EF7E607F00754C60754D007BFF7A8C
:102FDF002B795912104C906001744FF07BFF7A2BB4
:102FEF00796EE0F54C12104C9060017437F07BFF56
:102FFF007A2B7984E0F54C12104C7BFF7A2B799A5F
:09300F00906000E0F54C02104C49
:10316B008F6E1231EF7BFF7A2B79AF12104CE56E1D
:10317B00B402047F0180027F00EF444E908001F087
:04318B007435F02285
:1028FE00122FCFE4F51B9060017435F0E4F51F053F
:10290E001FE51FB4C8F9E4F51F051FE51FB4C8F98C
:10291E00E4F51F051FE51FB4C8F9E4F51F051FE513
:10292E001FB4C8F9E4F51F051FE51FB4C8F9E4F597
:10293E001F051FE51FB4C8F9E4F51F051FE51FB4F9
:10294E00C8F9E4F51F051FE51FB4C8F9E4F51F0526
:10295E001FE51FB4C8F9E4F51F051FE51FB4C8F93C
:10296E00E4F51F051FE51FB4C8F9E4F51F051FE5C3
:10297E001FB4C8F9E4F51F051FE51FB4C8F9E4F547
:10298E001F051FE51FB4C8F99060007455F0E4F5FB
:10299E001F051FE51FB4C8F9E4F51F051FE51FB499
:1029AE00C8F9E4F51F051FE51FB4C8F9E4F51F05C6
:1029BE001FE51FB4C8F9E4F51F051FE51FB4C8F9DC
:1029CE00E4F51F051FE51FB4C8F9E4F51F051FE563
:1029DE001FB4C8F9E4F51F051FE51FB4C8F9E4F5E7
:1029EE001F051FE51FB4C8F9E4F51F051FE51FB449
:1029FE00C8F9E4F51F051FE51FB4C8F9E4F51F0576
:102A0E001FE51FB4C8F9E4F51FE51FC394C84003C2
:072A1E0002290A051F80F2E6
:1020D300122FCFE4F51B9060017437F0E4F51F0570
:1020E3001FE51FB4C8F9E4F51F051FE51FB4C8F9C0
:1020F300E4F51F051FE51FB4C8F9E4F51F051FE547
:102103001FB4C8F9E4F51F051FE51FB4C8F9E4F5CA
:102113001F051FE51FB4C8F9E4F51F051FE51FB42C
:10212300C8F9E4F51F051FE51FB4C8F9E4F51F0559
:102133001FE51FB4C8F9E4F51F051FE51FB4C8F96F
:10214300E4F51F051FE51FB4C8F9E4F51F051FE5F6
:102153001FB4C8F9E4F51F051FE51FB4C8F9E4F57A
:102163001F051FE51FB4C8F9E4F51B906000745503
:10217300F07BFF7A2B79BFF54C12104CE4F51F0569
:102183001FE51FB4C8F9E4F51F051FE51FB4C8F91F
:10219300E4F51F051FE51FB4C8F9E4F51F051FE5A6
:1021A3001FB4C8F9E4F51F051FE51FB4C8F9E4F52A
:1021B3001F051FE51FB4C8F9E4F51F051FE51FB48C
:1021C300C8F9E4F51F051FE51FB4C8F9E4F51F05B9
:1021D3001FE51FB4C8F9E4F51F051FE51FB4C8F9CF
:1021E300E4F51F051FE51FB4C8F9E4F51F051FE556
:1021F3001FB4C8F9E4F51F051FE51FB4C8F9E4F5DA
:102203001F051FE51FB4C8F9E4F51F051FE51FB43B
:10221300C8F9E4F51F051FE51FB4C8F912323E9053
:102223000000EEF0A3EFF012323E900000E0FCA3BA
:10223300E0FDC3EF9DFFEE9CFEC3EF940AEE940016
:1022430040030220D99060017435F0E51B60D87B10
:10225300FF7A2B79CDF54C12104CE4F51CE51CC329
:10226300951B501B7BFF7A2B79DD7402251CF582AD
:10227300E43401F583E0F54C12104C051C80DE7B41
:0D228300FF7A2B79E512104CE4F51B809AD0
:022EB4008F6825
:102EB600E4F5697BFF7A2B79E712104CAF68123183
:102EC6006B80591232068F1A1232178F6AEF6451CD
:102ED600604F309013908000E51AF07BFF7A2C79D2
:102EE60038F54CF54D12104CE51960D77BFF7A2B5F
:102EF60079CDF54C12104CE4F569E569C395195086
:102F06001B7BFF7A2C794A74022569F582E434002A
:102F1600F583E0F54C12104C056980DEE4F5198066
:0A2F2600A27BFF7A2B79E502104C24
:10094800EC4D6011E8497017ED33EC3304600DE4A9
:10095800FCFFFEFD22E933E8330470F8020AC112F5
:100968000A8C58046009E4CC2481500628500902F6
:100978000ACB284003020AC8C0E0EB4A7044B98099
:1009880006D0E0FB020AB7EF4E701CBD8008EBFFF3
:10099800EAFEE9FD80EBE98DF0A4FEE5F0020A31FC
:1009A800E9CDF9EAFEEBFFEF89F0A4FCE5F0CE898A
:1009B800F0A42EFFE435F0CD89F0A42DFEE435F047
:1009C8008067EF4E7005BD80D780C3EF8BF0A4AC75
:1009D800F0EE8BF0A42CFCE435F0F8EF8AF0A42CB0
:1009E800E5F038FCE433CB8DF0A42CFCE5F03BF8C3
:1009F800EE8AF0A42CFCE5F038F8E433CF89F0A4B3
:100A08002CFCE5F038CF3400CE89F0A42FFFE5F0B8
:100A18003EFEE433C98DF0A42EFEE5F039CD8AF010
:100A2800A42FFFE5F03EFEE43DFD33D0E0FB500788
:100A38000BBB000F020ACBEC2CFCEF33FFEE33FEAE
:060A4800ED33FD020AA3DC
:100A4E0075F020800E75F010800575F0087D007E23
:100A5E00007F003392D530D503120EBDEC3340101B
:100A6E00EF33FFEE33FEED33FDEC33FCD5F0ED222C
:0E0A7E00E5F0247EA2D513CC92E7CDCEFF2268
:100FEA00E560244CF8E60560227849300702784C1F
:100FFA00E475F001120ECB020E102000EB7F2ED208
:10100A00008018EF540F2490D43440D4FF30040BDE
:10101A00EF24BFB41A0050032461FFE56160021592
:10102A00610564E5647002056330070D7849E4756B
:10103A00F001120ECBEF020E560231447403D207AE
:10104A008003E4C207F5608B498A4A894BE4F5615B
:10105A00F563F564E56160077F2012102580F57558
:10106A0062FFC201C200C202C203C205C206C208AE
:10107A00120FF3FF700D3007057F00121036AF64B0
:10108A00AE6322B4255FC2D5C204120FF3FF24D087
:10109A00B40A00501A75F00A786130D50508B6FF0F
:1010AA000106C6A426F620D5047002D20380D924EC
:1010BA00CFB41A00EF5004C2E5D204021323D201BE
:1010CA0080C6D20080C0D20280BCD2D580BAD205F6
:1010DA0080B47F201210252002077401B5610040F8
:1010EA00F1120FEAFF12102502105ED208D2068012
:1010FA0095120FEAFB120FEAFA120FEAF94A4B703D
:10110A0006791A7A147BFF20022EE561602A7E0096
:10111A008E82758300120E2960060EEE656270F0EB
:10112A00C2D5EBC0E0EAC0E0E9C0E0EE121383D01A
:10113A00E0F9D0E0FAD0E0FB120E10FF60AAEBC093
:10114A00E0EAC0E0E9C0E0121025D0E02401F9D0BD
:10115A00E03400FAD0E0FBE5620460DCD562D980B5
:10116A0087D20280A212136660F7E5627001041248
:10117A000AD6A962600DE562600914F56212140DBF
:10118A00EF60F3EA30E702F404C3995077EAF425F2
:10119A00620430E701E404F562800D12136660C14F
:1011AA00EA05622562120AD6EA785FF630E701E4B8
:1011BA00256204D5620420050114121383E4C0E0F9
:1011CA0012140D785FE6601320E70714F612100D6B
:1011DA00802204F6D0E014C0E07F0012100DE56210
:1011EA0060071210041562800B300503121004D038
:1011FA00E002105ED0E00480C512136660A0E562CA
:10120A0004120AD6785FEAF6E56220050260010454
:05121A002404121383FF
:10121F0074FF04C0E012140D12100DE562200502D8
:10122F006003121004D0E0B562E87F451210177802
:10123F005FE67F2B30E7047F2DF404C0E01210250A
:10124F00D0E075F00A84C0F012100ED0E012100E2C
:10125F0002105E791080027908C206C2088008D297
:10126F00D5790A8004790AC2D5E562047002F56265
:10127F00E4FAFDFEFF120FEAFC7B08200113120FA8
:10128F00EAFD7B1030000A120FEAFE120FEAFF7B15
:10129F0020EC3382D592D55013C3E43000069FFF64
:1012AF00E49EFEE42001039DFDE49CFCE4CBF8C228
:1012BF0001EC700CCFCECDCCE824F8F870F380178A
:1012CF00C3EF33FFEE33FEED33FDEC33FCEB33FBBB
:1012DF00994002FB0FD8E9EB300105F8D0E0C44884
:1012EF00B201C0E00AEC4D4E4F78207B0070C2EA8D
:1012FF00B5620040BCC0E0121385D0F0D0E02001F1
:10130F0004C4C0E0C4B201C0F012100ED0F0D5F08A
:10131F00EB02105E120EDB10FB5312625810CC4C16
:10132F0010C84212664F126E44126E4910E14312FA
:10133F00745511A546120345116F47143A5010D03A
:10134F002D10D42E10F72B10D82310F52014232A8C
:10135F00109048000010EFE562B4FF0375620612AB
:10136F000FEAFC120FEAFD120FEAFE120FEAFF78E6
:10137F0058020B05790AA2D5200314300509B910BC
:10138F00020404B9080104A2D5200602500104206A
:10139F0002689202B561005034C0E07F203003191B
:1013AF007F30A20272067205500F1213DCC202C206
:1013BF0006C205C2087F30800F300503E9C0E01276
:1013CF001025300503D0E0F9D0E0B561CC3005171A
:1013DF007F30B9100C1210257F583004077F7880AA
:1013EF0003B908031210253002057F2D0210257F47
:1013FF00202008F87F2B2006F322920280CF7F0057
:10140F00B4070050052458F8E6FF22286E756C6C5F
:10141F002900D201120FEA3001F8C201786130D5EC
:10142F000108F60210902D50434958120FEA240379
:10143F00B405004001E490143593121016743A125B
:0A144F001016D20375610402126248
:100A8C00E9D2E7C933E833F892D5EDD2E7CD33ECB0
:070A9C0033FC5002B2D52229
:100AA300EC30E7100FBF000C0EBE00080DBD0004B4
:100AB3000BEB6014A2D5EB13FCED92E7FD2274FF60
:100AC300FCFDFEFF22E480F8A2D574FF13FC7D80B9
:030AD300E480EFCD
:100AD600F920E72824F950037907E4F42402FB18E7
:100AE600DBFDE624FB5014E9600DE4F618E604F697
:0F0AF600B40A08E4F6D9F57401F60A22C2D52233
:100B0500ED33EC3392D5FA602AB4FF33EDC2E77BBF
:100B1500FF60067A0B792AE4227A0B793320D50413
:100B25007A0B792E224E614E002B494E46002D49F7
:100B35004E4600E47A08F608DAFC7B00740722E8E2
:100B4500C0E0ECC0E0EDC0E0EEC0E0EFC0E0EA756B
:100B5500F010A4CAABF075F04DA42BFBE435F0FC06
:100B6500EA2410FAEB34C5FBEC34D9FCEDC2E7FFFF
:100B750075F056A4F42411C5F0F434C58FF0A42AF9
:100B8500E5F03BE43CF620E714120DD0D0E0FFD0B1
:100B9500E0FED0E0FDD0E0FC120D038014F4041259
:100BA5000DD0D0E0FFD0E0FED0E0FDD0E0FC120992
:100BB50048D0E0F8E6FAEDD2E7CD33EC332482FBFA
:100BC500E4C3CF33CFCE33CECD33CD33DBF37B0789
:100BD50075F00A846004F6081B0AE5F0F6088FF044
:100BE500740AA4FFACF08EF0740AA42CFEACF0508D
:100BF500010C8DF0740AA42CFDE435F0F608DBDE5B
:030C05007407224F
:100C0800020AC1E86480F8E933E83360110460F04F
:100C1800ED33EC337009E8FCE9FDEAFEEBFF220452
:100C280060DED3EB9FEA9EE99DE8C2E78CF0C2F74D
:100C380095F0400CE8CCF8E9CDF9EACEFAEBCFFB19
:100C4800120A8C85D0F05804700320D5B3E80470DC
:100C5800075002B2D5020ACB92D5EC0460F7E4CC77
:100C6800C0E0C398F8603B94186008400DD0E0FBE2
:100C7800020AA3E4FBFAC9FC8028E830E406E4C9C8
:100C8800FBE4CAFCE830E305E4C9CACBFCE8540736
:100C98006010F8C3E913F9EA13FAEB13FBEC13FC41
:100CA800D8F130F52FC3E49CFCEF9BFFEE9AFEEDE4
:100CB80099FDD0E0FBEF4E4D4C701222DB03020A87
:100CC800C8EC2CFCEF33FFEE33FEED33FDED30E7DF
:100CD800EB020AA3EF2BFFEE3AFEED39FDD0E0FB65
:100CE80050130BBB0003020ACBED13FDEE13FEEF0E
:080CF80013FFEC13FC020AA338
:100D0000020ACBEC5D046005E859047003020AC1D5
:100D1000120A8C580460F6EC4860F2EC7004FDFE98
:100D2000FF22C860DB2481C85009C39860025006C6
:100D3000020AC89850CAF582E9294B4A7005AB826D
:100D4000020AB775F0007C1A7880C3EF9BEE9AED2B
:100D500099400DC3EF9BFFEE9AFEED99FDE842F03E
:100D6000DC23ACF0D0E0FFD0E0FED0E0FDAB822091
:100D7000E7101BEB60BAEC2CFCEF33FFEE33FEED1B
:100D800033FD020AA3E803F830E705C0F075F00070
:100D9000EF2FFFEE33FEED33FD40B830E7C280AAFF
:100DA0003F8000004120000042C80000447A00005B
:100DB000461C400047C35000497424004B189680DD
:100DC0004CBEBC205A0E1BCA6753C21C749DC5AED4
:100DD000FB60065407601C2323120DFEEB543860A1
:100DE00009120DEA120DF9120948ECF8EDF9EEFAC4
:100DF000EFCB22EB120DF980F1543803241C900D37
:100E0000A0FE93FC0EEE93FD0EEE930ECE93FF220A
:03000000022E28A5
:0C2E2800787FE4F6D8FD758171022E6FF2
:100E1000BB010689828A83E0225002E722BBFE02E0
:090E2000E32289828A83E4932213
:100E2900BB010CE58229F582E5833AF583E022507E
:100E390006E92582F8E622BBFE06E92582F8E222C8
:0D0E4900E58229F582E5833AF583E49322E2
:100E5600BB010689828A83F0225002F722BBFE017B
:020E6600F32275
:100E6800BC000BBE0029EF8DF084FFADF022E4CC6E
:100E7800F875F008EF2FFFEE33FEEC33FCEE9DEC37
:100E8800984005FCEE9DFE0FD5F0E9E4CEFD22ED7D
:100E9800F8F5F0EE8420D21CFEADF075F008EF2FC7
:100EA800FFED33FD4007985006D5F0F222C398FDB8
:050EB8000FD5F0EA2255
:0E0EBD00C3E49FFFE49EFEE49DFDE49CFC2246
:100ECB00FAE6FB0808E6F925F0F618E6CA3AF62228
:100EDB00D083D082F8E4937012740193700DA3A3A6
:100EEB0093F8740193F5828883E4737402936860BA
:060EFB00EFA3A3A380DFBA
:10314400EFB40A07740D12314F740A309811A8991C
:10315400B8130CC2983098FDA899C298B811F630EB
:0731640099FDC299F59922C3
:0A3234003098FDAF99C2987E002289
:1032060010090B123234BF0D027F0A023144AF6F30
:013216002295
:10321700EFC39461400AEF947B5005EF24E0FF224F
:013227002284
:0C322800EE30E707C3E49FFFE49EFE22A7
:100F0100E709F60870FA8046E709F20870FA803EB0
:100F110088828C83E709F0A370FA807EE309F608E2
:100F210070FA8076E309F20870FA806E88828C8309
:100F3100E309F0A370FA806289828A83E0A3F6084C
:100F410070FA805689828A83E0A3F20870FA804A97
:100F510080D280FA80C680D4806580F28031801092
:100F610080A680EA809A80A880DA80E280CA8031F7
:100F710089828A83ECFAE493A3C8C582C8CCC5836D
:100F8100CCF0A3C8C582C8CCC583CC70E9800D89DB
:100F9100828A83E493A3F60870F9ECFAA9F0EDFBD9
:100FA1002289828A83ECFAE0A3C8C582C8CCC583B2
:100FB100CCF0A3C8C582C8CCC583CC70EA80DD89DA
:100FC100828A83E493A3F20870F980CE88F0ED243D
:100FD10002B4040050C4F582EB2402B4040050BAF8
:090FE1002323458223900F517374
:102E34000230C1E493A3F8E493A34003F68001F2C3
:102E440008DFF48029E493A3F85407240CC8C3339F
:102E5400C4540F4420C8834004F456800146F6DF6E
:102E6400E4800B0102040810204080903054E47E7A
:102E7400019360BCA3FF543F30E509541FFEE49363
:102E8400A360010ECF54C025E060A840B8E493A32A
:102E9400FAE493A3F8E493A3C8C582C8CAC583CA55
:102EA400F0A3C8C582C8CAC583CADFE9DEE780BE0D
:01308B000044
:00000001FF
