:102520000A0A002A2A2A2A2A2A2A2A2A2A2A2A2A75
:102530002A2A2A2A2A2A2A2A2A2A2A2A2A2A2A2AFB
:102540002A2A2A2A2A2A0A002A202020436F6C6C71
:102550006175646F20736368656461204350552022
:10256000524556494E44202020202A0A002A202085
:10257000207377207665722E207465737472657788
:1025800020312E3020202020202020202020202A12
:102590000A00092031202D20746573742052414DAA
:1025A0000A00092032202D207465737420414443B1
:1025B0000A00092033202D207465737420492F4FA1
:1025C0002050726F67720A00092034202D20746534
:1025D000737420554152545F553237202D20524993
:1025E00043455A494F4E450A00092035202D207495
:1025F00065737420554152545F553237202D205455
:102600005241534D495353494F4E450A0009203614
:10261000202D207465737420554152545F5533301A
:102620002044473633302D32392870726573636128
:102630006C657220783136290A00092037202D2058
:102640007465737420554152545F553330204447AC
:102650003633302D3132287072657363616C657268
:1026600020783634290A0A000A0A20202020205324
:1026700063656C746120746573743A20000A2045A8
:1026800043484F2073752055323720617474697642
:042690006F200A00AD
:04328500021C000027
:03000B000233229B
:10332200C0E0C0D075D000C000C28CC2AFA2B5B39D
:1033320092B5781D06E618700106758C4B758AFFEA
:0B334200D28CD2AFD000D0D0D0E0324F
:08346E00781CE6FE08E6FF22CF
:10334D00759852758921758DFD858D8B758C4B7595
:10335D008AFF75B802D288D28A75A887D2A9D28C75
:07336D00D28ED299C2B422F6
:102DA4007BFF7A25792012104C7BFF7A2579231238
:102DB400104C7BFF7A25794812104C7BFF7A2579D9
:102DC4006D12104C7BFF7A25792312104C7BFF7A0D
:102DD40025792012104C7BFF7A25799212104C7BB6
:102DE400FF7A2579A212104C7BFF7A2579B2121052
:102DF4004C7BFF7A2579C812104C7BFF7A2579E940
:102E040012104C7BFF7A26790D12104C7BFF7A2628
:102E1400793A12104C7BFF7A26796812104C1234DE
:102E240064EF24D0F518D364809480400DE51864D1
:102E340080948750057549018003E4F549E549709C
:052E440003022DA42291
:10308B0012334DC2B5E4F51A051AE51AB4C8F9E4C2
:10309B00F51A051AE51AB4C8F9E4F51A051AE51A72
:1030AB00B4C8F97BFF7A26797D12104C122DA4E55A
:1030BB0018120EDB30D80130DD0230E20330E704AA
:1030CB0030EC0530F10630F807000030B7121A74F7
:1030DB0080DA12145980D5122B6080D01230FF8009
:1030EB00CB121D0180C67F0112300F80BF7F0212F1
:0430FB00300F80B85A
:102694000A546573742052414D2045535445524E9B
:1026A400412028307830303030202E2E20307831C0
:1026B400464646290A0A0057726974652070617497
:1026C4007465726E2030784141353520200A00400F
:1026D40025303458200D000A5665726966792061E8
:1026E40074200A0025303458200D0074657374205A
:1026F40052414D204B4F20253034582040207265E4
:10270400616420253034780A000A577269746520A0
:102714007061747465726E20307835354141206182
:1027240074200A00746573742052414D204B4F206D
:10273400256C582040207265616420253034780A65
:10274400000A5465737420312D7368696674696E68
:1027540067206F6E2041302E2E413132200A002531
:102764003034582028307830303030292000202E62
:102774002E6F6B0A002E2E4B4F20256C780A0025F5
:10278400303458202028412562642920002E2E4B05
:102794004F2025750A00546573742052414D204F13
:1027A4004B0A00546573742052414D204B4F2065F1
:1027B40072726F7220202562640A005072656D6522
:1027C400726520756E20746173746F207065722059
:0E27D40070726F736567756972652E0D0A006D
:0932890001110001120001100006
:101A74007BFF7A26799412104C7BFF7A2679BB126D
:101A8400104CE4F510F50EF50FAE0EAF0FC3EF9446
:101A9400FFEE941F502D8E498F4A7BFF7A2679D30F
:101AA400854952854A5312104C850F82850E8374E2
:101AB400AAF0A37455F07402250FF50FE4350EF562
:101AC4000E80C67BFF7A2679DB12104CE4F50EF506
:101AD4000FAE0EAF0FC3EF94FFEE941F504F8E491D
:101AE4008F4A7BFF7A2679E8854952854A5312103A
:101AF4004C850F82850E83E0FEA3E0FF64557003DE
:101B0400EE64AA601B755201850E53850F548E55E1
:101B14008F567BFF7A2679EF12104C751001800DD9
:101B24007402250FF50FE4350EF50E80A47BFF7AC1
:101B340027790D12104CE4F50EF50FAE0EAF0FC35E
:101B4400EF94FFEE941F502D8E498F4A7BFF7A2627
:101B540079E8854952854A5312104C850F82850EC7
:101B6400837455F0A374AAF07402250FF50FE435BD
:101B74000EF50E80C67BFF7A2679DB12104CE4F555
:101B84000EF50FAE0EAF0FC3EF94FFEE941F504F40
:101B94008E498F4A7BFF7A2679E8854952854A53D4
:101BA40012104C850F82850E83E0FEA3E0FF64AA29
:101BB4007003EE6455601B755201850E53850F54F6
:101BC4008E558F567BFF7A27792812104C75100298
:101BD400800D7402250FF50FE4350EF50E80A47BFD
:101BE400FF7A27794512104CE4F50EF50F850F8224
:101BF400850E8374AAF0A37455F07BFF7A2779636A
:101C0400850E52850F5312104C850F82850E83E08A
:101C1400FEA3E0FFBEAA0EBF550B7BFF7A277972A5
:101C240012104C80197BFF7A277979850F82850EF3
:101C340083E0F552A3E0F55312104C751003E4F55C
:101C4400110511E511B4FFF9E4F512F50E750F0154
:101C5400F54B754C01C3E54B94205079AE0EAF0F94
:101C64008E498F4A7BFF7A2779838E528F53AF1226
:101C740005128F5412104C850F82850E8374AAF0BE
:101C8400A37455F0E4F5110511E511B4FFF9850FBE
:101C940082850E83E0FEA3E0FFBEAA0EBF550B7B38
:101CA400FF7A27797212104C80197BFF7A27799179
:101CB400850F82850E83E0F552A3E0F55312104C94
:101CC400751003E54C25E0F54CE54B33F54BF50E6B
:101CD400854C0F8080E5107BFF70067A27799A8007
:101CE400077A2779A785105212104C7BFF7A27793F
:0D1CF400BF12104C1234368F4DBF0AF8227B
:10176F0063683A202562642020200073616D706CDD
:10177F0065206EB020256264202020006C65747493
:10178F007572613A203078256258202825312E3223
:10179F006620566F6C7429200A0063683A20256210
:1017AF006420206C65747475726120307825582020
:1017BF0020202825312E326620566F6C74290A009E
:1017CF004F4B004B4F00457369746F2074657374F2
:1017DF0020636820494E256264203D2030782530F3
:1017EF0032582020206C6574747572613A2025314F
:1017FF002E326656202056616C2061747465736FAB
:10180F003A2025312E32665620202020006573693C
:10181F00746F3A2025730A000A0A2A2A2A2A2A20D4
:10182F0020546573742041444320202A2A2A2A2AEF
:10183F002020200A0A0053656C657A696F6E617209
:10184F006520696C207469706F2064692073636808
:10185F00656461203A0A0020202031202D20444762
:10186F003633302D31320A0020202032202D2044F3
:10187F00473633302D32390A0A00202020202053DA
:10188F0063656C74613A20000A000A506F73697ABD
:10189F00696F6E617265206C6F207377697463680E
:1018AF0020616C2063656E74726F2065207665729F
:1018BF0069666963617265206368652069206C657C
:1018CF00642053312065205332207369616E6F207D
:1018DF007370656E74690A005072656D657265206C
:1018EF00494E56494F207065722070726F7365674D
:1018FF0075697265200A000A546573742063616EFE
:10190F00616C6520494E300A000A54657374206378
:10191F00616E616C6520494E310A000A546573741B
:10192F002063616E616C6520494E320A000A54656E
:10193F00737420494E2562640A00506F73697A6987
:10194F006F6E617265206C6F2073776974636820A6
:10195F007375204E4F495345312065207665726966
:10196F0066696361726520636B6520696C206C65C5
:10197F0064205331207369612061636365736F2045
:10198F00287465737420494E256264290A00506FCC
:10199F0073697A696F6E617265206C6F20737769F6
:1019AF00746368207375204E4F4953453120287456
:1019BF0065737420494E256264290A00506F73695C
:1019CF007A696F6E617265206C6F207377697463CB
:1019DF0068207375204E4F49534532206520766538
:1019EF00726966696361726520636B6520696C203B
:1019FF006C65642053322073696120616363657382
:101A0F006F20287465737420494E256264290A007B
:101A1F0052696570696C6F676F20746573742041CC
:101A2F0044430A005465737420494E256264203D77
:101A3F00203078253032582020206C6574747572F0
:101A4F00613A2025312E326656202056616C206176
:101A5F00747465736F3A2025312E3266562020201C
:051A6F0020000A0A003E
:10329200082DB05B598E84B500000146000147003D
:10239B008F4C8D4DEF25E02436F8E4F608F6F54E1C
:1023AB00752801E4254CFFE434A0F5298F2A8F8290
:1023BB00F583747FF03092FD852A82852983E0F5C1
:1023CB00487BFF7A17796F854C5212104C7BFF7A42
:1023DB0017797A85285212104C852A82852983E039
:1023EB00FCF552E4120A587B2E7A9079A0783C12B5
:1023FB0009488F568E558D548C537BFF7A17798BEA
:10240B0012104C852A82852983E0FFE54C25E024B8
:10241B0036F808EF26F618E436F60528E528D394A7
:10242B000A4080E54C25E02436F8C000E6FE08E6BD
:10243B00FF7C007D0A120E68D000A60608A6078551
:10244B004C52E54C25E02436F8E6FC08E6FD8C53AF
:10245B00F554E4120A537B2E7A9079A0783C12093A
:10246B00488F588E578D568C557BFF7A1779A9124A
:10247B00104CE54C25E02436F8E6FC08E6C3954DF8
:10248B00FFEC9400FE123458D3EF940DEE6480945D
:10249B008078257C007D007BFF500C7A1779CF125A
:1024AB000FCDE4F54E800A7A1779D2120FCD754E07
:1024BB0001854C52E54C25E02436F8E6FC08E6FD98
:1024CB008C53F554E4120A537B2E7A9079A0783C06
:1024DB001209488F588E578D568C55E54DFD7C0053
:1024EB00E4120A537B2E7A9079A0783C1209488F1C
:1024FB005C8E5B8D5A8C597BFF7A1779D512104CF9
:10250B007552007553007554257BFF7A18791C1290
:05251B00104CAF4E2240
:10145900E4F546E54625E02416F582E43402F583F1
:10146900E4F0A3F00546E546B408E87BFF7A18796D
:101479002712104C7BFF7A18794512104C7BFF7AA2
:1014890018796612104C7BFF7A18797712104C7B09
:10149900FF7A18798912104C1234648F227BFF7AF3
:1014A90018799712104CE4F523E52224D0F524D3BA
:1014B90094004016E52494035010E524B40105E492
:1014C900F53280037532B5752301E52360A67BFFEC
:1014D9007A18799912104C7BFF7A1879E712104C17
:1014E9001234368F35BF0AF87BFF7A197906121044
:1014F9004CE4F549F54A054AE54A70020549646430
:10150900454970F2E4FDFF12239B7E00900216EE1E
:10151900F0A3EFF0600AE025E0F0900216E033F066
:101529007BFF7A1879E712104C1234368F35BF0ACF
:10153900F87BFF7A19791812104CE4F549F54A0538
:101549004AE54A70020549B4F4F5E549B401F0E405
:10155900FD7F0112239B7E00900218EEF0A3EFF0AD
:10156900600AE025E0F0900218E033F07BFF7A187A
:1015790079E712104C1234368F35BF0AF87BFF7A9F
:1015890019792A12104CE4F549F54A054AE54A70D9
:10159900020549B4F4F5E549B401F0E4FD7F02120E
:1015A900239B7E0090021AEEF0A3EFF0600AE0257B
:1015B900E0F090021AE033F07BFF7A1879E7121015
:1015C9004C1234368F35BF0AF8E4F5467BFF7A1999
:1015D900793C85465212104CE546700B7BFF7A190F
:1015E9007949854652801CE546B4010A7BFF7A1980
:1015F900799DF552800DE546B4020B7BFF7A197986
:10160900CBF55212104C7BFF7A1879E712104C1265
:1016190034368F35BF0AF8E546C394025015E4F510
:1016290049F54A054AE54A70020549B4F4F5E54920
:10163900B401F0E54625E02416F582E43402F58389
:10164900C083C082E0FEA3E0FFC007C006742D2559
:1016590046F8E6FDAF4612239BEFFDD0E0FFD0E050
:101669004DD082D083CFF0A3EFF07BFF7A1879E7D2
:1016790012104C1234368F35BF0AF80546E546C3B9
:10168900940850030215D57BFF7A1A791F12104C62
:10169900E4F546742D2546F8E6FFE54625E02436AF
:1016A900F8E6FC08E6C39FFFEC9400FE123458D319
:1016B900EF940DEE648094805020E54625E02416D1
:1016C900F582E43402F583A3E020E10E78257C005D
:1016D9007D007BFF7A1779CF800C78257C007D000F
:1016E9007BFF7A1779D2120FCD854652E54625E060
:1016F9002436F8E6FC08E6FD8C53F554E4120A5347
:101709007B2E7A9079A0783C1209488F588E578D94
:10171900568C55742D2546F8E6FD7C00E4120A53D3
:101729007B2E7A9079A0783C1209488F5C8E5B8D6C
:101739005A8C597BFF7A1A793312104C75520075FD
:1017490053007554257BFF7A18791C12104C0546F5
:10175900E546C39408500302169C1234367BFF7A7F
:061769001A797102104C18
:1000160052657365742050494F0A00434F4E46207F
:1000260050494F205532362000434F4E4620504906
:100036004F2055323920000A0A002A2A2A2A2A2A5B
:100046002A2A2A2A2A2A2A2A2A2A2A2A2A2A2A2A0A
:100056002A2A2A2A2A2A2A2A2A2A2A2A2A0A002A44
:100066002020207363656C7461207465737420505E
:10007600494F202020202020202020202020202022
:10008600202A0A000A00092031202D20636F6D61A5
:100096006E646F2072657365740A00092032202D24
:1000A60020636F6E6669677572617A696F6E652027
:1000B60072656769737472690A00092033202D20FE
:1000C6007465737420492F4F20636F6D706C65746F
:1000D6006F0A00092034202D2074657374206C6526
:1000E600747475726120535731200A000920352037
:1000F6002D20746573742070696C6F74616767690D
:100106006F2072656CE820553135200A00092036CB
:10011600202D2074657374206F7574707574205566
:100126003236205042200A00092037202D207465DF
:100136007374206F75747075742055323620504371
:10014600200A00092038202D2074657374206F75ED
:100156007470757420553239205041200A000920E8
:1001660039202D2074657374206F75747075742032
:10017600553338200A00092030202D206D656E7514
:10018600207072696E636970616C650A000A2020CE
:100196002020205363656C746120746573743A2063
:1001A600000A0A544553542055323620706F727433
:1001B60061204220636F6E2072696C65747475727B
:1001C600612073752055323920706F727461204337
:1001D6000A000A5665726966696361726520616321
:1001E60063656E73696F6E6520646569206C65640E
:1001F600205531332028553236205042203D2030BC
:10020600304829200A0072696C6574747572612021
:100216007375205532392E5043204F4B20283078A5
:100226002530326278290A00212121204552524187
:1002360054412072696C65747475726120737520FF
:100246005532392E504320202830782530326278B6
:1002560020696E76656365206469203078304629AA
:100266000A007072656D69203C494E56494F3E0A38
:10027600000A566572696669636172652073706506
:10028600676E696D656E746F20646569206C656460
:10029600205531332028553236205042203D204605
:1002A6004648290A00212121204552524154412025
:1002B60072696C6574747572612073752055323974
:1002C6002E504320202830782530326278290A00C3
:1002D6000A54657374205532362E504225626420C6
:1002E600283078253032627829202D2056657269AB
:1002F60066696361726520616363656E73696F6EBB
:100306006520553133206C6564202562640A00211E
:100316002121204552524154412072696C65747402
:10032600757261207375205532392E50432028305E
:10033600782530326278290A000A5465737420558C
:1003460032362E50423620283078253032627829CF
:100356002D20566572696669636172652061636303
:10036600656E73696F6E6520553133206C65642048
:100376002562640A000A54657374205532362E507D
:100386004237202830782530326278292D2056656C
:10039600726966696361726520616363656E73691C
:1003A6006F6E6520553133206C6564202562640AC2
:1003B600000A0A544553542055323620706F727421
:1003C6006120430A000A566572696669636172654F
:1003D60020616363656E73696F6E652055313220E7
:1003E6006C656420256264000A54455354205532D6
:1003F6003920706F727461204120636F6E207269BC
:100406006C65747475726120737520553236207070
:100416006F72746120410A000A56657269666963E3
:1004260061726520616363656E73696F6E652064D2
:100436006569206C65642055313420285532392091
:100446005041203D2030314829200A0072696C65F0
:100456007474757261207375205532362E504120A2
:100466004F4B202830782530326278290A00212126
:1004760021204552524154412072696C657474754D
:100486007261207375205532362E504120283078FF
:100496002530326278290A000A56657269666963F0
:1004A60061726520737065676E696D656E746F2025
:1004B600646569206C6564205531342028553239CD
:1004C600205041203D20464548290A000A546573BC
:1004D60074205532392E5041256264202830782503
:1004E6003032627829202D2056657269666963610B
:1004F600726520616363656E73696F6E6520553141
:1005060034206C6564202562640A000A546573749D
:10051600205532392E504125626420283078253006
:1005260032627829202D2056657269666963617288
:100536006520737065676E696D656E746F205531E1
:1005460034206C6564202562640A006C65747475D9
:1005560072612070696E205532362E504136204F1A
:100566004B202830782530326278290A0021212153
:1005760020455252415441206C6574747572612055
:100586007375205532362E50413620283078253066
:10059600326278290A000A0A5445535420205357D8
:1005A600310A000A506F73697A696F6E617265204D
:1005B600535731207375204F4E2065200072696CA9
:1005C600657474757261207375205532362E5041EC
:1005D60037204F4B202830782530326278290A00A0
:1005E600212121204552524154412072696C657483
:1005F60074757261207375205532362E504137203E
:100606002830782530326278290A000A506F7369DB
:100616007A696F6E61726520535731207375204F6A
:100626004646206520000A0A54455354205533385F
:100636000A00566572696669636172652061636363
:10064600656E73696F6E6520646569206C656420EC
:100656005531352028553338203D20307830302923
:10066600200A0072696C6574747572612073752056
:100676005532392E5042204F4B20283078253032C3
:100686006278290A002121212045525241544120F5
:1006960072696C6574747572612073752055323990
:1006A6002E5042202830782530326278290A0056AA
:1006B60065726966696361726520737065676E69E4
:1006C6006D656E746F20646569206C6564205531B4
:1006D600352028553338203D203078666629200A93
:1006E6000054657374205533382E502562642028D3
:1006F6003078253032627829202D20566572696659
:10070600696361726520616363656E73696F6E65A7
:10071600207375205531352064656C204C45442086
:100726002562640A000A0A5445535420553135207F
:10073600706F727461205031200A000A5665726922
:100746006669636120616363656E73696F6E6520B8
:10075600553131206C65642032000A56657269662F
:1007660069636120616363656E73696F6E652055A9
:100776003131206C65642033000A566572696669FA
:10078600636120616363656E73696F6E65205531C1
:1007960031206C65642034000A56657269666963A7
:1007A6006120616363656E73696F6E6520553131D3
:1007B600206C65642035000A566572696669636156
:1007C60020616363656E73696F6E652055313120F4
:1007D6006C65642036000A56657269666963612035
:1007E600616363656E73696F6E6520553131206C88
:1007F60065642037005665726966696361726520B3
:100806006368652074757474692069206C6564205A
:100816007369616E6F207370656E7469207472619E
:100826006E6E65206C656420372064692055313111
:100836000A00566572696669636172652063686558
:100846002074757474692069206C6564207369610D
:100856006E6F206163636573690A000A28313D3053
:100866004B20303D4B4F20293A000A0A2A2A2A2AD1
:100876002A20205465737420492F4F2020202A2ACD
:100886002A2A2A2020200A0A000A5465737420495D
:100896002F4F204F4B0A000A5465737420492F4F7F
:1008A600204B4F202121200A0054657374206C656B
:1008B60064204F4E20204B4F0A0054657374206C01
:1008C6006564204F4646204B4F0A005465737420DA
:1008D60055323620504220204B4F0A00546573741F
:1008E6002055323620504320204B4F0A0054657362
:1008F600742055323920504120204B4F0A00546550
:1009060073742055333820202020204B4F0A005482
:100916006573742055313520202020204B4F0A0066
:100926005072656D65726520756E20746173746FA3
:10093600207065722070726F736567756972652EB7
:020946000A00A5
:0C32A20041020B0042020500000109007F
:1033BF00D297E4F51A051AE51AB4C8F9E4F51A0517
:1033CF001AE51AB4C8F9C2977BFF7A007916021072
:0133DF004CA1
:103400007BFF7A00792112104C9040037490F07B7E
:0F341000FF7A00792F12104C902003748BF0225A
:102B60007BFF7A00793D12104C7BFF7A007940128E
:102B7000104C7BFF7A00796512104C7BFF7A00794C
:102B80004012104C7BFF7A00798A12104C7BFF7A3E
:102B900000798C12104C7BFF7A0079A112104C7BCB
:102BA000FF7A0079C012104C7BFF7A0079D912109D
:102BB0004C7BFF7A0079F212104C7BFF7A0179137B
:102BC00012104C7BFF7A01792E12104C7BFF7A0198
:102BD000794912104C7BFF7A01796412104C7BFF0B
:102BE0007A01797C12104C7BFF7A01799312104C98
:102BF000123464EF24D0F50DE4F549C3E50D64808B
:102C00009480407AE50D6480948A5072E50D120E2E
:102C1000DB2C30012C35022C3A032C3F042C4A05C6
:102C20002C4F062C5A072C65082C700900002C7BB1
:102C30001233BF804912340080441227E2803F12D1
:102C400033BF123400122EEC8034122E49802F1222
:102C500033BF123400121F7080241233BF123400AD
:102C600012316180191233BF1234001221AC800E70
:102C70001233BF1234001229128003754901E5494D
:062C80007003022B60222C
:101F7000E4F5087BFF7A0179A712104C7BFF7A0108
:101F800079D812104CE4904001F0F51A051AE51AC0
:101F9000B4C8F9902002E0543FFF7BFFBF0F0C7ADA
:101FA00002790CE0F55212104C800F7A02792E90D3
:101FB0002002E0F55212104C05087BFF7A02796886
:101FC00012104C123436900213EFF0BF0AF57BFF6B
:101FD0007A02797712104C90400174FFF0E4F51A00
:101FE000051AE51AB4C8F9902002E0543FFF7BFFC0
:101FF000BF300C7A02790CE0F55212104C800F7A47
:102000000279AB902002E0F55212104C05087BFFDC
:102010007A02796812104C123436900213EFF0BF36
:102020000AF590020A7401F0E4900214F090400165
:1020300074FFF0E0FF90020AE0F4FEEF5E904001D2
:10204000F07BFF7A0279D6900214E0FFF5529040BF
:1020500001E0F553EF2402F55412104C902002E0F9
:10206000543FFF90020AE044307BFFB5070F7A022D
:10207000790C902002E0F55212104C800F7A03790F
:1020800015902002E0F55212104C050890020AE06B
:10209000FF25E0F07BFF7A02796812104C1234368B
:1020A000900213EFF0BF0AF5900214E004F0E0C3D1
:1020B0009404500302202D9002147404F090400107
:1020C00074FFF0E0FF90020AE0F4FEEF5E90400142
:1020D000F07BFF7A0279D6900214E0FFF55290402F
:1020E00001E0F553EF2402F55412104C90020AE07F
:1020F000F45430FF902002E0543F7BFFB5070C7A88
:1021000002790CE0F55212104C800F7A0379159089
:102110002002E0F55212104C050890020AE0FF255B
:10212000E0F07BFF7A02796812104C12343690028C
:1021300013EFF0BF0AF5900214E004F0E0C3940638
:1021400050030220BD90400174FFF0E0FF90020AAE
:10215000E0F4FEEF5E904001F07BFF7A03793FE010
:10216000F55275530812104C1233E0EF6002050867
:1021700090020AE025E0F090400174FFF0E0FF904B
:10218000020AE0F4FEEF5E904001F07BFF7A0379F3
:102190007BE0F55275530912104C1233E0EF6002E8
:0C21A0000508E50860037F01227F002293
:10316100E4F54A7BFF7A0379B712104CE4904002F0
:10317100F090020A04F0E4900214F0900214E0FFCF
:10318100C39408502E90020AE0904002F07BFF7A2F
:103191000379CBEF2402F55212104C90020AE0FFA2
:1031A10025E0F01233E0EF254AF54A900214E004DD
:0631B100F080C8AF4A22C5
:1021AC007BFF7A0379EE12104CE4900207F0900258
:1021BC000A04F090C0007480F09020007401F07B51
:1021CC00FF7A04791E12104C904000E0543FFF7BC4
:1021DC00FFBF3F0C7A047952E0F55212104C800F7D
:1021EC007A047974904000E0F55212104C05097B8A
:1021FC00FF7A02796812104C123436900213EFF009
:10220C00BF0AF590C0007480F090200074FEF07B43
:10221C00FF7A04799E12104C904000E0543F7BFFF3
:10222C00700C7A047952E0F55212104C800F7A043B
:10223C007974904000E0F55212104C05097BFF7A3E
:10224C0002796812104C123436900213EFF0BF0A68
:10225C00F590C0007480F090200074FFF0E49002C0
:10226C0014F07BFF7A0479D2F552902000E0F553FC
:10227C00E42402F55412104C1233E0EF600205090D
:10228C0090C0007480F090200074FEF0E490021472
:10229C00F07BFF7A057911F552902000E0F553E4BC
:1022AC002402F55412104C1233E0EF600205099031
:1022BC00020A7402F090021214F0900214F09020B2
:1022CC000074FEF0E0FF90020AE0F4FEEF5E902056
:1022DC0000F07BFF7A0479D2900214E0FFF5529063
:1022EC002000E0F553EF2402F55412104C90021428
:1022FC00E0C394075029900212E0FF904000E07B6D
:10230C00FFB5070C7A047952E0F55212104C800F8D
:10231C007A047974904000E0F55212104C05099043
:10232C00020AE025E0F0900212E0FF25E0F07BFFCE
:10233C007A02796812104C123436900213EFF0BF07
:10234C000AF5900214E004F0E0C394085003022252
:10235C00CA904000E07BFF20E60C7A057951E0F54D
:10236C005212104C800F7A057973904000E0F552B0
:10237C0012104C0509E4900210F0122EEC90021091
:0F238C00EFF0E5097003E060037F01227F00227C
:102EEC00E4F50A900210F07BFF7A05799C12104CE5
:102EFC007BFF7A0579A912104C7BFF7A0279681254
:102F0C00104C123436900213EFF0BF0AF5904000CB
:102F1C00E07BFF30E70C7A0579C3E0F55212104CD8
:102F2C0080107A0579E6904000E0F55212104C754D
:102F3C000A017BFF7A06791112104C7BFF7A027919
:102F4C006812104C123436900213EFF0BF0AF59051
:102F5C004000E07BFF20E70C7A0579C3E0F55212C4
:102F6C00104C80107A0579E6904000E0F552121072
:072F7C004C750A02AF0A22A6
:102912007BFF7A06792C12104CE4F50B90C000F084
:102922007BFF7A06793812104C902001E07BFFB4CD
:10293200FF0C7A067969E0F55212104C800F7A0684
:10294200798B902001E0F55212104C050B7BFF7A37
:1029520002796812104C123436900213EFF0BF0A5B
:10296200F590C00074FFF0FB7A0679B512104C9016
:102972002001E07BFF700C7A067969E0F5521210B3
:102982004C800F7A06798B902001E0F55212104CA0
:10299200050B7BFF7A02796812104C1234369002D2
:1029A20013EFF0BF0AF590020A7401F0E4900214EA
:1029B200F090C00074FFF090020AE0F4FF90C000B3
:1029C200F07BFF7A0679E7900214E0FEC374139E4F
:1029D200F5528F53EE2402F55412104C90020AE085
:1029E200FF902001E07BFFB5070C7A067969E0F5DC
:1029F2005212104C800F7A06798B902001E0F5522A
:102A020012104C050B90020AE0FF25E0F07BFF7AE2
:102A120002796812104C123436900213EFF0BF0A9A
:102A2200F5900214E004F0E0C394084084E50B60E2
:072A3200037F01227F002257
:102E4900E4F50C7BFF7A07792B12104CD293C294CC
:102E5900C295C296D2977BFF7A07794112104C121C
:102E690033E0EF6002050CC293D2947BFF7A0779B5
:102E79006012104C1233E0EF6002050CC294D29537
:102E89007BFF7A07797F12104C1233E0EF6002055D
:102E99000CC295D2967BFF7A07799E12104C123399
:102EA900E0EF6002050CC29690E0007401F07BFF30
:102EB9007A0779BD12104C1233E0EF6002050CE479
:102EC90090E000F0D2977BFF7A0779DC12104CC2B0
:102ED900971233E0EF6002050CE50C60037F0122D5
:032EE9007F002245
:1031B700E4900202F090C00074FFF0E4F51A051ADB
:1031C700E51AB4C8F9E490E000F0C293C294C2953E
:1031D700C296C29790400174FFF0E4A3F0902000DC
:1031E70074FEF07BFF7A00798A12104C7BFF7A0716
:0931F70079FB12104C1233E022A6
:10324900E4900208F090C000F090E00004F0D293FE
:10325900D294D295D296C297E4904001F0A374FF1C
:10326900F0E4902000F07BFF7A00798A12104C7B01
:0C327900FF7A08793812104C1233E02262
:1033E0007BFF7A08796112104C123436123447EFA1
:1033F00064316003BF30E9BF30037F01227F0022C8
:1027E2007BFF7A08797012104CE4900209F07BFFAB
:1027F2007A00798A12104C1233BF123400E490022C
:1028020008F0900202F090020EF090020DF0900299
:102812000FF0900204F0900203F012324990020885
:10282200EFF01231B7900202EFF012316190020E16
:10283200EFF0121F7090020DEFF01221AC90020F18
:10284200EFF0122912900204EFF0122E49900203C7
:10285200EFF07BFF7A00798A12104C900208E07048
:1028620028900202E0702290020DE0701CA3E0703A
:1028720018A3E07014900204E0700E900203E0705E
:10288200087BFF7A08798F806F7BFF7A08799D1227
:10289200104C900208E060097BFF7A0879AF1210B1
:1028A2004C900202E060097BFF7A0879C012104C5A
:1028B20090020DE060097BFF7A0879D112104C90EA
:1028C200020EE060097BFF7A0879E212104C900256
:1028D2000FE060097BFF7A0879F312104C90020432
:1028E200E060097BFF7A09790412104C900203E040
:1028F20060097BFF7A09791512104C7BFF7A0979FE
:102902002612104C123436900213EFF0BF0AF52251
:102C86000A0A526573657420756172740A00636F6F
:102C96006E662075617274205532372040253034B7
:102CA600580A0031202D2075617274205532372D57
:102CB6003E2530326258480A0032202D2075617256
:102CC60074205532372D3E2530326258480A00337B
:102CD600202D2075617274205532372D3E253032F5
:102CE60062580A00636F6E662075617274205533F0
:102CF60030200A000A526963657675746920256278
:102D0600642062797465203A200025303262584882
:102D160020000A000A54583A20307825303262786A
:102D26004820000A5072656D65726520756E2074C4
:102D36006173746F20652076657269666963617276
:102D4600652063686520636F72726973706F6E6465
:102D5600612061207175656C6C6F207269636576A0
:102D660075746F202871207065722075736369729F
:102D760065290A000A54583A2563282530326278B4
:102D8600482920200A000A52582028256264206219
:0E2D9600797465293A002520303262782000D9
:0E32AE00011300011400011600420000000090
:030003000232BD09
:1032BD00C0E0C083C082C0D075D000C006C007C2B8
:1032CD00AF908000E0FFAE14051474022EF582E479
:1032DD003400F583EFF0D2AFD007D006D0D0D08236
:0532ED00D083D0E032A7
:030013000232F2C4
:1032F200C0E0C083C082C0D075D000C007C2AF900A
:103302006000E0FF74022516F582E43401F583EFD4
:10331200F00516D2AFD007D0D0D082D083D0E03221
:10341F00D297E4F51A051AE51AB464F9C2977BFF3F
:07342F007A2C798602104C93
:1032000012341F7E607F007552607553007BFF7A19
:103210002C799412104C906001744FF07BFF7A2C43
:1032200079A9E0F55212104C9060017437F07BFFE1
:103230007A2C79BFE0F55212104C7BFF7A2C79D5AD
:09324000906000E0F55202104C10
:10339B008F4C12341F7BFF7A2C79EA12104CE54CC0
:1033AB00B402047F0180027F00EF444E908001F055
:0433BB007435F02253
:102A3900123200E4F5169060017435F0E4F51A05D8
:102A49001AE51AB4C8F9E4F51A051AE51AB4C8F969
:102A5900E4F51A051AE51AB4C8F9E4F51A051AE5F0
:102A69001AB4C8F9E4F51A051AE51AB4C8F9E4F56F
:102A79001A051AE51AB4C8F9E4F51A051AE51AB4DB
:102A8900C8F9E4F51A051AE51AB4C8F9E4F51A05FE
:102A99001AE51AB4C8F9E4F51A051AE51AB4C8F919
:102AA900E4F51A051AE51AB4C8F9E4F51A051AE5A0
:102AB9001AB4C8F9E4F51A051AE51AB4C8F9E4F51F
:102AC9001A051AE51AB4C8F99060007455F0E4F5CE
:102AD9001A051AE51AB4C8F9E4F51A051AE51AB47B
:102AE900C8F9E4F51A051AE51AB4C8F9E4F51A059E
:102AF9001AE51AB4C8F9E4F51A051AE51AB4C8F9B9
:102B0900E4F51A051AE51AB4C8F9E4F51A051AE53F
:102B19001AB4C8F9E4F51A051AE51AB4C8F9E4F5BE
:102B29001A051AE51AB4C8F9E4F51A051AE51AB42A
:102B3900C8F9E4F51A051AE51AB4C8F9E4F51A054D
:102B49001AE51AB4C8F9E4F51AE51AC394C840039A
:072B5900022A45051A80F273
:1030FF00123200E4F51A051AE51AB4C8F9E4F51608
:10310F009060017435F0E4F51A051AE51AB4C8F9A0
:10311F00E51660FC7BFF7A2C79FAF55212104CE41D
:10312F00F517E517C39516501B7BFF7A2D79107491
:10313F00022517F582E43401F583E0F55212104CA5
:10314F00051780DE7BFF7A2D791812104CE4F516E7
:02315F0080BE30
:101D0100123200E4F51A051AE51AB4C8F990600117
:101D11007437F0E4F51A051AE51AB4C8F9E4F51AAE
:101D2100051AE51AB4C8F9E4F51A051AE51AB4C892
:101D3100F9E4F51A051AE51AB4C8F9E4F51A051A11
:101D4100E51AB4C8F9E4F51A051AE51AB4C8F9E4B4
:101D5100F51A051AE51AB4C8F9E4F51A051AE51ACF
:101D6100B4C8F9E4F51A051AE51AB4C8F9E4F51A84
:101D7100051AE51AB4C8F9E4F51A051AE51AB4C842
:101D8100F9E4F51A051AE51AB4C8F9E4F51A051AC1
:101D9100E51AB4C8F9E4F51A051AE51AB4C8F9E464
:101DA100F51A051AE51AB4C8F9E4F51A051AE51A7F
:101DB100B4C8F9E4F51A051AE51AB4C8F9E4F51A34
:101DC100051AE51AB4C8F9E4F51A051AE51AB4C8F2
:101DD100F9E4F51A051AE51AB4C8F9E4F51A051A71
:101DE100E51AB4C8F9E4F51A051AE51AB4C8F9E414
:101DF100F51A051AE51AB4C8F9E4F51A051AE51A2F
:101E0100B4C8F9E4F51A051AE51AB4C8F9E4F51AE3
:101E1100051AE51AB4C8F9E4F51A051AE51AB4C8A1
:101E2100F9E4F51A051AE51AB4C8F9906000745579
:101E3100F07BFF7A2D791AF55212104CE4F51A0550
:101E41001AE51AB4C8F9E4F51A051AE51AB4C8F97D
:101E5100E4F51A051AE51AB4C8F9E4F51A051AE504
:101E61001AB4C8F9E4F51A051AE51AB4C8F9E4F583
:101E71001A051AE51AB4C8F9E4F51A051AE51AB4EF
:101E8100C8F9E4F51A051AE51AB4C8F9E4F51A0512
:101E91001AE51AB4C8F9E4F51A051AE51AB4C8F92D
:101EA100E4F51A051AE51AB4C8F9E4F51A051AE5B4
:101EB1001AB4C8F9E4F51A051AE51AB4C8F9E4F533
:101EC1001A051AE51AB4C8F9E4F51A051AE51AB49F
:101ED100C8F9E4F51A051AE51AB4C8F9E4F51A05C2
:101EE1001AE51AB4C8F9E4F51A051AE51AB4C8F9DD
:101EF100E4F51A051AE51AB4C8F9E4F51A051AE564
:101F01001AB4C8F9E4F51A051AE51AB4C8F9E4F5E2
:101F11001A051AE51AB4C8F9E4F51A051AE51AB44E
:101F2100C8F9E4F51A051AE51AB4C8F9E4F51A0571
:101F31001AE51AB4C8F9E4F51A051AE51AB4C8F98C
:101F4100E4F51A051AE51AB4C8F9E4F51A051AE513
:101F51001AB4C8F9E4F51A051AE51AB4C8F9E4F592
:0F1F61001AE51AC394C84003021E2C051A80F219
:10300F008F49E4F54A7BFF7A2D792912104CAF498D
:10301F0012339B80591234368F151234478F4BEF72
:10302F006451604F309013908000E515F07BFF7A6C
:10303F002D797AF552F55312104CE51460D77BFFBA
:10304F007A2D798CF55212104CE4F54AE54AC39566
:10305F0014501B7BFF7A2D799C7402254AF582E46C
:10306F003400F583E0F55212104C054A80DEE4F58A
:0C307F001480A27BFF7A2D791802104CFF
:10094800EC4D6011E8497017ED33EC3304600DE4A9
:10095800FCFFFEFD22E933E8330470F8020AC112F5
:100968000A8C58046009E4CC2481500628500902F6
:100978000ACB284003020AC8C0E0EB4A7044B98099
:1009880006D0E0FB020AB7EF4E701CBD8008EBFFF3
:10099800EAFEE9FD80EBE98DF0A4FEE5F0020A31FC
:1009A800E9CDF9EAFEEBFFEF89F0A4FCE5F0CE898A
:1009B800F0A42EFFE435F0CD89F0A42DFEE435F047
:1009C8008067EF4E7005BD80D780C3EF8BF0A4AC75
:1009D800F0EE8BF0A42CFCE435F0F8EF8AF0A42CB0
:1009E800E5F038FCE433CB8DF0A42CFCE5F03BF8C3
:1009F800EE8AF0A42CFCE5F038F8E433CF89F0A4B3
:100A08002CFCE5F038CF3400CE89F0A42FFFE5F0B8
:100A18003EFEE433C98DF0A42EFEE5F039CD8AF010
:100A2800A42FFFE5F03EFEE43DFD33D0E0FB500788
:100A38000BBB000F020ACBEC2CFCEF33FFEE33FEAE
:060A4800ED33FD020AA3DC
:100A4E0075F020800E75F010800575F0087D007E23
:100A5E00007F003392D530D503120EBDEC3340101B
:100A6E00EF33FFEE33FEED33FDEC33FCD5F0ED222C
:0E0A7E00E5F0247EA2D513CC92E7CDCEFF2268
:100FEA00E5662452F8E6056622784F300702785201
:100FFA00E475F001120ECB020E102000EB7F2ED208
:10100A00008018EF540F2490D43440D4FF30040BDE
:10101A00EF24BFB41A0050032461FFE5676002158C
:10102A0067056AE56A7002056930070D784FE4754D
:10103A00F001120ECBEF020E560233747403D2077C
:10104A008003E4C207F5668B4F8A508951E4F5673D
:10105A00F569F56AE56760077F2012102580F57546
:10106A0068FFC201C200C202C203C205C206C208A8
:10107A00120FF3FF700D3007057F00121036AF6AAA
:10108A00AE6922B4255FC2D5C204120FF3FF24D081
:10109A00B40A00501A75F00A786730D50508B6FF09
:1010AA000106C6A426F620D5047002D20380D924EC
:1010BA00CFB41A00EF5004C2E5D204021323D201BE
:1010CA0080C6D20080C0D20280BCD2D580BAD205F6
:1010DA0080B47F201210252002077401B5670040F2
:1010EA00F1120FEAFF12102502105ED208D2068012
:1010FA0095120FEAFB120FEAFA120FEAF94A4B703D
:10110A0006791A7A147BFF20022EE567602A7E0090
:10111A008E82758300120E2960060EEE656870F0E5
:10112A00C2D5EBC0E0EAC0E0E9C0E0EE121383D01A
:10113A00E0F9D0E0FAD0E0FB120E10FF60AAEBC093
:10114A00E0EAC0E0E9C0E0121025D0E02401F9D0BD
:10115A00E03400FAD0E0FBE5680460DCD568D980A9
:10116A0087D20280A212136660F7E5687001041242
:10117A000AD6A968600DE568600914F56812140DAD
:10118A00EF60F3EA30E702F404C3995077EAF425F2
:10119A00680430E701E404F568800D12136660C143
:1011AA00EA05682568120AD6EA7865F630E701E4A6
:1011BA00256804D5680420050114121383E4C0E0ED
:1011CA0012140D7865E6601320E70714F612100D65
:1011DA00802204F6D0E014C0E07F0012100DE5680A
:1011EA0060071210041568800B300503121004D032
:1011FA00E002105ED0E00480C512136660A0E568C4
:10120A0004120AD67865EAF6E56820050260010448
:05121A002404121383FF
:10121F0074FF04C0E012140D12100DE568200502D2
:10122F006003121004D0E0B568E87F4512101778FC
:10123F0065E67F2B30E7047F2DF404C0E012102504
:10124F00D0E075F00A84C0F012100ED0E012100E2C
:10125F0002105E791080027908C206C2088008D297
:10126F00D5790A8004790AC2D5E568047002F56859
:10127F00E4FAFDFEFF120FEAFC7B08200113120FA8
:10128F00EAFD7B1030000A120FEAFE120FEAFF7B15
:10129F0020EC3382D592D55013C3E43000069FFF64
:1012AF00E49EFEE42001039DFDE49CFCE4CBF8C228
:1012BF0001EC700CCFCECDCCE824F8F870F380178A
:1012CF00C3EF33FFEE33FEED33FDEC33FCEB33FBBB
:1012DF00994002FB0FD8E9EB300105F8D0E0C44884
:1012EF00B201C0E00AEC4D4E4F78207B0070C2EA8D
:1012FF00B5680040BCC0E0121385D0F0D0E02001EB
:10130F0004C4C0E0C4B201C0F012100ED0F0D5F08A
:10131F00EB02105E120EDB10FB5312625810CC4C16
:10132F0010C84212664F126E44126E4910E14312FA
:10133F00745511A546120345116F47143A5010D03A
:10134F002D10D42E10F72B10D82310F52014232A8C
:10135F00109048000010EFE568B4FF03756806129F
:10136F000FEAFC120FEAFD120FEAFE120FEAFF78E6
:10137F005E020B05790AA2D5200314300509B910B6
:10138F00020404B9080104A2D5200602500104206A
:10139F0002689202B567005034C0E07F2030031915
:1013AF007F30A20272067205500F1213DCC202C206
:1013BF0006C205C2087F30800F300503E9C0E01276
:1013CF001025300503D0E0F9D0E0B567CC30051714
:1013DF007F30B9100C1210257F583004077F7880AA
:1013EF0003B908031210253002057F2D0210257F47
:1013FF00202008F87F2B2006F322920280CF7F0057
:10140F00B407005005245EF8E6FF22286E756C6C59
:10141F002900D201120FEA3001F8C201786730D5E6
:10142F000108F60210902D50434958120FEA240379
:10143F00B405004001E490143593121016743A125B
:0A144F001016D20375670402126242
:100A8C00E9D2E7C933E833F892D5EDD2E7CD33ECB0
:070A9C0033FC5002B2D52229
:100AA300EC30E7100FBF000C0EBE00080DBD0004B4
:100AB3000BEB6014A2D5EB13FCED92E7FD2274FF60
:100AC300FCFDFEFF22E480F8A2D574FF13FC7D80B9
:030AD300E480EFCD
:100AD600F920E72824F950037907E4F42402FB18E7
:100AE600DBFDE624FB5014E9600DE4F618E604F697
:0F0AF600B40A08E4F6D9F57401F60A22C2D52233
:100B0500ED33EC3392D5FA602AB4FF33EDC2E77BBF
:100B1500FF60067A0B792AE4227A0B793320D50413
:100B25007A0B792E224E614E002B494E46002D49F7
:100B35004E4600E47A08F608DAFC7B00740722E8E2
:100B4500C0E0ECC0E0EDC0E0EEC0E0EFC0E0EA756B
:100B5500F010A4CAABF075F04DA42BFBE435F0FC06
:100B6500EA2410FAEB34C5FBEC34D9FCEDC2E7FFFF
:100B750075F056A4F42411C5F0F434C58FF0A42AF9
:100B8500E5F03BE43CF620E714120DD0D0E0FFD0B1
:100B9500E0FED0E0FDD0E0FC120D038014F4041259
:100BA5000DD0D0E0FFD0E0FED0E0FDD0E0FC120992
:100BB50048D0E0F8E6FAEDD2E7CD33EC332482FBFA
:100BC500E4C3CF33CFCE33CECD33CD33DBF37B0789
:100BD50075F00A846004F6081B0AE5F0F6088FF044
:100BE500740AA4FFACF08EF0740AA42CFEACF0508D
:100BF500010C8DF0740AA42CFDE435F0F608DBDE5B
:030C05007407224F
:100C0800020AC1E86480F8E933E83360110460F04F
:100C1800ED33EC337009E8FCE9FDEAFEEBFF220452
:100C280060DED3EB9FEA9EE99DE8C2E78CF0C2F74D
:100C380095F0400CE8CCF8E9CDF9EACEFAEBCFFB19
:100C4800120A8C85D0F05804700320D5B3E80470DC
:100C5800075002B2D5020ACB92D5EC0460F7E4CC77
:100C6800C0E0C398F8603B94186008400DD0E0FBE2
:100C7800020AA3E4FBFAC9FC8028E830E406E4C9C8
:100C8800FBE4CAFCE830E305E4C9CACBFCE8540736
:100C98006010F8C3E913F9EA13FAEB13FBEC13FC41
:100CA800D8F130F52FC3E49CFCEF9BFFEE9AFEEDE4
:100CB80099FDD0E0FBEF4E4D4C701222DB03020A87
:100CC800C8EC2CFCEF33FFEE33FEED33FDED30E7DF
:100CD800EB020AA3EF2BFFEE3AFEED39FDD0E0FB65
:100CE80050130BBB0003020ACBED13FDEE13FEEF0E
:080CF80013FFEC13FC020AA338
:100D0000020ACBEC5D046005E859047003020AC1D5
:100D1000120A8C580460F6EC4860F2EC7004FDFE98
:100D2000FF22C860DB2481C85009C39860025006C6
:100D3000020AC89850CAF582E9294B4A7005AB826D
:100D4000020AB775F0007C1A7880C3EF9BEE9AED2B
:100D500099400DC3EF9BFFEE9AFEED99FDE842F03E
:100D6000DC23ACF0D0E0FFD0E0FED0E0FDAB822091
:100D7000E7101BEB60BAEC2CFCEF33FFEE33FEED1B
:100D800033FD020AA3E803F830E705C0F075F00070
:100D9000EF2FFFEE33FEED33FD40B830E7C280AAFF
:100DA0003F8000004120000042C80000447A00005B
:100DB000461C400047C35000497424004B189680DD
:100DC0004CBEBC205A0E1BCA6753C21C749DC5AED4
:100DD000FB60065407601C2323120DFEEB543860A1
:100DE00009120DEA120DF9120948ECF8EDF9EEFAC4
:100DF000EFCB22EB120DF980F1543803241C900D37
:100E0000A0FE93FC0EEE93FD0EEE930ECE93FF220A
:03000000022F8349
:0C2F8300787FE4F6D8FD75816A022FCA41
:100E1000BB010689828A83E0225002E722BBFE02E0
:090E2000E32289828A83E4932213
:100E2900BB010CE58229F582E5833AF583E022507E
:100E390006E92582F8E622BBFE06E92582F8E222C8
:0D0E4900E58229F582E5833AF583E49322E2
:100E5600BB010689828A83F0225002F722BBFE017B
:020E6600F32275
:100E6800BC000BBE0029EF8DF084FFADF022E4CC6E
:100E7800F875F008EF2FFFEE33FEEC33FCEE9DEC37
:100E8800984005FCEE9DFE0FD5F0E9E4CEFD22ED7D
:100E9800F8F5F0EE8420D21CFEADF075F008EF2FC7
:100EA800FFED33FD4007985006D5F0F222C398FDB8
:050EB8000FD5F0EA2255
:0E0EBD00C3E49FFFE49EFEE49DFDE49CFC2246
:100ECB00FAE6FB0808E6F925F0F618E6CA3AF62228
:100EDB00D083D082F8E4937012740193700DA3A3A6
:100EEB0093F8740193F5828883E4737402936860BA
:060EFB00EFA3A3A380DFBA
:10337400EFB40A07740D12337F740A309811A899B8
:10338400B8130CC2983098FDA899C298B811F630B9
:0733940099FDC299F5992291
:0A3464003098FDAF99C2987E002257
:1034360010090B123464BF0D027F0A023374AF1BEE
:013446002263
:10344700EFC39461400AEF947B5005EF24E0FF221D
:013457002252
:0C345800EE30E707C3E49FFFE49EFE2275
:100F0100E709F60870FA8046E709F20870FA803EB0
:100F110088828C83E709F0A370FA807EE309F608E2
:100F210070FA8076E309F20870FA806E88828C8309
:100F3100E309F0A370FA806289828A83E0A3F6084C
:100F410070FA805689828A83E0A3F20870FA804A97
:100F510080D280FA80C680D4806580F28031801092
:100F610080A680EA809A80A880DA80E280CA8031F7
:100F710089828A83ECFAE493A3C8C582C8CCC5836D
:100F8100CCF0A3C8C582C8CCC583CC70E9800D89DB
:100F9100828A83E493A3F60870F9ECFAA9F0EDFBD9
:100FA1002289828A83ECFAE0A3C8C582C8CCC583B2
:100FB100CCF0A3C8C582C8CCC583CC70EA80DD89DA
:100FC100828A83E493A3F20870F980CE88F0ED243D
:100FD10002B4040050C4F582EB2402B4040050BAF8
:090FE1002323458223900F517374
:102F8F0002308BE493A3F8E493A34003F68001F29D
:102F9F0008DFF48029E493A3F85407240CC8C33343
:102FAF00C4540F4420C8834004F456800146F6DF12
:102FBF00E4800B0102040810204080903285E47EEB
:102FCF00019360BCA3FF543F30E509541FFEE49307
:102FDF00A360010ECF54C025E060A840B8E493A3CE
:102FEF00FAE493A3F8E493A3C8C582C8CAC583CAF9
:102FFF00F0A3C8C582C8CAC583CADFE9DEE780BEB1
:0132BC000011
:00000001FF
