:10248A000A0A002A2A2A2A2A2A2A2A2A2A2A2A2A0C
:10249A002A2A2A2A2A2A2A2A2A2A2A2A2A2A2A2A92
:1024AA002A2A2A2A2A2A0A002A202020436F6C6C08
:1024BA006175646F207363686564612043505520B9
:1024CA00524556494E44202020202A0A002A20201C
:1024DA00207377207665722E20746573747265771F
:1024EA0020312E3020202020202020202020202AA9
:1024FA000A00092031202D20746573742052414D41
:10250A000A00092032202D20746573742041444347
:10251A000A00092033202D207465737420492F4F37
:10252A002050726F67720A00092034202D207465CA
:10253A00737420554152545F5532370A00092035C9
:10254A00202D207465737420554152545F553330E1
:10255A0020287072657363616C6572207831362940
:10256A000A00092036202D207465737420554152C3
:10257A00545F55333020287072657363616C6572DD
:10258A0020783634290A0A000A0A202020202053FB
:10259A0063656C746120746573743A20000A20457F
:1025AA0043484F2073752055323720617474697619
:0425BA006F200A0084
:042F3500026F000027
:03000B00022FC9F8
:102FC900C0E0C0D075D000C000C28CC2AFA2B5B3FA
:102FD90092B5787006E618700106758C4B758AFFF4
:0B2FE900D28CD2AFD000D0D0D0E032AC
:0830D200786FE6FE08E6FF221C
:102FF400759852758921758DFD858D8B758C4B75F2
:103004008AFF75B802D288D28A75A887D2A9D28CD1
:07301400D28ED299C2B42252
:1029DE007BFF7A24798A12105E7BFF7A24798D121E
:1029EE00105E7BFF7A2479B212105E7BFF7A247917
:1029FE00D712105E7BFF7A24798D12105E7BFF7AE0
:102A0E0024798A12105E7BFF7A2479FC12105E7B89
:102A1E00FF7A25790C12105E7BFF7A25791C121035
:102A2E005E7BFF7A25793212105E7BFF7A2579471D
:102A3E0012105E7BFF7A25796C12105E7BFF7A2571
:102A4E00799212105E1230C8EF24D0F51DD3648037
:102A5E009480400DE51D6480948750057569018052
:0B2A6E0003E4F569E56970030229DE4E
:012A7900223A
:102F6800122FF4C2B5E4F51F051FE51FB4C8F9E434
:102F7800F51F051FE51FB4C8F9E4F51F051FE51F78
:102F8800B4C8F97BFF7A2579A712105E122A7A80D5
:012F9800FB3D
:10233C000A546573742052414D2045535445524EF6
:10234C00412028307830303030202E2E203078311B
:10235C00464646290A0A00577269746520706174F2
:10236C007465726E2030784141353520200A00406A
:10237C0025303458200D000A566572696679206143
:10238C0074200A0025303458200D007465737420B5
:10239C0052414D204B4F202530345820402072653F
:1023AC00616420253034780A000A577269746520FC
:1023BC007061747465726E203078353541412061DE
:1023CC0074200A00746573742052414D204B4F20C9
:1023DC00256C582040207265616420253034780AC1
:1023EC00000A5465737420312D7368696674696EC4
:1023FC0067206F6E2041302E2E413132200A00258D
:10240C003034582028307830303030292000202EBD
:10241C002E6F6B0A002E2E4B4F20256C780A002550
:10242C00303458202028412562642920002E2E4B60
:10243C004F2025750A00546573742052414D204F6E
:10244C004B0A00546573742052414D204B4F20654C
:10245C0072726F7220202562640A005072656D657D
:10246C00726520756E20746173746F2070657220B4
:0E247C0070726F736567756972652E0D0A00C8
:092F39000116000117000115004A
:10171C007BFF7A23793C12105E7BFF7A237963126C
:10172C00105EE4F515F513F514AE13AF14C3EF9476
:10173C00FFEE941F502D8E0E8F0F7BFF7A23797B3B
:10174C00850E4A850F4B12105E85148285138374A7
:10175C00AAF0A37455F074022514F514E43513F5AE
:10176C001380C67BFF7A23798312105EE4F513F5A0
:10177C0014AE13AF14C3EF94FFEE941F504F8E0EA4
:10178C008F0F7BFF7A237990850E4A850F4B1210B1
:10179C005E851482851383E0FEA3E0FF645570031D
:1017AC00EE64AA601B754A0185134B85144C8E4D53
:1017BC008F4E7BFF7A23799712105E751501800D81
:1017CC0074022514F514E43513F51380A47BFF7A09
:1017DC002379B512105EE4F513F514AE13AF14C3F0
:1017EC00EF94FFEE941F502D8E0E8F0F7BFF7A23FC
:1017FC007990850E4A850F4B12105E8514828513E5
:10180C00837455F0A374AAF074022514F514E4350E
:10181C0013F51380C67BFF7A23798312105EE4F5EF
:10182C0013F514AE13AF14C3EF94FFEE941F504F87
:10183C008E0E8F0F7BFF7A237990850E4A850F4B86
:10184C0012105E851482851383E0FEA3E0FF64AA68
:10185C007003EE6455601B754A0185134B85144C5F
:10186C008E4D8F4E7BFF7A2379D012105E75150248
:10187C00800D74022514F514E43513F51380A47B44
:10188C00FF7A2379ED12105EE4F513F514851482BA
:10189C0085138374AAF0A37455F07BFF7A24790B1B
:1018AC0085134A85144B12105E851482851383E0D0
:1018BC00FEA3E0FFBEAA0EBF550B7BFF7A24791A5C
:1018CC0012105E80197BFF7A24792185148285138E
:1018DC0083E0F54AA3E0F54B12105E751503E4F5B1
:1018EC00160516E516B4FFF9E4F517F51375140192
:1018FC00F510751101C3E51094205079AE13AF1497
:10190C008E0E8F0F7BFF7A24792B8E4A8F4BAF175D
:10191C0005178F4C12105E85148285138374AAF000
:10192C00A37455F0E4F5160516E516B4FFF9851405
:10193C0082851383E0FEA3E0FFBEAA0EBF550B7B8E
:10194C00FF7A24791A12105E80197BFF7A24793978
:10195C00851482851383E0F54AA3E0F54B12105EE3
:10196C00751503E51125E0F511E51033F510F513A8
:10197C008511148080E5157BFF70067A24794280EE
:10198C00077A24794F85154A12105E7BFF7A2479E9
:0C199C006712105E12309A8F12BF0AF81A
:0119A800221C
:10146B0063683A202562642020200073616D706CE4
:10147B0065206EB020256264202020006C6574749A
:10148B007572613A203078256258202825312E322A
:10149B006620566F6C7429200A0063683A20256217
:1014AB006420206C65747475726120307825582027
:1014BB0020202825312E326620566F6C74290A00A5
:1014CB004F4B004B4F00457369746F2074657374F9
:1014DB0020636820494E256264203D2030782530FA
:1014EB0032582020206C6574747572613A20253156
:1014FB002E326656202056616C2061747465736FB2
:10150B003A2025312E326656202020200065736943
:10151B00746F3A2025730A000A0A2A2A2A2A2A20DB
:10152B0020546573742041444320202A2A2A2A2AF6
:10153B002020200A0A000A506F73697A696F6E6166
:10154B007265206C6F2073776974636820616C20FF
:10155B0063656E74726F2065207665726966696368
:10156B00617265206368652069206C656420533166
:10157B002065205332207369616E6F207370656E26
:10158B0074690A005072656D65726520494E564943
:10159B004F207065722070726F7365677569726525
:1015AB00200A000A546573742063616E616C6520B8
:1015BB00494E300A000A546573742063616E616C86
:1015CB006520494E310A000A546573742063616EBD
:1015DB00616C6520494E320A000A546573742049C8
:1015EB004E2562640A00506F73697A696F6E61727F
:1015FB0065206C6F20737769746368207375204E58
:10160B004F49534531206520766572696669636180
:10161B00726520636B6520696C206C6564205331A7
:10162B00207369612061636365736F202874657330
:10163B007420494E256264290A00506F73697A69D8
:10164B006F6E617265206C6F2073776974636820AD
:10165B007375204E4F4953453120287465737420A0
:10166B00494E256264290A00506F73697A696F6E5F
:10167B00617265206C6F2073776974636820737572
:10168B00204E4F4953453220652076657269666955
:10169B006361726520636B6520696C206C656420E7
:1016AB005332207369612061636365736F20287403
:1016BB0065737420494E256264290A00526965706E
:1016CB00696C6F676F2074657374204144430A0023
:1016DB005465737420494E256264203D2030782573
:1016EB003032582020206C6574747572613A202555
:1016FB00312E326656202056616C206174746573EE
:10170B006F3A2025312E32665620202020000A0AFF
:01171B0000CD
:102F4200082AB05B598E84B5000001430001440099
:0421B7008F638D6441
:1021BB00EF25E02433F8E4F608F6F565752501E420
:1021CB002563FFE434A0F5268F278F82F583747F78
:1021DB00F03092FD852782852683E0F5457BFF7ADB
:1021EB0014796B85634A12105E7BFF7A14797685BE
:1021FB00254A12105E852782852683E0FCF54AE48A
:10220B00120A6A7B2E7A9079A0783C12095A8F4E6B
:10221B008E4D8D4C8C4B7BFF7A14798712105E851B
:10222B002782852683E0FFE56325E02433F808EF5A
:10223B0026F618E436F60525E525D3940A4080E505
:10224B006325E02433F8C000E6FE08E6FF7C007D42
:10225B000A120E7AD000A60608A60785634AE56324
:10226B0025E02433F8E6FC08E6FD8C4BF54CE41234
:10227B000A657B2E7A9079A0783C12095A8F508E82
:10228B004F8D4E8C4D7BFF7A1479A512105EE56352
:10229B0025E02433F8E6FC08E6C39564FFEC9400D4
:1022AB00FE1230BCD3EF940DEE6480948078227CC8
:1022BB00007D007BFF500C7A1479CB120FDFE4F515
:1022CB0065800A7A1479CE120FDF75650185634A32
:1022DB00E56325E02433F8E6FC08E6FD8C4BF54C72
:1022EB00E4120A657B2E7A9079A0783C12095A8FFA
:1022FB00508E4F8D4E8C4DE564FD7C00E4120A65CB
:10230B007B2E7A9079A0783C12095A8F548E538D7C
:10231B00528C517BFF7A1479D112105E754A00757D
:10232B004B00754C227BFF7A15791812105EAF6546
:01233B00227F
:1019A900E4F543E54325E02414F582E43402F583A4
:1019B900E4F0A3F00543E543B408E87BFF7A157921
:1019C9002312105E7BFF7A15794112105E7BFF7A34
:1019D90015798F12105E12309A8F32BF0AF87BFF89
:1019E9007A1579AE12105EE4FDFF1221B77E0090E0
:1019F9000214EEF0A3EFF0600AE025E0F090021483
:101A0900E033F07BFF7A15798F12105E12309A8FCE
:101A190032BF0AF87BFF7A1579C012105EE4FD7FA8
:101A2900011221B77E00900216EEF0A3EFF0600AD2
:101A3900E025E0F0900216E033F07BFF7A15798F0C
:101A490012105E12309A8F32BF0AF87BFF7A15792D
:101A5900D212105EE4FD7F021221B77E00900218B7
:101A6900EEF0A3EFF0600AE025E0F0900218E03311
:101A7900F07BFF7A15798F12105E12309A8F32BF80
:101A89000AF8E4F5437BFF7A1579E485434A121095
:101A99005EE543700B7BFF7A1579F185434A801C1B
:101AA900E543B4010A7BFF7A167945F54A800DE5CD
:101AB90043B4020B7BFF7A167973F54A12105E7BE9
:101AC900FF7A15798F12105E12309A8F32BF0AF899
:101AD900E54325E02414F582E43402F583C083C08C
:101AE90082E0FEA3E0FFC007C006742A2543F8E69A
:101AF900FDAF431221B7EFFDD0E0FFD0E04DD0821A
:101B0900D083CFF0A3EFF07BFF7A15798F12105EA7
:101B190012309A8F32BF0AF80543E543C39408503F
:101B290003021A8E7BFF7A1679C712105EE4F54319
:101B3900742A2543F8E6FFE54325E02433F8E6FC5B
:101B490008E6C39FFFEC9400FE1230BCD3EF940D5E
:101B5900EE648094805020E54325E02414F582E466
:101B69003402F583A3E020E10E78227C007D007B1E
:101B7900FF7A1479CB800C78227C007D007BFF7A78
:101B89001479CE120FDF85434AE54325E02433F863
:101B9900E6FC08E6FD8C4BF54CE4120A657B2E7ACF
:101BA9009079A0783C12095A8F508E4F8D4E8C4DEA
:101BB900742A2543F8E6FD7C00E4120A657B2E7A37
:101BC9009079A0783C12095A8F548E538D528C51BA
:101BD9007BFF7A1679DB12105E754A00754B00752A
:101BE9004C227BFF7A15791812105E0543E543C331
:101BF90094085003021B3912309A7BFF7A1779191E
:031C090002105E68
:1000160052657365742050494F0A00434F4E46207F
:1000260050494F205532362000204F4B0A00202AD7
:100036004B4F2A2028256278290A00434F4E462036
:1000460050494F2055323920000A0A002A2A2A2A06
:100056002A2A2A2A2A2A2A2A2A2A2A2A2A2A2A2AFA
:100066002A2A2A2A2A2A2A2A2A2A2A2A2A2A2A0A0A
:10007600002A2020207363656C7461207465737494
:100086002050494F202020202020202020202020E2
:100096002020202A0A000A00092031202D20636F23
:1000A6006D616E646F2072657365740A0009203293
:1000B600202D20636F6E6669677572617A696F6E4F
:1000C600652072656769737472690A0009203320B6
:1000D6002D207465737420492F4F20636F6D706CEB
:1000E60065746F0A00092034202D2074657374200E
:1000F6006C65747475726120535731200A000920AB
:1001060035202D20746573742070696C6F74616777
:1001160067696F2072656CE820553135200A000941
:100126002036202D2074657374206F757470757475
:1001360020553236205042200A00092037202D2033
:1001460074657374206F757470757420553236201B
:100156005043200A00092038202D2074657374202E
:100166006F757470757420553239205041200A001D
:10017600092039202D2074657374206F757470758D
:100186007420553338200A00092030202D206D6553
:100196006E75207072696E636970616C650A000A1B
:1001A60020202020205363656C746120746573746D
:1001B6003A20000A0A544553542055323620706FAF
:1001C600727461204220636F6E2072696C6574746C
:1001D6007572612073752055323920706F727461A3
:1001E60020430A000A566572696669636172652072
:1001F600616363656E73696F6E6520646569206C03
:100206006564205531332028553236205042203D32
:100216002030304829200A0072696C657474757242
:1002260061207375205532392E5043204F4B2028BC
:1002360030782530326278290A0021212120455262
:10024600524154412072696C6574747572612073F1
:1002560075205532392E50432020283078253032EB
:10026600627820696E76656365206469203078302F
:1002760046290A007072656D69203C494E56494F01
:100286003E0A000A56657269666963617265207383
:100296007065676E696D656E746F20646569206C44
:1002A6006564205531332028553236205042203D92
:1002B60020464648290A0021212120455252415410
:1002C600412072696C65747475726120737520556E
:1002D60032392E5043202028307825303262782952
:1002E6000A000A54657374205532362E5042256230
:1002F6006420283078253032627829202D205665F2
:10030600726966696361726520616363656E7369AC
:100316006F6E6520553133206C6564202562640A52
:1003260000212121204552524154412072696C65B9
:100336007474757261207375205532392E504320BE
:100346002830782530326278290A000A5465737499
:10035600205532362E5042362028307825303262EB
:1003660078292D2056657269666963617265206118
:100376006363656E73696F6E6520553133206C65F6
:1003860064202562640A000A546573742055323667
:100396002E504237202830782530326278292D2099
:1003A6005665726966696361726520616363656E2D
:1003B60073696F6E6520553133206C656420256244
:1003C600640A000A0A544553542055323620706F89
:1003D60072746120430A000A566572696669636130
:1003E600726520616363656E73696F6E6520553152
:1003F60032206C656420256264000A5445535420FB
:1004060055323920706F727461204120636F6E20FF
:1004160072696C6574747572612073752055323615
:1004260020706F72746120410A000A56657269660F
:10043600696361726520616363656E73696F6E657A
:1004460020646569206C6564205531342028553256
:1004560039205041203D2030314829200A00726958
:100466006C657474757261207375205532362E5022
:1004760041204F4B202830782530326278290A00F7
:10048600212121204552524154412072696C6574E4
:1004960074757261207375205532362E50412028AE
:1004A60030782530326278290A000A566572696604
:1004B600696361726520737065676E696D656E74D8
:1004C6006F20646569206C65642055313420285599
:1004D6003239205041203D20464548290A000A5419
:1004E600657374205532392E5041256264202830B8
:1004F60078253032627829202D2056657269666922
:100506006361726520616363656E73696F6E6520F2
:10051600553134206C6564202562640A000A5465EE
:100526007374205532392E50412562642028307864
:10053600253032627829202D2056657269666963F6
:1005460061726520737065676E696D656E746F2084
:10055600553134206C6564202562640A006C65742C
:10056600747572612070696E205532362E50413690
:10057600204F4B202830782530326278290A002116
:10058600212120455252415441206C657474757284
:1005960061207375205532362E504136202830782A
:1005A6002530326278290A000A0A5445535420201D
:1005B6005357310A000A506F73697A696F6E617218
:1005C6006520535731207375204F4E2065200072E9
:1005D600696C657474757261207375205532362E98
:1005E600504137204F4B2028307825303262782909
:1005F6000A00212121204552524154412072696C42
:10060600657474757261207375205532362E5041AB
:1006160037202830782530326278290A000A506F50
:1006260073697A696F6E61726520535731207375ED
:10063600204F4646206520000A0A5445535420554B
:1006460033380A00566572696669636172652061AE
:100656006363656E73696F6E6520646569206C659A
:1006660064205531352028553338203D20307830E8
:100676003029200A0072696C657474757261207382
:1006860075205532392E5042204F4B202830782580
:1006960030326278290A00212121204552524154E4
:1006A600412072696C65747475726120737520558A
:1006B60032392E5042202830782530326278290A85
:1006C6000056657269666963617265207370656755
:1006D6006E696D656E746F20646569206C65642053
:1006E6005531352028553338203D20307866662927
:1006F600200A0054657374205533382E50256264E1
:1007060020283078253032627829202D20566572CF
:100716006966696361726520616363656E73696F9B
:100726006E65207375205531352064656C204C4507
:1007360044202562640A000A0A5445535420553160
:100746003520706F727461205031200A000A566598
:1007560072696669636120616363656E73696F6E52
:100766006520553131206C65642032000A56657269
:10077600696669636120616363656E73696F6E653F
:1007860020553131206C65642033000A5665726944
:100796006669636120616363656E73696F6E652068
:1007A600553131206C65642034000A5665726966DD
:1007B60069636120616363656E73696F6E65205559
:1007C6003131206C65642035000A566572696669A8
:1007D600636120616363656E73696F6E6520553171
:1007E60031206C65642036000A5665726966696355
:1007F6006120616363656E73696F6E652055313183
:10080600206C65642037005665726966696361729B
:1008160065206368652074757474692069206C6549
:1008260064207369616E6F207370656E74692074DD
:1008360072616E6E65206C65642037206469205590
:1008460031310A00566572696669636172652063B3
:1008560068652074757474692069206C65642073FA
:1008660069616E6F206163636573690A000A2831E6
:100876003D304B20303D4B4F20293A000A0A2A2AA8
:100886002A2A2A20205465737420492F4F202020BD
:100896002A2A2A2A2A2020200A0A000A5465737462
:1008A60020492F4F204F4B0A000A54657374204984
:1008B6002F4F204B4F202121200A005465737420AE
:1008C6006C6564204F4E20204B4F0A0054657374AC
:1008D600206C6564204F4646204B4F0A00546573D2
:1008E600742055323620504220204B4F0A00546562
:1008F60073742055323620504320204B4F0A005443
:100906006573742055323920504120204B4F0A0020
:10091600546573742055333820202020204B4F0A0D
:1009260000546573742055313520202020204B4F0C
:100936000A005072656D65726520756E207461736C
:10094600746F207065722070726F73656775697257
:04095600652E0A0000
:0C2F5200410209004202030000010900D6
:10304200D297E4F51F051FE51FB4C8F9E4F51F0583
:103052001FE51FB4C8F9C2977BFF7A0079160210E8
:013062005E0F
:102D85007BFF7A00792112105E9040037490F0E089
:102D9500F4FF7BFFBF90067A00792F800B7A0079CC
:102DA50034904003E0F4F54A12105E7BFF7A007917
:102DB5004112105E902003748BF0E0F4FF7BFFBF9F
:102DC5008B067A00792F800B7A007934902003E006
:072DD500F4F54A12105E2222
:102815007BFF7A00794F12105E7BFF7A00795212A6
:10282500105E7BFF7A00797712105E7BFF7A007964
:102835005212105E7BFF7A00799C12105E7BFF7A44
:1028450000799E12105E7BFF7A0079B312105E7BD1
:10285500FF7A0079D212105E7BFF7A0079EB1210B5
:102865005E7BFF7A01790412105E7BFF7A01792580
:1028750012105E7BFF7A01794012105E7BFF7A01B0
:10288500795B12105E7BFF7A01797612105E7BFF11
:102895007A01798E12105E7BFF7A0179A512105E9E
:1028A5001230C8EF24D0F50DE4F56AC3E50D648058
:1028B5009480407AE50D6480948A5072E50D120E7D
:1028C500ED28E50128EA0228EF0328F40428FF058E
:1028D500290406290F07291A082925090000293086
:1028E5001230428049122D8580441225BE803F1248
:1028F5003042122D85122B14803412293B802F1261
:102905003042122D85121C0C8024123042122D8566
:10291500122DDC8019123042122D85121E41800EB7
:10292500123042122D851226EE8003756A01E56A82
:052935007003022815EB
:01293A00227A
:101C0C00E4F5087BFF7A0179B912105E7BFF7A014B
:101C1C0079EA12105EE4904001F0F51F051FE51FF4
:101C2C00B4C8F9902002E0543FFF7BFFBF0F0C7A41
:101C3C0002791EE0F54A12105E800F7A027940900C
:101C4C002002E0F54A12105E05087BFF7A02797AD1
:101C5C0012105E12309A900211EFF0BF0AF57BFF62
:101C6C007A02798912105E90400174FFF0E4F51F3E
:101C7C00051FE51FB4C8F9902002E0543FFF7BFF1D
:101C8C00BF300C7A02791EE0F54A12105E800F7A92
:101C9C000279BD902002E0F54A12105E05087BFF28
:101CAC007A02797A12105E12309A900211EFF0BF1C
:101CBC000AF59002087401F0E4900212F0904001D1
:101CCC0074FFF0E0FF900208E0F4FEEF5E9040013C
:101CDC00F07BFF7A0279E8900212E0FFF54A90401F
:101CEC0001E0F54BEF2402F54C12105E900208E077
:101CFC004430FF902002E07BFFB5070C7A02791E7E
:101D0C00E0F54A12105E800F7A037927902002E0EA
:101D1C00F54A12105E0508900208E0FF25E0F07B02
:101D2C00FF7A02797A12105E12309A900211EFF05B
:101D3C00BF0AF5900212E004F0E0C39404500302D1
:101D4C001CC99002127404F090400174FFF0E0FF83
:101D5C00900208E0F4FEEF5E904001F07BFF7A0207
:101D6C0079E8900212E0FFF54A904001E0F54BEF64
:101D7C002402F54C12105E900208E0F45430FF90EF
:101D8C002002E07BFFB5070C7A02791EE0F54A12BF
:101D9C00105E800F7A037927902002E0F54A12102A
:101DAC005E0508900208E0FF25E0F07BFF7A0279DF
:101DBC007A12105E12309A900211EFF0BF0AF59071
:101DCC000212E004F0E0C394065003021D5490404C
:101DDC000174FFF0E0FF900208E0F4FEEF5E90402B
:101DEC0001F07BFF7A037951E0F54A754B0812102C
:101DFC005E123063EF60020508900208E025E0F007
:101E0C0090400174FFF0E0FF900208E0F4FEEF5EFA
:101E1C00904001F07BFF7A03798DE0F54A754B0910
:101E2C0012105E123063EF60020508E50860037F54
:041E3C0001227F0000
:011E4000227F
:102DDC00E4F56B7BFF7A0379C912105EE490400234
:102DEC00F090020804F0E4900212F0900212E0FF5E
:102DFC00C39408502E900208E0904002F07BFF7ABA
:102E0C000379DDEF2402F54A12105E900208E0FF10
:102E1C0025E0F0123063EF256BF56B900212E004A5
:052E2C00F080C8AF6B4F
:012E3100227E
:101E41007BFF7A04790012105EE4900205F09002A3
:101E51000804F090C0007480F09020007401F07BC1
:101E6100FF7A04793012105E904000E0543FFF7B0E
:101E7100FFBF3F0C7A047964E0F54A12105E800FCF
:101E81007A047986904000E0F54A12105E05097BDC
:101E9100FF7A02797A12105E12309A900211EFF0F5
:101EA100BF0AF590C0007480F090200074FEF07BB2
:101EB100FF7A0479B012105E904000E0543F7BFF3E
:101EC100700C7A047964E0F54A12105E800F7A048E
:101ED1007986904000E0F54A12105E05097BFF7A91
:101EE10002797A12105E12309A900211EFF0BF0A55
:101EF100F590C0007480F090200074FFF0E490022F
:101F010012F07BFF7A0479E4F54A902000E0F54B6A
:101F1100E42402F54C12105E123063EF60020509F1
:101F210090C0007480F090200074FEF0E4900212E2
:101F3100F07BFF7A057923F54A902000E0F54BE428
:101F41002402F54C12105E123063EF600205099015
:101F510002087402F090021014F0900212F0902026
:101F61000074FEF0E0FF900208E0F4FEEF5E9020C6
:101F710000F07BFF7A0479E4900212E0FFF54A90C9
:101F81002000E0F54BEF2402F54C12105E90021296
:101F9100E0C394075029900210E0FF904000E07BDD
:101FA100FFB5070C7A047964E0F54A12105E800FE0
:101FB1007A047986904000E0F54A12105E05099096
:101FC1000208E025E0F0900210E0FF25E0F07BFF41
:101FD1007A02797A12105E12309A900211EFF0BFF4
:101FE1000AF5900212E004F0E0C394085003021FC6
:101FF1005F904000E07BFF20E60C7A057963E0F515
:102001004A12105E800F7A057985904000E0F54A0A
:1020110012105E0509E490020EF0122B1490020ECC
:0E202100EFF0E5097003E060037F01227F000D
:01202F00228E
:102B1400E4F50A90020EF07BFF7A0579AE12105E9E
:102B24007BFF7A0579BB12105E7BFF7A02797A12F9
:102B3400105E12309A900211EFF0BF0AF590400037
:102B4400E07BFF30E70C7A0579D5E0F54A12105E98
:102B540080107A0579F8904000E0F54A12105E750D
:102B64000A017BFF7A06792312105E7BFF7A0279D1
:102B74007A12105E12309A900211EFF0BF0AF590AB
:102B84004000E07BFF20E70C7A0579D5E0F54A1296
:102B9400105E80107A0579F8904000E0F54A121032
:062BA4005E750A02AF0A93
:012BAA002208
:1026EE007BFF7A06793E12105EE4F50B90C000F087
:1026FE007BFF7A06794A12105E902001E07BFFB4D0
:10270E00FF0C7A06797BE0F54A12105E800F7A068E
:10271E00799D902001E0F54A12105E050B7BFF7A41
:10272E0002797A12105E12309A900211EFF0BF0AFF
:10273E00F590C00074FFF0FB7A0679C712105E9018
:10274E002001E07BFF700C7A06797BE0F54A1210CF
:10275E005E800F7A06799D902001E0F54A12105E98
:10276E00050B7BFF7A02797A12105E12309A900274
:10277E0011EFF0BF0AF59002087401F0E490021216
:10278E00F090C00074FFF0900208E0F4FF90C000DB
:10279E00F07BFF7A0679F9900212E0FEC374139E65
:1027AE00F54A8F4BEE2402F54C12105E900208E0B3
:1027BE00FF902001E07BFFB5070C7A06797BE0F5F0
:1027CE004A12105E800F7A06799D902001E0F54A3C
:1027DE0012105E050B900208E0FF25E0F07BFF7AF9
:1027EE0002797A12105E12309A900211EFF0BF0A3F
:1027FE00F5900212E004F0E0C394084084E50B600B
:06280E00037F01227F00A0
:0128140022A1
:10293B00E4F50C7BFF7A07793D12105ED293C294BB
:10294B00C295C296D2977BFF7A07795312105E120B
:10295B003063EF6002050CC293D2947BFF7A077948
:10296B007212105E123063EF6002050CC294D295A6
:10297B007BFF7A07799112105E123063EF600205CC
:10298B000CC295D2967BFF7A0779B012105E12308B
:10299B0063EF6002050CC29690E0007401F07BFFC0
:1029AB007A0779CF12105E123063EF6002050CE4E8
:1029BB0090E000F0D2977BFF7A0779EE12105EC29F
:1029CB0097123063EF6002050CE50C60037F012268
:0229DB007F007B
:0129DD0022D7
:102E3200E4900200F090C00074FFF0E4F51F051F5B
:102E4200E51FB4C8F9E490E000F0C293C294C295C1
:102E5200C296C29790400174FFF0E4A3F090200064
:102E620074FEF07BFF7A00799C12105E7BFF7A0879
:092E7200790D12105E123063228A
:102EC400E4900206F090C000F090E00004F0D29389
:102ED400D294D295D296C297E4904001F0A374FFA5
:102EE400F0E4902000F07BFF7A00799C12105E7B66
:0C2EF400FF7A08794A12105E1230632247
:103063007BFF7A08797312105E12309A1230ABEF3D
:0F30730064316003BF30E9BF30037F01227F006B
:01308200222B
:1025BE007BFF7A08798212105EE4900207F07BFFAF
:1025CE007A00799C12105E123042122D85E4900230
:1025DE0006F0900200F090020CF090020BF09002C8
:1025EE000DF0900202F0900201F0122EC49002063D
:1025FE00EFF0122E32900200EFF0122DDC90020C52
:10260E00EFF0121C0C90020BEFF0121E4190020D17
:10261E00EFF01226EE900202EFF012293B9002012B
:10262E00EFF07BFF7A00799C12105E900206E0704C
:10263E0028900200E0702290020BE0701CA3E07064
:10264E0018A3E07014900202E0700E900201E07088
:10265E00087BFF7A0879A1806F7BFF7A0879AF1229
:10266E00105E900206E060097BFF7A0879C11210B5
:10267E005E900200E060097BFF7A0879D212105E4C
:10268E0090020BE060097BFF7A0879E312105E90EE
:10269E00020CE060097BFF7A0879F412105E90025A
:1026AE000DE060097BFF7A09790512105E90020237
:1026BE00E060097BFF7A09791612105E900201E044
:1026CE0060097BFF7A09792712105E7BFF7A097900
:1026DE003812105E12309A900211EFF0BF0AF522F6
:102030000A0A526573657420756172740A00636FD1
:102040006E66207561727420553237204025303419
:10205000580A0031202D2075617274205532372DB9
:102060003E2530326258480A0032202D20756172B8
:1020700074205532372D3E2530326258480A0033DD
:10208000202D2075617274205532372D3E25303257
:1020900062580A00636F6E66207561727420553352
:1020A000302040253034780A0031202D20756172AF
:1020B00074205533302D3E2530326258480A0032A4
:1020C000202D2075617274205533302D3E2530321D
:1020D0006258480A0033202D2075617274205533F0
:1020E000302D3E253034584820202025303262588B
:1020F000480A000A525820282562642062797465D3
:10210000293A20002562643A25303262584820205E
:10211000000A000A545820282562642062797465F8
:10212000293A20000A5258202825626420627974D6
:1021300065293A0025303262584809000A54583A55
:10214000256328253032627848290A000A507265D2
:102150006D65726520756E20746173746F206520E3
:10216000766572696669636172652063686520637C
:102170006F72726973706F6E646120612071756532
:102180006C6C6F20726963657675746F202871209E
:1021900070657220757363697265290A000A545864
:1021A0003A2563282530326278482920200A002504
:0721B00020303262782000AC
:092F5E00011800011900011B001B
:03000300022F00C9
:102F0000C0E0C083C082C0D075D000C006C007C278
:102F1000AF908000E0FFAE19051974002EF582E431
:102F20003400F583EFF0D2AFD007D006D0D0D082F6
:052F3000D083D0E03267
:03001300022F9920
:102F9900C0E0C083C082C0D075D000C007C2AF9066
:102FA9006000E0FF7400251BF582E43401F583EF2E
:102FB900F0051BD2AFD007D0D0D082D083D0E03279
:10308300D297E4F51F051FE51FB464F9C2977BFFD0
:073093007A20793002105E83
:102E7B001230837E607F00754A60754B007BFF7A52
:102E8B0020793E12105E906001744FF07BFF7A2028
:102E9B007953E0F54A12105E9060017437F07BFFB6
:102EAB007A207969E0F54A12105E7BFF7A20797FF0
:092EBB00906000E0F54A02105E8F
:102D24008F6C1230837E807F00754A80754B007BE8
:102D3400FF7A20799412105EE56CB402047F01805E
:102D4400027F00EF444E908001F07BFF7A2079A946
:102D5400E0F54A12105E9080017435F07BFF7A2012
:102D640079BFE0F54A12105E7E807F00754A807557
:102D74004B00908000E0F54C7BFF7A2079D502105F
:012D84005EF0
:102A7A00122E7BE4F51B9060017437F0E51B60F6BB
:102A8A007BFF7A2079F3F54A12105EE4F51CE51C07
:102A9A00C3951B501E7BFF7A217904851C4A74005A
:102AAA00251CF582E43401F583E0F54B12105E052E
:102ABA001C80DB7BFF7A21791112105E9060017411
:102ACA0035F07BFF7A217913851B4A12105EE4F5F3
:102ADA001CE51CC3951B50237400251CF582E434A5
:102AEA0001F583E0FF906000F07BFF7A217904858D
:102AFA001C4A8F4B12105E051C80D6E4F51B7BFF27
:0A2B0A007A21791112105E022A8070
:102CB300122E7BE4F51B9060017437F0E51B603C3A
:102CC3007BFF7A217924F54A12105EE4F51CE51C9A
:102CD300C3951B501B7BFF7A2179347400251CF5A7
:102CE30082E43401F583E0F54A12105E051C80DEB0
:102CF3007BFF7A21791112105EE4F51B3091B7E561
:102D03001A60B39060017435F0E4F51B906000E540
:102D13001AF07BFF7A21793CF54AF54B12105E805D
:012D2300951A
:022C37008F66A6
:102C3900E4F5677BFF7A21794C12105EAF66122D9D
:102C490024805912309A8F1A1230AB8F68EF645171
:102C5900604F309013908000E51AF07BFF7A21795C
:102C69009DF54AF54B12105EE51960D77BFF7A2175
:102C79007924F54A12105EE4F567E567C3951950A2
:102C89001B7BFF7A2179AF74002567F582E4340054
:102C9900F583E0F54A12105E056780DEE4F51980D8
:0A2CA900A27BFF7A21791102105E70
:10095A00EC4D6011E8497017ED33EC3304600DE497
:10096A00FCFFFEFD22E933E8330470F8020AD312D1
:10097A000A9E58046009E4CC2481500628500902D2
:10098A000ADD284003020ADAC0E0EB4A7044B98063
:10099A0006D0E0FB020AC9EF4E701CBD8008EBFFCF
:1009AA00EAFEE9FD80EBE98DF0A4FEE5F0020A43D8
:1009BA00E9CDF9EAFEEBFFEF89F0A4FCE5F0CE8978
:1009CA00F0A42EFFE435F0CD89F0A42DFEE435F035
:1009DA008067EF4E7005BD80D780C3EF8BF0A4AC63
:1009EA00F0EE8BF0A42CFCE435F0F8EF8AF0A42C9E
:1009FA00E5F038FCE433CB8DF0A42CFCE5F03BF8B1
:100A0A00EE8AF0A42CFCE5F038F8E433CF89F0A4A0
:100A1A002CFCE5F038CF3400CE89F0A42FFFE5F0A6
:100A2A003EFEE433C98DF0A42EFEE5F039CD8AF0FE
:100A3A00A42FFFE5F03EFEE43DFD33D0E0FB500776
:100A4A000BBB000F020ADDEC2CFCEF33FFEE33FE8A
:060A5A00ED33FD020AB5B8
:100A600075F020800E75F010800575F0087D007E11
:100A7000007F003392D530D503120ECFEC334010F7
:100A8000EF33FFEE33FEED33FDEC33FCD5F0ED221A
:0E0A9000E5F0247EA2D513CC92E7CDCEFF2256
:100FFC00E55E244AF8E6055E227847300702784A17
:10100C00E475F001120EDD020E222000EB7F2ED2D1
:10101C00008018EF540F2490D43440D4FF30040BCC
:10102C00EF24BFB41A0050032461FFE55F60021582
:10103C005F0562E5627002056130070D7847E47563
:10104C00F001120EDDEF020E6802301B7403D207A2
:10105C008003E4C207F55E8B478A488949E4F55F53
:10106C00F561F562E55F60077F2012103780F5753A
:10107C0060FFC201C200C202C203C205C206C2089E
:10108C00121005FF700D3007057F00121048AF627B
:10109C00AE6122B4255FC2D5C204121005FF24D064
:1010AC00B40A00501A75F00A785F30D50508B6FFFF
:1010BC000106C6A426F620D5047002D20380D924DA
:1010CC00CFB41A00EF5004C2E5D204021335D2019A
:1010DC0080C6D20080C0D20280BCD2D580BAD205E4
:1010EC0080B47F201210372002077401B55F0040D6
:1010FC00F1120FFCFF121037021070D208D20680CA
:10110C0095120FFCFB120FFCFA120FFCF94A4B70F4
:10111C0006792C7A147BFF20022EE55F602A7E0074
:10112C008E82758300120E3B60060EEE656070F0C9
:10113C00C2D5EBC0E0EAC0E0E9C0E0EE121395D0F6
:10114C00E0F9D0E0FAD0E0FB120E22FF60AAEBC06F
:10115C00E0EAC0E0E9C0E0121037D0E02401F9D099
:10116C00E03400FAD0E0FBE5600460DCD560D980A7
:10117C0087D20280A212137860F7E5607001041226
:10118C000AE8A960600DE560600914F56012141F8F
:10119C00EF60F3EA30E702F404C3995077EAF425E0
:1011AC00600430E701E404F560800D12137860C12F
:1011BC00EA05602560120AE8EA785DF630E701E49A
:1011CC00256004D5600420050114121395E4C0E0D9
:1011DC0012141F785DE6601320E70714F612101F37
:1011EC00802204F6D0E014C0E07F0012101FE560EE
:1011FC0060071210161560800B300503121016D004
:10120C00E0021070D0E00480C512137860A0E56095
:10121C0004120AE8785DEAF6E56020050260010434
:05122C002404121395DB
:1012310074FF04C0E012141F12101FE560200502A4
:101241006003121016D0E0B560E87F4512102978CE
:101251005DE67F2B30E7047F2DF404C0E0121037E8
:10126100D0E075F00A84C0F0121020D0E0121020F6
:10127100021070791080027908C206C2088008D273
:10128100D5790A8004790AC2D5E560047002F56057
:10129100E4FAFDFEFF120FFCFC7B08200113120F84
:1012A100FCFD7B1030000A120FFCFE120FFCFF7BCD
:1012B10020EC3382D592D55013C3E43000069FFF52
:1012C100E49EFEE42001039DFDE49CFCE4CBF8C216
:1012D10001EC700CCFCECDCCE824F8F870F3801778
:1012E100C3EF33FFEE33FEED33FDEC33FCEB33FBA9
:1012F100994002FB0FD8E9EB300105F8D0E0C44872
:10130100B201C0E00AEC4D4E4F78207B0070C2EA7A
:10131100B5600040BCC0E0121397D0F0D0E02001CE
:1013210004C4C0E0C4B201C0F0121020D0F0D5F066
:10133100EB021070120EED110D5312745810DE4CA9
:1013410010DA4212784F12804412804910F343128E
:10135100865511B746121545118147144C5010E2BC
:101361002D10E62E11092B10EA2311072014352A1E
:1013710010A24800001101E560B4FF037560061278
:101381000FFCFC120FFCFD120FFCFE120FFCFF788C
:1013910056020B17790AA2D5200314300509B9109A
:1013A100020404B9080104A2D52006025001042058
:1013B10002689202B55F005034C0E07F203003190B
:1013C1007F30A20272067205500F1213EEC202C2E2
:1013D10006C205C2087F30800F300503E9C0E01264
:1013E1001037300503D0E0F9D0E0B55FCC300517F8
:1013F1007F30B9100C1210377F583004077F788086
:1014010003B908031210373002057F2D0210377F10
:10141100202008F87F2B2006F322920280CF7F0044
:10142100B4070050052456F8E6FF22286E756C6C4F
:101431002900D201120FFC3001F8C201785F30D5CA
:101441000108F60210A22D50434958120FFC240343
:10145100B405004001E490144793121028743A1225
:0A1461001028D203755F0402127414
:100A9E00E9D2E7C933E833F892D5EDD2E7CD33EC9E
:070AAE0033FC5002B2D52217
:100AB500EC30E7100FBF000C0EBE00080DBD0004A2
:100AC5000BEB6014A2D5EB13FCED92E7FD2274FF4E
:100AD500FCFDFEFF22E480F8A2D574FF13FC7D80A7
:030AE500E480EFBB
:100AE800F920E72824F950037907E4F42402FB18D5
:100AF800DBFDE624FB5014E9600DE4F618E604F685
:0F0B0800B40A08E4F6D9F57401F60A22C2D52220
:100B1700ED33EC3392D5FA602AB4FF33EDC2E77BAD
:100B2700FF60067A0B793CE4227A0B794520D504DD
:100B37007A0B7940224E614E002B494E46002D49D3
:100B47004E4600E47A08F608DAFC7B00740722E8D0
:100B5700C0E0ECC0E0EDC0E0EEC0E0EFC0E0EA7559
:100B6700F010A4CAABF075F04DA42BFBE435F0FCF4
:100B7700EA2410FAEB34C5FBEC34D9FCEDC2E7FFED
:100B870075F056A4F42411C5F0F434C58FF0A42AE7
:100B9700E5F03BE43CF620E714120DE2D0E0FFD08D
:100BA700E0FED0E0FDD0E0FC120D158014F4041235
:100BB7000DE2D0E0FFD0E0FED0E0FDD0E0FC12096E
:100BC7005AD0E0F8E6FAEDD2E7CD33EC332482FBD6
:100BD700E4C3CF33CFCE33CECD33CD33DBF37B0777
:100BE70075F00A846004F6081B0AE5F0F6088FF032
:100BF700740AA4FFACF08EF0740AA42CFEACF0507B
:100C0700010C8DF0740AA42CFDE435F0F608DBDE48
:030C17007407223D
:100C1A00020AD3E86480F8E933E83360110460F02B
:100C2A00ED33EC337009E8FCE9FDEAFEEBFF220440
:100C3A0060DED3EB9FEA9EE99DE8C2E78CF0C2F73B
:100C4A0095F0400CE8CCF8E9CDF9EACEFAEBCFFB07
:100C5A00120A9E85D0F05804700320D5B3E80470B8
:100C6A00075002B2D5020ADD92D5EC0460F7E4CC53
:100C7A00C0E0C398F8603B94186008400DD0E0FBD0
:100C8A00020AB5E4FBFAC9FC8028E830E406E4C9A4
:100C9A00FBE4CAFCE830E305E4C9CACBFCE8540724
:100CAA006010F8C3E913F9EA13FAEB13FBEC13FC2F
:100CBA00D8F130F52FC3E49CFCEF9BFFEE9AFEEDD2
:100CCA0099FDD0E0FBEF4E4D4C701222DB03020A75
:100CDA00DAEC2CFCEF33FFEE33FEED33FDED30E7BB
:100CEA00EB020AB5EF2BFFEE3AFEED39FDD0E0FB41
:100CFA0050130BBB0003020ADDED13FDEE13FEEFEA
:080D0A0013FFEC13FC020AB513
:100D1200020ADDEC5D046005E859047003020AD39F
:100D2200120A9E580460F6EC4860F2EC7004FDFE74
:100D3200FF22C860DB2481C85009C39860025006B4
:100D4200020ADA9850CAF582E9294B4A7005AB8249
:100D5200020AC975F0007C1A7880C3EF9BEE9AED07
:100D620099400DC3EF9BFFEE9AFEED99FDE842F02C
:100D7200DC23ACF0D0E0FFD0E0FED0E0FDAB82207F
:100D8200E7101BEB60BAEC2CFCEF33FFEE33FEED09
:100D920033FD020AB5E803F830E705C0F075F0004C
:100DA200EF2FFFEE33FEED33FD40B830E7C280AAED
:100DB2003F8000004120000042C80000447A000049
:100DC200461C400047C35000497424004B189680CB
:100DD2004CBEBC205A0E1BCA6753C21C749DC5AEC2
:100DE200FB60065407601C2323120E10EB5438607C
:100DF20009120DFC120E0B12095AECF8EDF9EEFA7B
:100E0200EFCB22EB120E0B80F1543803241C900D11
:100E1200B2FE93FC0EEE93FD0EEE930ECE93FF22E6
:03000000022BAB25
:0C2BAB00787FE4F6D8FD758170022BF2F3
:100E2200BB010689828A83E0225002E722BBFE02CE
:090E3200E32289828A83E4932201
:100E3B00BB010CE58229F582E5833AF583E022506C
:100E4B0006E92582F8E622BBFE06E92582F8E222B6
:0D0E5B00E58229F582E5833AF583E49322D0
:100E6800BB010689828A83F0225002F722BBFE0169
:020E7800F32263
:100E7A00BC000BBE0029EF8DF084FFADF022E4CC5C
:100E8A00F875F008EF2FFFEE33FEEC33FCEE9DEC25
:100E9A00984005FCEE9DFE0FD5F0E9E4CEFD22ED6B
:100EAA00F8F5F0EE8420D21CFEADF075F008EF2FB5
:100EBA00FFED33FD4007985006D5F0F222C398FDA6
:050ECA000FD5F0EA2243
:0E0ECF00C3E49FFFE49EFEE49DFDE49CFC2234
:100EDD00FAE6FB0808E6F925F0F618E6CA3AF62216
:100EED00D083D082F8E4937012740193700DA3A394
:100EFD0093F8740193F5828883E4737402936860A8
:060F0D00EFA3A3A380DFA7
:10301B00EFB40A07740D123026740A309811A89970
:10302B00B8130CC2983098FDA899C298B811F63015
:07303B0099FDC299F59922ED
:0A30C8003098FDAF99C2987E0022F7
:10309A0010090B1230C8BF0D027F0A02301BAF6E37
:0130AA002203
:1030AB00EFC39461400AEF947B5005EF24E0FF22BD
:0130BB0022F2
:0C30BC00EE30E707C3E49FFFE49EFE2215
:100F1300E709F60870FA8046E709F20870FA803E9E
:100F230088828C83E709F0A370FA807EE309F608D0
:100F330070FA8076E309F20870FA806E88828C83F7
:100F4300E309F0A370FA806289828A83E0A3F6083A
:100F530070FA805689828A83E0A3F20870FA804A85
:100F630080D280FA80C680D4806580F28031801080
:100F730080A680EA809A80A880DA80E280CA8031E5
:100F830089828A83ECFAE493A3C8C582C8CCC5835B
:100F9300CCF0A3C8C582C8CCC583CC70E9800D89C9
:100FA300828A83E493A3F60870F9ECFAA9F0EDFBC7
:100FB3002289828A83ECFAE0A3C8C582C8CCC583A0
:100FC300CCF0A3C8C582C8CCC583CC70EA80DD89C8
:100FD300828A83E493A3F20870F980CE88F0ED242B
:100FE30002B4040050C4F582EB2402B4040050BAE6
:090FF3002323458223900F637350
:102BB700022F68E493A3F8E493A34003F68001F29D
:102BC70008DFF48029E493A3F85407240CC8C3331F
:102BD700C4540F4420C8834004F456800146F6DFEE
:102BE700E4800B0102040810204080902F35E47E1A
:102BF700019360BCA3FF543F30E509541FFEE493E3
:102C0700A360010ECF54C025E060A840B8E493A3A9
:102C1700FAE493A3F8E493A3C8C582C8CAC583CAD4
:102C2700F0A3C8C582C8CAC583CADFE9DEE780BE8C
:012F67000069
:00000001FF
