:102654000A0A002A2A2A2A2A2A2A2A2A2A2A2A2A40
:102664002A2A2A2A2A2A2A2A2A2A2A2A2A2A2A2AC6
:102674002A2A2A2A2A2A0A002A202020436F6C6C3C
:102684006175646F207363686564612043505520ED
:10269400524556494E44202020202A0A002A202050
:1026A400207377207665722E207465737472657753
:1026B40020312E3020202020202020202020202ADD
:1026C4000A002A202020736368656461207469709D
:1026D4006F3A2044473633302D3132202878313652
:1026E400292020202A0A002A202020736368656498
:1026F40061207469706F3A2044473633302D323983
:102704002028783634292020202A0A000920312064
:102714002D20746573742052414D0A000920322023
:102724002D2074657374204144430A00092033202A
:102734002D207465737420492F4F2050726F677277
:102744000A00092034202D207465737420554152E9
:10275400545F553237202D20524943455A494F4E34
:10276400450A00092035202D2074657374205541D5
:1027740052545F553237202D20545241534D495302
:1027840053494F4E450A00092036202D20746573A5
:102794007420554152545F5533300A0009203720C4
:1027A4002D20736574207469706F20736368656489
:1027B40061200A0A000A0A20202020205363656C45
:1027C400746120746573743A2000092031202D202F
:1027D40044473633302D3132287072657363616C2F
:1027E400657220783136290A00092032202D2044D0
:1027F400473633302D3239287072657363616C65E6
:102804007220783634290A000A0A20202020205316
:1028140063656C7461207363686564613A20000ABF
:032824000A0A009D
:04362F00026700002E
:03000B000236CCEE
:1036CC00C0E0C0D075D000C000C28CC2AFA2B5B3F0
:1036DC0092B5786806E618700106758C4B758AFFF2
:0B36EC00D28CD2AFD000D0D0D0E032A2
:083816007867E6FE08E6FF22D8
:1036F700759852758921758DFD858D8B758C4B75E8
:103707008AFF75B802D288D28A75A887D2A9D28CC7
:07371700D28ED299C2B42248
:1030BC007BFF7A2679541216567BFF7A26795712A3
:1030CC0016567BFF7A26797C1216567BFF7A267968
:1030DC00A1121656E508B401097BFF7A2679C612AF
:1030EC001656E508B402097BFF7A2679EB121656C0
:1030FC007BFF7A2679571216567BFF7A2679541263
:10310C0016567BFF7A2779101216567BFF7A277991
:10311C00201216567BFF7A2779301216567BFF7ACF
:10312C002779461216567BFF7A2779671216567B3B
:10313C00FF7A27798B1216567BFF7A2779A0121605
:10314C00567BFF7A2779B912165612380CEF24D019
:10315C00F509D364809480400DE50964809488500F
:10316C00057546018003E4F546E54670030230BC64
:01317C002230
:1033C4007BFF7A2679541216567BFF7A2679571298
:1033D40016567BFF7A26797C1216567BFF7A26795D
:1033E400A11216567BFF7A2679571216567BFF7A5E
:1033F4002679541216567BFF7A2779CE1216567BFD
:10340400FF7A2779ED1216567BFF7A28790C12166B
:103414005612380CEF24D0F50CD364809480400D00
:10342400E50C6480948350057546018003E4F546F9
:07343400E546608CAF0C229D
:10343B001236F7C2B57BFF7A2879231216567BFF1B
:10344B007A2879231216561233C48F081230BCE532
:10345B0009120EDB347801347D0234820334870485
:10346B00348C0534910634960700003457121D2D09
:10347B0080DA120FEA80D5122E7580D012349D801F
:10348B00CB121FBA80C612334380C11233C48F08CC
:02349B0080BAF5
:1029AC000A546573742052414D2045535445524E80
:1029BC00412028307830303030202E2E20307831A5
:1029CC00464646290A0A005772697465207061747C
:1029DC007465726E2030784141353520200A0040F4
:1029EC0025303458200D000A5665726966792061CD
:1029FC0074200A0025303458200D0074657374203F
:102A0C0052414D204B4F20253034582040207265C8
:102A1C00616420253034780A000A57726974652085
:102A2C007061747465726E20307835354141206167
:102A3C0074200A00746573742052414D204B4F2052
:102A4C00256C582040207265616420253034780A4A
:102A5C00000A5465737420312D7368696674696E4D
:102A6C0067206F6E2041302E2E413132200A002516
:102A7C003034582028307830303030292000202E47
:102A8C002E6F6B0A002E2E4B4F20256C780A0025DA
:102A9C00303458202028412562642920002E2E4BEA
:102AAC004F2025750A00546573742052414D204FF8
:102ABC004B0A00546573742052414D204B4F2065D6
:102ACC0072726F7220202562640A005072656D6507
:102ADC00726520494E56494F207065722070726F96
:0B2AEC00736567756972652E0D0A00A6
:0936330001170001180001160046
:101D2D007BFF7A2979AC1216567BFF7A2979D3126B
:101D3D001656E4F516F514F515AE14AF15C3EF945C
:101D4D00FFEE941F502D8E468F477BFF7A2979EB3E
:101D5D0085464E85474F1216568515828514837418
:101D6D00AAF0A37455F074022515F515E43514F594
:101D7D001480C67BFF7A2979F3121656E4F514F513
:101D8D0015AE14AF15C3EF94FFEE941F504F8E4652
:101D9D008F477BFF7A2A790085464E85474F12166D
:101DAD0056851582851483E0FEA3E0FF645570030C
:101DBD00EE64AA601B754E0185144F8515508E512A
:101DCD008F527BFF7A2A7907121656751601800DF0
:101DDD0074022515F515E43514F51480A47BFF7AEE
:101DED002A7925121656E4F514F515AE14AF15C360
:101DFD00EF94FFEE941F502D8E468F477BFF7A2A6E
:101E0D00790085464E85474F1216568515828514E5
:101E1D00837455F0A374AAF074022515F515E435F5
:101E2D0014F51480C67BFF7A2979F3121656E4F562
:101E3D0014F515AE14AF15C3EF94FFEE941F504F6C
:101E4D008E468F477BFF7A2A790085464E85474F10
:101E5D00121656851582851483E0FEA3E0FF64AA51
:101E6D007003EE6455601B754E0185144F8515503A
:101E7D008E518F527BFF7A2A7940121656751602B3
:101E8D00800D74022515F515E43514F51480A47B29
:101E9D00FF7A2A795D121656E4F514F5158515822B
:101EAD0085148374AAF0A37455F07BFF7A2A797B8D
:101EBD0085144E85154F121656851582851483E0AF
:101ECD00FEA3E0FFBEAA0EBF550B7BFF7A2A798ACF
:101EDD0012165680197BFF7A2A7991851582851401
:101EED0083E0F54EA3E0F54F121656751603E4F593
:101EFD00170517E517B4FFF9E4F518F51475150175
:101F0D00F548754901C3E54894205079AE14AF15D5
:101F1D008E468F477BFF7A2A799B8E4E8F4FAF1857
:101F2D0005188F5012165685158285148374AAF0E4
:101F3D00A37455F0E4F5170517E517B4FFF98515EA
:101F4D0082851483E0FEA3E0FFBEAA0EBF550B7B76
:101F5D00FF7A2A798A12165680197BFF7A2A79A977
:101F6D00851582851483E0F54EA3E0F54F121656C4
:101F7D00751603E54925E0F549E54833F548F514AF
:101F8D008549158080E5167BFF70067A2A79B28027
:101F9D00077A2A79BF85164E1216567BFF7A2A7953
:0D1FAD00D71216561237DE8F4ABF0AF822EF
:101A630063683A202562642020200073616D706CE6
:101A730065206EB020256264202020006C6574749C
:101A83007572613A203078256258202825312E322C
:101A93006620566F6C7429200A0063683A20256219
:101AA3006420206C65747475726120307825582029
:101AB30020202825312E326620566F6C74290A00A7
:101AC3004F4B004B4F00457369746F2074657374FB
:101AD30020636820494E256264203D2030782530FC
:101AE30032582020206C6574747572613A20253158
:101AF3002E326656202056616C2061747465736FB4
:101B03003A2025312E326656202020200065736945
:101B1300746F3A2025730A000A0A2A2A2A2A2A20DD
:101B230020546573742041444320202A2A2A2A2AF8
:101B33002020200A0A000A506F73697A696F6E6168
:101B43007265206C6F20737769746368204E4F4908
:101B5300534520616C2063656E74726F20650A00C3
:101B63007665726966696361726520636865206979
:101B7300206C6564205331206520533220736961E2
:101B83006E6F207370656E74690A005072656D65BF
:101B9300726520494E56494F207065722070726FEE
:101BA30073656775697265200A000A54657374204A
:101BB30063616E616C6520494E300A000A54657397
:101BC300742063616E616C6520494E310A000A54CA
:101BD3006573742063616E616C6520494E320A003F
:101BE3000A5465737420494E2562640A00506F736A
:101BF300697A696F6E617265206C6F20737769749F
:101C03006368204E4F495345207375204E4F495307
:101C13004531206520766572696669636172652066
:101C2300636B6520696C206C656420533120736994
:101C3300612061636365736F202874657374204941
:101C43004E256264290A00506F73697A696F6E6169
:101C53007265206C6F20737769746368204E4F49F7
:101C63005345207375204E4F4953453120287465E1
:101C7300737420494E256264290A00506F73697A90
:101C8300696F6E617265206C6F2073776974636826
:101C9300204E4F495345207375204E4F49534532CB
:101CA3002065207665726966696361726520636B7E
:101CB3006520696C206C6564205332207369612050
:101CC30061636365736F20287465737420494E25BF
:101CD3006264290A0052696570696C6F676F2074CA
:101CE300657374204144430A005465737420494E5C
:101CF300256264203D203078253032582020206C26
:101D03006574747572613A2025312E32665620202F
:101D130056616C2061747465736F3A2025312E32DD
:0A1D2300665620202020000A0A0066
:10363C00082AB05B598E84B5000001430001440098
:102827008F488D49EF25E02433F8E4F608F6F54A9A
:10283700752501E42548FFE434A0F5268F278F820C
:10284700F583747FF03092FD852782852683E0F536
:10285700457BFF7A1A796385484E1216567BFF7AB5
:102867001A796E85254E121656852782852683E0AE
:10287700FCF54EE4120A587B2E7A9079A0783C1228
:1028870009488F528E518D508C4F7BFF7A1A797F72
:10289700121656852782852683E0FFE54825E02422
:1028A70033F808EF26F618E436F60525E525D39420
:1028B7000A4080E54825E02433F8C000E6FE08E634
:1028C700FF7C007D0A120E68D000A60608A60785C1
:1028D700484EE54825E02433F8E6FC08E6FD8C4F32
:1028E700F550E4120A537B2E7A9079A0783C1209AE
:1028F700488F548E538D528C517BFF7A1A799D12D3
:102907001656E54825E02433F8E6FC08E6C3954962
:10291700FFEC9400FE123800D3EF940DEE64809420
:102927008078227C007D007BFF500C7A1A79C312D5
:102937000FCDE4F54A800A7A1A79C6120FCD754A87
:102947000185484EE54825E02433F8E6FC08E6FD16
:102957008C4FF550E4120A537B2E7A9079A0783C7D
:102967001209488F548E538D528C51E549FD7C00D6
:10297700E4120A537B2E7A9079A0783C1209488F8B
:10298700588E578D568C557BFF7A1A79C912165671
:10299700754E00754F007550227BFF7A1B79101218
:0529A7001656AF4A22A4
:100FEA00E4F543E54325E02416F582E43402F5836B
:100FFA00E4F0A3F00543E543B408E87BFF7A1B79E4
:10100A001B121656E508B40105E4F52F8003752F67
:10101A00B57BFF7A1B79391216567BFF7A1B7963E7
:10102A001216567BFF7A1B798E1216561237DE8FEE
:10103A0032BF0AF87BFF7A1B79AD121656E4F546E1
:10104A00F5470547E54770020546B488F5E546B415
:10105A0013F0E4F546F5470547E54770020546B43F
:10106A0010F5E546B427F0E4F546F5470547E547A8
:10107A0070020546B410F5E546B427F0E4F546F5E6
:10108A00470547E54770020546B410F5E546B4271B
:10109A00F0E4F546F5470547E54770020546B41002
:1010AA00F5E546B427F0E4F546F5470547E5477008
:1010BA00020546B410F5E546B427F0E4F546F547CF
:1010CA000547E54770020546B410F5E546B427F032
:1010DA00E4F546F5470547E54770020546B410F5BD
:1010EA00E546B427F0E4F546F5470547E5477002BB
:1010FA000546B410F5E546B427F0E4F546F547058C
:10110A0047E54770020546B410F5E546B427F0E412
:10111A00F546F5470547E54770020546B410F5E57B
:10112A0046B427F0E4F546F5470547E5477002055A
:10113A0046B410F5E546B427F0E4F546F547054709
:10114A00E54770020546B410F5E546B427F0E4F524
:10115A0046F5470547E54770020546B410F5E546EA
:10116A00B427F0E4F546F5470547E547700205461A
:10117A00B410F5E546B427F0E4F546F5470547E52A
:10118A004770020546B410F5E546B427F0E4F54683
:10119A00F5470547E54770020546B410F5E546B43C
:1011AA0027F0E4F546F5470547E54770020546B4DA
:1011BA0010F5E546B427F0E4F546F5470547E54757
:1011CA0070020546B410F5E546B427F0E4F546F595
:1011DA00470547E54770020546B410F5E546B427CA
:1011EA00F0E4F546F5470547E54770020546B410B1
:1011FA00F5E546B427F0E4FDFF1228277E009002A9
:10120A0016EEF0A3EFF0600AE025E0F0900216E097
:10121A0033F07BFF7A1B798E1216561237DE8F3225
:10122A00BF0AF87BFF7A1B79BF121656E4F546F51A
:10123A00470547E54770020546B488F5E546B41305
:10124A00F0E4FD7F011228277E00900218EEF0A339
:10125A00EFF0600AE025E0F0900218E033F07BFF3F
:10126A007A1B798E1216561237DE8F32BF0AF87B36
:10127A00FF7A1B79D1121656E4F546F5470547E57C
:10128A004770020546B488F5E546B413F0E4FD7FDD
:10129A00021228277E0090021AEEF0A3EFF0600AED
:1012AA00E025E0F090021AE033F07BFF7A1B798E9A
:1012BA001216561237DE8F32BF0AF8E4F5437BFF67
:1012CA007A1B79E385434E121656E543700B7BFF72
:1012DA007A1B79F085434E801CE543B4010A7BFFF3
:1012EA007A1C794AF54E800DE543B4020B7BFF7AEE
:1012FA001C797EF54E1216567BFF7A1B798E1216D2
:10130A00561237DE8F32BF0AF8E543C39402400310
:10131A000214C1E4F546F5470547E547700205465C
:10132A00B410F5E546B427F0E4F546F5470547E578
:10133A004770020546B410F5E546B427F0E4F546D1
:10134A00F5470547E54770020546B410F5E546B48A
:10135A0027F0E4F546F5470547E54770020546B428
:10136A0010F5E546B427F0E4F546F5470547E547A5
:10137A0070020546B410F5E546B427F0E4F546F5E3
:10138A00470547E54770020546B410F5E546B42718
:10139A00F0E4F546F5470547E54770020546B410FF
:1013AA00F5E546B427F0E4F546F5470547E5477005
:1013BA00020546B410F5E546B427F0E4F546F547CC
:1013CA000547E54770020546B410F5E546B427F02F
:1013DA00E4F546F5470547E54770020546B410F5BA
:1013EA00E546B427F0E4F546F5470547E5477002B8
:1013FA000546B410F5E546B427F0E4F546F5470589
:10140A0047E54770020546B410F5E546B427F0E40F
:10141A00F546F5470547E54770020546B410F5E578
:10142A0046B427F0E4F546F5470547E54770020557
:10143A0046B410F5E546B427F0E4F546F547054706
:10144A00E54770020546B410F5E546B427F0E4F521
:10145A0046F5470547E54770020546B410F5E546E7
:10146A00B427F0E4F546F5470547E5477002054617
:10147A00B410F5E546B427F0E4F546F5470547E527
:10148A004770020546B410F5E546B427F0E4F54680
:10149A00F5470547E54770020546B410F5E546B439
:1014AA0027F0E4F546F5470547E54770020546B4D7
:1014BA0010F5E546B427F0E54325E02416F582E465
:1014CA003402F583C083C082E0FEA3E0FFC007C0F8
:1014DA0006742A2543F8E6FDAF43122827EFFDD00C
:1014EA00E0FFD0E04DD082D083CFF0A3EFF07BFFB6
:1014FA007A1B798E1216561237DE8F32BF0AF8051A
:10150A0043E543C3940850030212C87BFF7A1C794F
:10151A00D8121656E4F543742A2543F8E6FFE54344
:10152A0025E02433F8E6FC08E6C39FFFEC9400FEAE
:10153A00123800D3EF940DEE648094805020E54376
:10154A0025E02416F582E43402F583A3E020E10EB7
:10155A0078227C007D007BFF7A1A79C3800C78227E
:10156A007C007D007BFF7A1A79C6120FCD85434E27
:10157A00E54325E02433F8E6FC08E6FD8C4FF550F8
:10158A00E4120A537B2E7A9079A0783C1209488F8C
:10159A00548E538D528C51742A2543F8E6FD7C00F3
:1015AA00E4120A537B2E7A9079A0783C1209488F6C
:1015BA00588E578D568C557BFF7A1C79EC1216562D
:1015CA00754E00754F007550227BFF7A1B791012F9
:1015DA0016560543E543C3940850030215211237F2
:0A15EA00DE7BFF7A1D792A021656F7
:1000160052657365742050494F0A00434F4E46207F
:1000260050494F205532362000434F4E4620504906
:100036004F2055323920000A0A002A2A2A2A2A2A5B
:100046002A2A2A2A2A2A2A2A2A2A2A2A2A2A2A2A0A
:100056002A2A2A2A2A2A2A2A2A2A2A2A2A0A002A44
:100066002020207363656C7461207465737420505E
:10007600494F202020202020202020202020202022
:10008600202A0A000A00092031202D20636F6D61A5
:100096006E646F2072657365740A00092032202D24
:1000A60020636F6E6669677572617A696F6E652027
:1000B60072656769737472690A00092033202D20FE
:1000C6007465737420492F4F20636F6D706C65746F
:1000D6006F0A00092034202D2074657374206C6526
:1000E600747475726120535731200A000920352037
:1000F6002D20746573742070696C6F74616767690D
:100106006F2072656CE820553135200A00092036CB
:10011600202D2074657374206F7574707574205566
:100126003236205042200A00092037202D207465DF
:100136007374206F75747075742055323620504371
:10014600200A00092038202D2074657374206F75ED
:100156007470757420553239205041200A000920E8
:1001660039202D2074657374206F75747075742032
:10017600553338200A00092030202D206D656E7514
:10018600207072696E636970616C650A000A2020CE
:100196002020205363656C746120746573743A2063
:1001A600000A0A544553542055323620706F727433
:1001B60061204220636F6E2072696C65747475727B
:1001C600612073752055323920706F727461204337
:1001D6000A000A5665726966696361726520616321
:1001E60063656E73696F6E6520646569206C65640E
:1001F600205531332028553236205042203D2030BC
:10020600304829200A0072696C6574747572612021
:100216007375205532392E5043204F4B20283078A5
:100226002530326278290A00212121204552524187
:1002360054412072696C65747475726120737520FF
:100246005532392E504320202830782530326278B6
:1002560020696E76656365206469203078304629AA
:100266000A007072656D69203C494E56494F3E0A38
:10027600000A566572696669636172652073706506
:10028600676E696D656E746F20646569206C656460
:10029600205531332028553236205042203D204605
:1002A6004648290A00212121204552524154412025
:1002B60072696C6574747572612073752055323974
:1002C6002E504320202830782530326278290A00C3
:1002D6000A54657374205532362E504225626420C6
:1002E600283078253032627829202D2056657269AB
:1002F60066696361726520616363656E73696F6EBB
:100306006520553133206C6564202562640A00211E
:100316002121204552524154412072696C65747402
:10032600757261207375205532392E50432028305E
:10033600782530326278290A000A5465737420558C
:1003460032362E50423620283078253032627829CF
:100356002D20566572696669636172652061636303
:10036600656E73696F6E6520553133206C65642048
:100376002562640A000A54657374205532362E507D
:100386004237202830782530326278292D2056656C
:10039600726966696361726520616363656E73691C
:1003A6006F6E6520553133206C6564202562640AC2
:1003B600000A0A544553542055323620706F727421
:1003C6006120430A000A566572696669636172654F
:1003D60020616363656E73696F6E652055313220E7
:1003E6006C656420256264000A54455354205532D6
:1003F6003920706F727461204120636F6E207269BC
:100406006C65747475726120737520553236207070
:100416006F72746120410A000A56657269666963E3
:1004260061726520616363656E73696F6E652064D2
:100436006569206C65642055313420285532392091
:100446005041203D2030314829200A0072696C65F0
:100456007474757261207375205532362E504120A2
:100466004F4B202830782530326278290A00212126
:1004760021204552524154412072696C657474754D
:100486007261207375205532362E504120283078FF
:100496002530326278290A000A56657269666963F0
:1004A60061726520737065676E696D656E746F2025
:1004B600646569206C6564205531342028553239CD
:1004C600205041203D20464548290A000A546573BC
:1004D60074205532392E5041256264202830782503
:1004E6003032627829202D2056657269666963610B
:1004F600726520616363656E73696F6E6520553141
:1005060034206C6564202562640A000A546573749D
:10051600205532392E504125626420283078253006
:1005260032627829202D2056657269666963617288
:100536006520737065676E696D656E746F205531E1
:1005460034206C6564202562640A006C65747475D9
:1005560072612070696E205532362E504136204F1A
:100566004B202830782530326278290A0021212153
:1005760020455252415441206C6574747572612055
:100586007375205532362E50413620283078253066
:10059600326278290A000A0A5445535420205357D8
:1005A600310A000A506F73697A696F6E617265204D
:1005B600535731207375204F4E2065200072696CA9
:1005C600657474757261207375205532362E5041EC
:1005D60037204F4B202830782530326278290A00A0
:1005E600212121204552524154412072696C657483
:1005F60074757261207375205532362E504137203E
:100606002830782530326278290A000A506F7369DB
:100616007A696F6E61726520535731207375204F6A
:100626004646206520000A0A54455354205533385F
:100636000A00566572696669636172652061636363
:10064600656E73696F6E6520646569206C656420EC
:100656005531352028553338203D20307830302923
:10066600200A0072696C6574747572612073752056
:100676005532392E5042204F4B20283078253032C3
:100686006278290A002121212045525241544120F5
:1006960072696C6574747572612073752055323990
:1006A6002E5042202830782530326278290A0056AA
:1006B60065726966696361726520737065676E69E4
:1006C6006D656E746F20646569206C6564205531B4
:1006D600352028553338203D203078666629200A93
:1006E6000054657374205533382E502562642028D3
:1006F6003078253032627829202D20566572696659
:10070600696361726520616363656E73696F6E65A7
:10071600207375205531352064656C204C45442086
:100726002562640A000A0A5445535420553135207F
:10073600706F727461205031200A000A5665726922
:100746006669636120616363656E73696F6E6520B8
:10075600553131206C65642032000A56657269662F
:1007660069636120616363656E73696F6E652055A9
:100776003131206C65642033000A566572696669FA
:10078600636120616363656E73696F6E65205531C1
:1007960031206C65642034000A56657269666963A7
:1007A6006120616363656E73696F6E6520553131D3
:1007B600206C65642035000A566572696669636156
:1007C60020616363656E73696F6E652055313120F4
:1007D6006C65642036000A56657269666963612035
:1007E600616363656E73696F6E6520553131206C88
:1007F60065642037005665726966696361726520B3
:100806006368652074757474692069206C6564205A
:100816007369616E6F207370656E7469207472619E
:100826006E6E65206C656420372064692055313111
:100836000A00566572696669636172652063686558
:100846002074757474692069206C6564207369610D
:100856006E6F206163636573690A000A28313D3053
:100866004B20303D4B4F20293A000A0A2A2A2A2AD1
:100876002A20205465737420492F4F2020202A2ACD
:100886002A2A2A2020200A0A000A5465737420495D
:100896002F4F204F4B0A000A5465737420492F4F7F
:1008A600204B4F202121200A0054657374206C656B
:1008B60064204F4E20204B4F0A0054657374206C01
:1008C6006564204F4646204B4F0A005465737420DA
:1008D60055323620504220204B4F0A00546573741F
:1008E6002055323620504320204B4F0A0054657362
:1008F600742055323920504120204B4F0A00546550
:1009060073742055333820202020204B4F0A005482
:100916006573742055313520202020204B4F0A0066
:100926005072656D65726520756E20746173746FA3
:10093600207065722070726F736567756972652EB7
:020946000A00A5
:0C364C0041020B004202050000010F00CB
:10376700D297E4F50B050BE50BB4C8F9E4F50B05A7
:103777000BE50BB4C8F9C2977BFF7A0079160216DE
:0137870056EB
:1037A8007BFF7A0079211216569040037490F07BC3
:0F37B800FF7A00792F121656902003748BF0229F
:102E75007BFF7A00793D1216567BFF7A0079401266
:102E850016567BFF7A0079651216567BFF7A007914
:102E9500401216567BFF7A00798A1216567BFF7A06
:102EA50000798C1216567BFF7A0079A11216567B93
:102EB500FF7A0079C01216567BFF7A0079D912166F
:102EC500567BFF7A0079F21216567BFF7A01791349
:102ED5001216567BFF7A01792E1216567BFF7A0160
:102EE50079491216567BFF7A0179641216567BFFD3
:102EF5007A01797C1216567BFF7A01799312165660
:102F050012380CEF24D0F513E4F546C3E5136480BD
:102F15009480407AE5136480948A5072E513120E0A
:102F2500DB2F45012F4A022F4F032F54042F5F0536
:102F35002F64062F6F072F7A082F850900002F9021
:102F450012376780491237A88044122AF7803F124A
:102F550037671237A8123220803412317D802F1244
:102F650037671237A812222980241237671237A82B
:102F75001234FF80191237671237A8122465800EA4
:102F85001237671237A8122C278003754601E546CC
:062F95007003022E7522FC
:10222900E4F50E7BFF7A0179A71216567BFF7A0136
:1022390079D8121656E4904001F0F50B050BE50B21
:10224900B4C8F9902002E0543FFF7BFFBF0F0C7A1E
:1022590002790CE0F54E121656800F7A02792E900B
:102269002002E0F54E121656050E7BFF7A027968B8
:102279001216561237DE900213EFF0BF0AF57BFFF4
:102289007A02797712165690400174FFF0E4F50B43
:10229900050BE50BB4C8F9902002E0543FFF7BFF22
:1022A900BF300C7A02790CE0F54E121656800F7A7F
:1022B9000279AB902002E0F54E121656050E7BFF0F
:1022C9007A0279681216561237DE900213EFF0BFC0
:1022D9000AF590020A7401F0E4900214F0904001AA
:1022E90074FFF0E0FF90020AE0F4FEEF5E90400117
:1022F900F07BFF7A0279D6900214E0FFF54E904008
:1023090001E0F54FEF2402F550121656902002E035
:10231900543FFF90020AE044307BFFB5070F7A0271
:10232900790C902002E0F54E121656800F7A037947
:1023390015902002E0F54E121656050E90020AE09D
:10234900FF25E0F07BFF7A0279681216561237DE14
:10235900900213EFF0BF0AF5900214E004F0E0C315
:10236900940450030222E69002147404F090400190
:1023790074FFF0E0FF90020AE0F4FEEF5E90400186
:10238900F07BFF7A0279D6900214E0FFF54E904077
:1023990001E0F54FEF2402F55012165690020AE0BB
:1023A900F45430FF902002E0543F7BFFB5070C7ACC
:1023B90002790CE0F54E121656800F7A03791590C2
:1023C9002002E0F54E121656050E90020AE0FF258E
:1023D900E0F07BFF7A0279681216561237DE900216
:1023E90013EFF0BF0AF5900214E004F0E0C394067D
:1023F900500302237690400174FFF0E0FF90020A37
:10240900E0F4FEEF5E904001F07BFF7A03793FE054
:10241900F54E754F08121656123788EF6002050EF1
:1024290090020AE025E0F090400174FFF0E0FF908F
:10243900020AE0F4FEEF5E904001F07BFF7A037937
:102449007BE0F54E754F09121656123788EF600278
:0C245900050EE50E60037F01227F0022CB
:1034FF00E4F5477BFF7A0379B7121656E490400242
:10350F00F090020A04F0E4900214F0900214E0FF2D
:10351F00C39408502E90020AE0904002F07BFF7A8D
:10352F000379CBEF2402F54E12165690020AE0FFF4
:10353F0025E0F0123788EF2547F547900214E00495
:06354F00F080C8AF472226
:102465007BFF7A0379EE121656E4900207F090028C
:102475000A04F090C0007480F09020007401F07B95
:10248500FF7A04791E121656904000E0543FFF7BF8
:10249500FFBF3F0C7A047952E0F54E121656800FB5
:1024A5007A047974904000E0F54E121656050F7BBC
:1024B500FF7A0279681216561237DE900213EFF092
:1024C500BF0AF590C0007480F090200074FEF07B88
:1024D500FF7A04799E121656904000E0543F7BFF28
:1024E500700C7A047952E0F54E121656800F7A0474
:1024F5007974904000E0F54E121656050F7BFF7A71
:102505000279681216561237DE900213EFF0BF0AF1
:10251500F590C0007480F090200074FFF0E4900204
:1025250014F07BFF7A0479D2F54E902000E0F54F48
:10253500E42402F550121656123788EF6002050F93
:1025450090C0007480F090200074FEF0E4900214B6
:10255500F07BFF7A057911F54E902000E0F54FE408
:102565002402F550121656123788EF6002050F90B7
:10257500020A7402F090021214F0900214F09020F6
:102585000074FEF0E0FF90020AE0F4FEEF5E90209A
:1025950000F07BFF7A0479D2900214E0FFF54E90AB
:1025A5002000E0F54FEF2402F55012165690021464
:1025B500E0C394075029900212E0FF904000E07BB1
:1025C500FFB5070C7A047952E0F54E121656800FC6
:1025D5007A047974904000E0F54E121656050F9076
:1025E500020AE025E0F0900212E0FF25E0F07BFF13
:1025F5007A0279681216561237DE900213EFF0BF91
:102605000AF5900214E004F0E0C394085003022593
:1026150083904000E07BFF20E60C7A057951E0F5D8
:102625004E121656800F7A057973904000E0F54EEC
:10263500121656050FE4900210F012322090021087
:0F264500EFF0E50F7003E060037F01227F0022BA
:10322000E4F510900210F07BFF7A05799C12165697
:103230007BFF7A0579A91216567BFF7A027968120C
:1032400016561237DE900213EFF0BF0AF5904000D9
:10325000E07BFF30E70C7A0579C3E0F54E12165695
:1032600080107A0579E6904000E0F54E121656750A
:1032700010017BFF7A0679111216567BFF7A0279CC
:10328000681216561237DE900213EFF0BF0AF5905F
:103290004000E07BFF20E70C7A0579C3E0F54E1291
:1032A000165680107A0579E6904000E0F54E121629
:0732B00056751002AF102259
:102C27007BFF7A06792C121656E4F51190C000F056
:102C37007BFF7A067938121656902001E07BFFB4A5
:102C4700FF0C7A067969E0F54E121656800F7A0660
:102C5700798B902001E0F54E12165605117BFF7A0D
:102C67000279681216561237DE900213EFF0BF0A88
:102C7700F590C00074FFF0FB7A0679B512165690EE
:102C87002001E07BFF700C7A067969E0F54E121699
:102C970056800F7A06798B902001E0F54E12165672
:102CA70005117BFF7A0279681216561237DE9002F9
:102CB70013EFF0BF0AF590020A7401F0E4900214D2
:102CC700F090C00074FFF090020AE0F4FF90C0009B
:102CD700F07BFF7A0679E7900214E0FEC374139E37
:102CE700F54E8F4FEE2402F55012165690020AE069
:102CF700FF902001E07BFFB5070C7A067969E0F5C4
:102D07004E121656800F7A06798B902001E0F54E09
:102D1700121656051190020AE0FF25E0F07BFF7AB4
:102D27000279681216561237DE900213EFF0BF0AC7
:102D3700F5900214E004F0E0C394084084E51160C4
:072D4700037F01227F00223F
:10317D00E4F5127BFF7A07792B121656D293C2947F
:10318D00C295C296D2977BFF7A07794112165612D5
:10319D003788EF60020512C293D2947BFF7A0779CC
:1031AD0060121656123788EF60020512C294D2953E
:1031BD007BFF7A07797F121656123788EF6002056A
:1031CD0012C295D2967BFF7A07799E121656123748
:1031DD0088EF60020512C29690E0007401F07BFF4B
:1031ED007A0779BD121656123788EF60020512E480
:1031FD0090E000F0D2977BFF7A0779DC121656C269
:10320D0097123788EF60020512E51260037F0122E5
:03321D007F00220D
:1035AA00E4900202F090C00074FFF0E4F50B050B02
:1035BA00E50BB4C8F9E490E000F0C293C294C29556
:1035CA00C296C29790400174FFF0E4A3F0902000E5
:1035DA0074FEF07BFF7A00798A1216567BFF7A070F
:0935EA0079FB12165612378822F3
:1035F300E4900208F090C000F090E00004F0D29351
:10360300D294D295D296C297E4904001F0A374FF6E
:10361300F0E4902000F07BFF7A00798A1216567B43
:0C362300FF7A08793812165612378822F8
:103788007BFF7A0879611216561237DE1237EFEF8F
:1037980064316003BF30E9BF30037F01227F00221C
:102AF7007BFF7A087970121656E4900209F07BFF83
:102B07007A00798A1216561237671237A8E49002AC
:102B170008F0900202F090020EF090020DF0900281
:102B27000FF0900204F0900203F01235F3900208C0
:102B3700EFF01235AA900202EFF01234FF90020E66
:102B4700EFF012222990020DEFF012246590020F88
:102B5700EFF0122C27900204EFF012317D90020360
:102B6700EFF07BFF7A00798A121656900208E07020
:102B770028900202E0702290020DE0701CA3E07022
:102B870018A3E07014900204E0700E900203E07046
:102B9700087BFF7A08798F806F7BFF7A08799D120F
:102BA7001656900208E060097BFF7A0879AF121683
:102BB70056900202E060097BFF7A0879C012165628
:102BC70090020DE060097BFF7A0879D112165690C2
:102BD700020EE060097BFF7A0879E212165690022E
:102BE7000FE060097BFF7A0879F31216569002040A
:102BF700E060097BFF7A097904121656900203E018
:102C070060097BFF7A0979151216567BFF7A0979D5
:102C1700261216561237DE900213EFF0BF0AF5227E
:102F9B000A0A526573657420756172740A00636F57
:102FAB006E6620756172742055323720402530349F
:102FBB00580A0031202D2075617274205532372D3F
:102FCB003E2530326258480A0032202D207561723E
:102FDB0074205532372D3E2530326258480A003363
:102FEB00202D2075617274205532372D3E253032DD
:102FFB0062580A00636F6E662075617274205533D8
:10300B0030200A000A52696365767574692025625F
:10301B00642062797465203A20002530326258486A
:10302B0020000A000A54583A203078253032627852
:10303B004820000A5072656D65726520756E2074AC
:10304B006173746F2065207665726966696361725E
:10305B00652063686520636F72726973706F6E644D
:10306B00612061207175656C6C6F20726963657688
:10307B0075746F2028712070657220757363697287
:10308B0065290A000A54583A25632825303262789C
:10309B0048292020002020525820282562642062D5
:1030AB00797465293A0025203032627820000A0AAB
:0130BB000014
:0E365800011900011A00011C004200000000D0
:030003000236675B
:10366700C0E0C083C082C0D075D000C006C007C20A
:10367700AF908000E0FFAE1A051A74022EF582E4BF
:103687003400F583EFF0D2AFD007D006D0D0D08288
:05369700D083D0E032F9
:0300130002369C16
:10369C00C0E0C083C082C0D075D000C007C2AF905C
:1036AC006000E0FF7402251CF582E43401F583EF21
:1036BC00F0051CD2AFD007D0D0D082D083D0E0326E
:1037C700D297E4F50B050BE50BB464F9C2977BFFC1
:0737D7007A2F799B021656C0
:103555001237C77E607F00754E60754F007BFF7A1E
:103565002F79A9121656E508B402047F0180027F5F
:1035750000EF444E906001F07BFF7A2F79BEE0F5B5
:103585004E1216569060017437F07BFF7A2F79D46E
:10359500E0F54E1216567BFF7A2F79EA906000E02F
:0535A500F54E02165670
:103745001237C77BFF7A2F79FF121656E508B402A8
:10375500047F0180027F00EF444E908001F07435B4
:02376500F02250
:102D4E00123555E4F51C9060017435F0E4F50B0571
:102D5E000BE50BB4C8F9E4F50B050BE50BB4C8F99C
:102D6E00E4F50B050BE50BB4C8F9E4F50B050BE523
:102D7E000BB4C8F9E4F50B050BE50BB4C8F9E4F593
:102D8E000B050BE50BB4C8F9E4F50B050BE50BB41D
:102D9E00C8F9E4F50B050BE50BB4C8F9E4F50B0522
:102DAE000BE50BB4C8F9E4F50B050BE50BB4C8F94C
:102DBE00E4F50B050BE50BB4C8F9E4F50B050BE5D3
:102DCE000BB4C8F9E4F50B050BE50BB4C8F9E4F543
:102DDE000B050BE50BB4C8F99060007455F0E4F5E3
:102DEE000B050BE50BB4C8F9E4F50B050BE50BB4BD
:102DFE00C8F9E4F50B050BE50BB4C8F9E4F50B05C2
:102E0E000BE50BB4C8F9E4F50B050BE50BB4C8F9EB
:102E1E00E4F50B050BE50BB4C8F9E4F50B050BE572
:102E2E000BB4C8F9E4F50B050BE50BB4C8F9E4F5E2
:102E3E000B050BE50BB4C8F9E4F50B050BE50BB46C
:102E4E00C8F9E4F50B050BE50BB4C8F9E4F50B0571
:102E5E000BE50BB4C8F9E4F50BE50BC394C84003BE
:072E6E00022D5A050B80F252
:10349D00123555E4F50B050BE50BB4C8F9E4F51C35
:1034AD009060017435F0E4F50B050BE50BB4C8F92C
:1034BD00E51C60FC7BFF7A30790FF54E121656E451
:1034CD00F51DE51DC3951C501B7BFF7A30792574C6
:1034DD0002251DF582E43401F583E0F54E121656F2
:1034ED00051D80DE7BFF7A30792D121656E4F51C12
:0234FD0080BE8F
:101FBA00123555E4F50B050BE50BB4C8F990600131
:101FCA007437F0E4F50B050BE50BB4C8F9E4F50B2F
:101FDA00050BE50BB4C8F9E4F50B050BE50BB4C822
:101FEA00F9E4F50B050BE50BB4C8F9E4F50B050BA1
:101FFA00E50BB4C8F9E4F50B050BE50BB4C8F9E435
:10200A00F50B050BE50BB4C8F9E4F50B050BE50B6D
:10201A00B4C8F9E4F50B050BE50BB4C8F9E4F50B04
:10202A00050BE50BB4C8F9E4F50B050BE50BB4C8D1
:10203A00F9E4F50B050BE50BB4C8F9E4F50B050B50
:10204A00E50BB4C8F9E4F50B050BE50BB4C8F9E4E4
:10205A00F50B050BE50BB4C8F9E4F50B050BE50B1D
:10206A00B4C8F9E4F50B050BE50BB4C8F9E4F50BB4
:10207A00050BE50BB4C8F9E4F50B050BE50BB4C881
:10208A00F9E4F50B050BE50BB4C8F9E4F50B050B00
:10209A00E50BB4C8F9E4F50B050BE50BB4C8F9E494
:1020AA00F50B050BE50BB4C8F9E4F50B050BE50BCD
:1020BA00B4C8F9E4F50B050BE50BB4C8F9E4F50B64
:1020CA00050BE50BB4C8F9E4F50B050BE50BB4C831
:1020DA00F9E4F50B050BE50BB4C8F99060007455EB
:1020EA00F07BFF7A30792FF54E121656E4F50B0580
:1020FA000BE50BB4C8F9E4F50B050BE50BB4C8F90D
:10210A00E4F50B050BE50BB4C8F9E4F50B050BE593
:10211A000BB4C8F9E4F50B050BE50BB4C8F9E4F503
:10212A000B050BE50BB4C8F9E4F50B050BE50BB48D
:10213A00C8F9E4F50B050BE50BB4C8F9E4F50B0592
:10214A000BE50BB4C8F9E4F50B050BE50BB4C8F9BC
:10215A00E4F50B050BE50BB4C8F9E4F50B050BE543
:10216A000BB4C8F9E4F50B050BE50BB4C8F9E4F5B3
:10217A000B050BE50BB4C8F9E4F50B050BE50BB43D
:10218A00C8F9E4F50B050BE50BB4C8F9E4F50B0542
:10219A000BE50BB4C8F9E4F50B050BE50BB4C8F96C
:1021AA00E4F50B050BE50BB4C8F9E4F50B050BE5F3
:1021BA000BB4C8F9E4F50B050BE50BB4C8F9E4F563
:1021CA000B050BE50BB4C8F9E4F50B050BE50BB4ED
:1021DA00C8F9E4F50B050BE50BB4C8F9E4F50B05F2
:1021EA000BE50BB4C8F9E4F50B050BE50BB4C8F91C
:1021FA00E4F50B050BE50BB4C8F9E4F50B050BE5A3
:10220A000BB4C8F9E4F50B050BE50BB4C8F9E4F512
:0F221A000BE50BC394C840030220E5050B80F2CF
:10334300E4F5467BFF7A30793E12165612374580F4
:10335300621237DE8F1B1237EF8F47EF64516058CD
:10336300309013908000E51BF07BFF7A30798FF566
:103373004EF54F121656E51A60D77BFF7A3079A0C7
:10338300F54E121656E4F546E546C3951A501B7BD7
:10339300FF7A3079B174022546F582E43400F5836F
:1033A300E0F54E121656054680DE7BFF7A3079B97A
:1033B300121656E4F51A80997BFF7A30792D02169E
:0133C30056B3
:10094800EC4D6011E8497017ED33EC3304600DE4A9
:10095800FCFFFEFD22E933E8330470F8020AC112F5
:100968000A8C58046009E4CC2481500628500902F6
:100978000ACB284003020AC8C0E0EB4A7044B98099
:1009880006D0E0FB020AB7EF4E701CBD8008EBFFF3
:10099800EAFEE9FD80EBE98DF0A4FEE5F0020A31FC
:1009A800E9CDF9EAFEEBFFEF89F0A4FCE5F0CE898A
:1009B800F0A42EFFE435F0CD89F0A42DFEE435F047
:1009C8008067EF4E7005BD80D780C3EF8BF0A4AC75
:1009D800F0EE8BF0A42CFCE435F0F8EF8AF0A42CB0
:1009E800E5F038FCE433CB8DF0A42CFCE5F03BF8C3
:1009F800EE8AF0A42CFCE5F038F8E433CF89F0A4B3
:100A08002CFCE5F038CF3400CE89F0A42FFFE5F0B8
:100A18003EFEE433C98DF0A42EFEE5F039CD8AF010
:100A2800A42FFFE5F03EFEE43DFD33D0E0FB500788
:100A38000BBB000F020ACBEC2CFCEF33FFEE33FEAE
:060A4800ED33FD020AA3DC
:100A4E0075F020800E75F010800575F0087D007E23
:100A5E00007F003392D530D503120EBDEC3340101B
:100A6E00EF33FFEE33FEED33FDEC33FCD5F0ED222C
:0E0A7E00E5F0247EA2D513CC92E7CDCEFF2268
:1015F400E562244EF8E6056222784B300702784E05
:10160400E475F001120ECB020E102000EB7F2ED2F7
:10161400008018EF540F2490D43440D4FF30040BCE
:10162400EF24BFB41A0050032461FFE56360021580
:10163400630566E5667002056530070D784BE47551
:10164400F001120ECBEF020E5602371E7403D207BE
:101654008003E4C207F5628B4B8A4C894DE4F56341
:10166400F565F566E56360077F2012162F80F57532
:1016740064FFC201C200C202C203C205C206C2089C
:101684001215FDFF700D3007057F00121640AF667E
:10169400AE6522B4255FC2D5C2041215FDFF24D065
:1016A400B40A00501A75F00A786330D50508B6FFFD
:1016B4000106C6A426F620D5047002D20380D924DC
:1016C400CFB41A00EF5004C2E5D20402192DD2019E
:1016D40080C6D20080C0D20280BCD2D580BAD205E6
:1016E40080B47F2012162F2002077401B5630040D6
:1016F400F11215F4FF12162F021668D208D20680D2
:10170400951215F4FB1215F4FA1215F4F94A4B70FC
:101714000679247A1A7BFF20022EE563602A7E0074
:101724008E82758300120E2960060EEE656470F0D9
:10173400C2D5EBC0E0EAC0E0E9C0E0EE12198DD0FA
:10174400E0F9D0E0FAD0E0FB120E10FF60AAEBC083
:10175400E0EAC0E0E9C0E012162FD0E02401F9D09D
:10176400E03400FAD0E0FBE5640460DCD564D980A1
:1017740087D20280A212197060F7E5647001041226
:101784000AD6A964600DE564600914F564121A1799
:10179400EF60F3EA30E702F404C3995077EAF425E2
:1017A400640430E701E404F564800D12197060C12B
:1017B400EA05642564120AD6EA7861F630E701E4A2
:1017C400256404D564042005011412198DE4C0E0D5
:1017D400121A177861E6601320E70714F612161739
:1017E400802204F6D0E014C0E07F00121617E564EE
:1017F400600712160E1564800B30050312160ED006
:10180400E0021668D0E00480C512197060A0E56497
:1018140004120AD67861EAF6E56420050260010440
:05182400240412198DDF
:1018290074FF04C0E0121A17121617E564200502A6
:10183900600312160ED0E0B564E87F4512162178D0
:1018490061E67F2B30E7047F2DF404C0E012162FE8
:10185900D0E075F00A84C0F0121618D0E0121618FC
:10186900021668791080027908C206C2088008D277
:10187900D5790A8004790AC2D5E564047002F56451
:10188900E4FAFDFEFF1215F4FC7B08200113121582
:10189900F4FD7B1030000A1215F4FE1215F4FF7BDB
:1018A90020EC3382D592D55013C3E43000069FFF54
:1018B900E49EFEE42001039DFDE49CFCE4CBF8C218
:1018C90001EC700CCFCECDCCE824F8F870F380177A
:1018D900C3EF33FFEE33FEED33FDEC33FCEB33FBAB
:1018E900994002FB0FD8E9EB300105F8D0E0C44874
:1018F900B201C0E00AEC4D4E4F78207B0070C2EA7D
:10190900B5640040BCC0E012198FD0F0D0E02001CE
:1019190004C4C0E0C4B201C0F0121618D0F0D5F06A
:10192900EB021668120EDB170553186C5816D64CC5
:1019390016D24218704F18784418784916EB431894
:101949007E5517AF46180D451779471A445016DAD0
:101959002D16DE2E17012B16E22316FF201A2D2A2B
:10196900169A48000016F9E564B4FF037564061277
:1019790015F4FC1215F4FD1215F4FE1215F4FF7896
:101989005A020B05790AA2D5200314300509B910AA
:10199900020404B9080104A2D5200602500104205A
:1019A90002689202B563005034C0E07F2030031909
:1019B9007F30A20272067205500F1219E6C202C2E6
:1019C90006C205C2087F30800F300503E9C0E01266
:1019D900162F300503D0E0F9D0E0B563CC300517F8
:1019E9007F30B9100C12162F7F583004077F78808A
:1019F90003B9080312162F3002057F2D02162F7F17
:101A0900202008F87F2B2006F322920280CF7F0046
:101A1900B407005005245AF8E6FF22286E756C6C4D
:101A29002900D2011215F43001F8C201786330D5CA
:101A39000108F602169A2D504349581215F4240349
:101A4900B405004001E4901A3F93121620743A122B
:0A1A59001620D20375630402186C16
:100A8C00E9D2E7C933E833F892D5EDD2E7CD33ECB0
:070A9C0033FC5002B2D52229
:100AA300EC30E7100FBF000C0EBE00080DBD0004B4
:100AB3000BEB6014A2D5EB13FCED92E7FD2274FF60
:100AC300FCFDFEFF22E480F8A2D574FF13FC7D80B9
:030AD300E480EFCD
:100AD600F920E72824F950037907E4F42402FB18E7
:100AE600DBFDE624FB5014E9600DE4F618E604F697
:0F0AF600B40A08E4F6D9F57401F60A22C2D52233
:100B0500ED33EC3392D5FA602AB4FF33EDC2E77BBF
:100B1500FF60067A0B792AE4227A0B793320D50413
:100B25007A0B792E224E614E002B494E46002D49F7
:100B35004E4600E47A08F608DAFC7B00740722E8E2
:100B4500C0E0ECC0E0EDC0E0EEC0E0EFC0E0EA756B
:100B5500F010A4CAABF075F04DA42BFBE435F0FC06
:100B6500EA2410FAEB34C5FBEC34D9FCEDC2E7FFFF
:100B750075F056A4F42411C5F0F434C58FF0A42AF9
:100B8500E5F03BE43CF620E714120DD0D0E0FFD0B1
:100B9500E0FED0E0FDD0E0FC120D038014F4041259
:100BA5000DD0D0E0FFD0E0FED0E0FDD0E0FC120992
:100BB50048D0E0F8E6FAEDD2E7CD33EC332482FBFA
:100BC500E4C3CF33CFCE33CECD33CD33DBF37B0789
:100BD50075F00A846004F6081B0AE5F0F6088FF044
:100BE500740AA4FFACF08EF0740AA42CFEACF0508D
:100BF500010C8DF0740AA42CFDE435F0F608DBDE5B
:030C05007407224F
:100C0800020AC1E86480F8E933E83360110460F04F
:100C1800ED33EC337009E8FCE9FDEAFEEBFF220452
:100C280060DED3EB9FEA9EE99DE8C2E78CF0C2F74D
:100C380095F0400CE8CCF8E9CDF9EACEFAEBCFFB19
:100C4800120A8C85D0F05804700320D5B3E80470DC
:100C5800075002B2D5020ACB92D5EC0460F7E4CC77
:100C6800C0E0C398F8603B94186008400DD0E0FBE2
:100C7800020AA3E4FBFAC9FC8028E830E406E4C9C8
:100C8800FBE4CAFCE830E305E4C9CACBFCE8540736
:100C98006010F8C3E913F9EA13FAEB13FBEC13FC41
:100CA800D8F130F52FC3E49CFCEF9BFFEE9AFEEDE4
:100CB80099FDD0E0FBEF4E4D4C701222DB03020A87
:100CC800C8EC2CFCEF33FFEE33FEED33FDED30E7DF
:100CD800EB020AA3EF2BFFEE3AFEED39FDD0E0FB65
:100CE80050130BBB0003020ACBED13FDEE13FEEF0E
:080CF80013FFEC13FC020AA338
:100D0000020ACBEC5D046005E859047003020AC1D5
:100D1000120A8C580460F6EC4860F2EC7004FDFE98
:100D2000FF22C860DB2481C85009C39860025006C6
:100D3000020AC89850CAF582E9294B4A7005AB826D
:100D4000020AB775F0007C1A7880C3EF9BEE9AED2B
:100D500099400DC3EF9BFFEE9AFEED99FDE842F03E
:100D6000DC23ACF0D0E0FFD0E0FED0E0FDAB822091
:100D7000E7101BEB60BAEC2CFCEF33FFEE33FEED1B
:100D800033FD020AA3E803F830E705C0F075F00070
:100D9000EF2FFFEE33FEED33FD40B830E7C280AAFF
:100DA0003F8000004120000042C80000447A00005B
:100DB000461C400047C35000497424004B189680DD
:100DC0004CBEBC205A0E1BCA6753C21C749DC5AED4
:100DD000FB60065407601C2323120DFEEB543860A1
:100DE00009120DEA120DF9120948ECF8EDF9EEFAC4
:100DF000EFCB22EB120DF980F1543803241C900D37
:100E0000A0FE93FC0EEE93FD0EEE930ECE93FF220A
:030000000232B712
:0C32B700787FE4F6D8FD7581680232FED5
:100E1000BB010689828A83E0225002E722BBFE02E0
:090E2000E32289828A83E4932213
:100E2900BB010CE58229F582E5833AF583E022507E
:100E390006E92582F8E622BBFE06E92582F8E222C8
:0D0E4900E58229F582E5833AF583E49322E2
:100E5600BB010689828A83F0225002F722BBFE017B
:020E6600F32275
:100E6800BC000BBE0029EF8DF084FFADF022E4CC6E
:100E7800F875F008EF2FFFEE33FEEC33FCEE9DEC37
:100E8800984005FCEE9DFE0FD5F0E9E4CEFD22ED7D
:100E9800F8F5F0EE8420D21CFEADF075F008EF2FC7
:100EA800FFED33FD4007985006D5F0F222C398FDB8
:050EB8000FD5F0EA2255
:0E0EBD00C3E49FFFE49EFEE49DFDE49CFC2246
:100ECB00FAE6FB0808E6F925F0F618E6CA3AF62228
:100EDB00D083D082F8E4937012740193700DA3A3A6
:100EEB0093F8740193F5828883E4737402936860BA
:060EFB00EFA3A3A380DFBA
:10371E00EFB40A07740D123729740A309811A8995C
:10372E00B8130CC2983098FDA899C298B811F6300B
:07373E0099FDC299F59922E3
:0A380C003098FDAF99C2987E0022AB
:1037DE0010090B12380CBF0D027F0A02371EAF1EE6
:0137EE0022B8
:1037EF00EFC39461400AEF947B5005EF24E0FF2272
:0137FF0022A7
:0C380000EE30E707C3E49FFFE49EFE22C9
:100F0100E709F60870FA8046E709F20870FA803EB0
:100F110088828C83E709F0A370FA807EE309F608E2
:100F210070FA8076E309F20870FA806E88828C8309
:100F3100E309F0A370FA806289828A83E0A3F6084C
:100F410070FA805689828A83E0A3F20870FA804A97
:100F510080D280FA80C680D4806580F28031801092
:100F610080A680EA809A80A880DA80E280CA8031F7
:100F710089828A83ECFAE493A3C8C582C8CCC5836D
:100F8100CCF0A3C8C582C8CCC583CC70E9800D89DB
:100F9100828A83E493A3F60870F9ECFAA9F0EDFBD9
:100FA1002289828A83ECFAE0A3C8C582C8CCC583B2
:100FB100CCF0A3C8C582C8CCC583CC70EA80DD89DA
:100FC100828A83E493A3F20870F980CE88F0ED243D
:100FD10002B4040050C4F582EB2402B4040050BAF8
:090FE1002323458223900F517374
:1032C30002343BE493A3F8E493A34003F68001F2B2
:1032D30008DFF48029E493A3F85407240CC8C3330C
:1032E300C4540F4420C8834004F456800146F6DFDB
:1032F300E4800B010204081020408090362FE47E06
:10330300019360BCA3FF543F30E509541FFEE493CF
:10331300A360010ECF54C025E060A840B8E493A396
:10332300FAE493A3F8E493A3C8C582C8CAC583CAC1
:10333300F0A3C8C582C8CAC583CADFE9DEE780BE79
:013666000063
:00000001FF
